{
    "contractName": "HavenToken",
    "abi": [
        {
            "inputs": [],
            "stateMutability": "nonpayable",
            "type": "constructor"
        },
        {
            "anonymous": false,
            "inputs": [
                {
                    "indexed": true,
                    "internalType": "address",
                    "name": "owner",
                    "type": "address"
                },
                {
                    "indexed": true,
                    "internalType": "address",
                    "name": "spender",
                    "type": "address"
                },
                {
                    "indexed": false,
                    "internalType": "uint256",
                    "name": "value",
                    "type": "uint256"
                }
            ],
            "name": "Approval",
            "type": "event"
        },
        {
            "anonymous": false,
            "inputs": [
                {
                    "indexed": true,
                    "internalType": "address",
                    "name": "from",
                    "type": "address"
                },
                {
                    "indexed": true,
                    "internalType": "address",
                    "name": "to",
                    "type": "address"
                },
                {
                    "indexed": false,
                    "internalType": "uint256",
                    "name": "value",
                    "type": "uint256"
                }
            ],
            "name": "Transfer",
            "type": "event"
        },
        {
            "inputs": [
                {
                    "internalType": "address",
                    "name": "owner",
                    "type": "address"
                },
                {
                    "internalType": "address",
                    "name": "spender",
                    "type": "address"
                }
            ],
            "name": "allowance",
            "outputs": [
                {
                    "internalType": "uint256",
                    "name": "",
                    "type": "uint256"
                }
            ],
            "stateMutability": "view",
            "type": "function"
        },
        {
            "inputs": [
                {
                    "internalType": "address",
                    "name": "spender",
                    "type": "address"
                },
                {
                    "internalType": "uint256",
                    "name": "amount",
                    "type": "uint256"
                }
            ],
            "name": "approve",
            "outputs": [
                {
                    "internalType": "bool",
                    "name": "",
                    "type": "bool"
                }
            ],
            "stateMutability": "nonpayable",
            "type": "function"
        },
        {
            "inputs": [
                {
                    "internalType": "address",
                    "name": "account",
                    "type": "address"
                }
            ],
            "name": "balanceOf",
            "outputs": [
                {
                    "internalType": "uint256",
                    "name": "",
                    "type": "uint256"
                }
            ],
            "stateMutability": "view",
            "type": "function"
        },
        {
            "inputs": [],
            "name": "decimals",
            "outputs": [
                {
                    "internalType": "uint8",
                    "name": "",
                    "type": "uint8"
                }
            ],
            "stateMutability": "view",
            "type": "function"
        },
        {
            "inputs": [
                {
                    "internalType": "address",
                    "name": "spender",
                    "type": "address"
                },
                {
                    "internalType": "uint256",
                    "name": "subtractedValue",
                    "type": "uint256"
                }
            ],
            "name": "decreaseAllowance",
            "outputs": [
                {
                    "internalType": "bool",
                    "name": "",
                    "type": "bool"
                }
            ],
            "stateMutability": "nonpayable",
            "type": "function"
        },
        {
            "inputs": [
                {
                    "internalType": "address",
                    "name": "spender",
                    "type": "address"
                },
                {
                    "internalType": "uint256",
                    "name": "addedValue",
                    "type": "uint256"
                }
            ],
            "name": "increaseAllowance",
            "outputs": [
                {
                    "internalType": "bool",
                    "name": "",
                    "type": "bool"
                }
            ],
            "stateMutability": "nonpayable",
            "type": "function"
        },
        {
            "inputs": [
                {
                    "internalType": "address",
                    "name": "account",
                    "type": "address"
                },
                {
                    "internalType": "uint256",
                    "name": "amount",
                    "type": "uint256"
                }
            ],
            "name": "marketplaceRewards",
            "outputs": [],
            "stateMutability": "nonpayable",
            "type": "function"
        },
        {
            "inputs": [],
            "name": "name",
            "outputs": [
                {
                    "internalType": "string",
                    "name": "",
                    "type": "string"
                }
            ],
            "stateMutability": "view",
            "type": "function"
        },
        {
            "inputs": [],
            "name": "symbol",
            "outputs": [
                {
                    "internalType": "string",
                    "name": "",
                    "type": "string"
                }
            ],
            "stateMutability": "view",
            "type": "function"
        },
        {
            "inputs": [],
            "name": "totalSupply",
            "outputs": [
                {
                    "internalType": "uint256",
                    "name": "",
                    "type": "uint256"
                }
            ],
            "stateMutability": "view",
            "type": "function"
        },
        {
            "inputs": [
                {
                    "internalType": "address",
                    "name": "to",
                    "type": "address"
                },
                {
                    "internalType": "uint256",
                    "name": "amount",
                    "type": "uint256"
                }
            ],
            "name": "transfer",
            "outputs": [
                {
                    "internalType": "bool",
                    "name": "",
                    "type": "bool"
                }
            ],
            "stateMutability": "nonpayable",
            "type": "function"
        },
        {
            "inputs": [
                {
                    "internalType": "address",
                    "name": "from",
                    "type": "address"
                },
                {
                    "internalType": "address",
                    "name": "to",
                    "type": "address"
                },
                {
                    "internalType": "uint256",
                    "name": "amount",
                    "type": "uint256"
                }
            ],
            "name": "transferFrom",
            "outputs": [
                {
                    "internalType": "bool",
                    "name": "",
                    "type": "bool"
                }
            ],
            "stateMutability": "nonpayable",
            "type": "function"
        }
    ],
    "bytecode": "608060405267016345785d8a00006005556200001e6012600a62000436565b6200002e9063055d4a806200044e565b6006556008805473eeeeeeeeeeeeeeeeeeeeeeeeeeeeeeeeeeeeeeee6001600160a01b0319918216811790925560098054909116909117905560408051808201909152600b81526a2430bb32b7102a37b5b2b760a91b6020820152600a9062000098908262000514565b50604080518082019091526003815262090acb60eb1b6020820152600b90620000c2908262000514565b50348015620000d057600080fd5b50600a8054620000e09062000486565b80601f01602080910402602001604051908101604052809291908181526020018280546200010e9062000486565b80156200015f5780601f1062000133576101008083540402835291602001916200015f565b820191906000526020600020905b8154815290600101906020018083116200014157829003601f168201915b5050505050600b8054620001739062000486565b80601f0160208091040260200160405190810160405280929190818152602001828054620001a19062000486565b8015620001f25780601f10620001c657610100808354040283529160200191620001f2565b820191906000526020600020905b815481529060010190602001808311620001d457829003601f168201915b5050505050816003908162000208919062000514565b50600462000217828262000514565b5050506200022e336006546200023460201b60201c565b620005fb565b6001600160a01b0382166200028f5760405162461bcd60e51b815260206004820152601f60248201527f45524332303a206d696e7420746f20746865207a65726f206164647265737300604482015260640160405180910390fd5b8060026000828254620002a39190620005e0565b90915550506001600160a01b03821660009081526020819052604081208054839290620002d2908490620005e0565b90915550506040518181526001600160a01b038316906000907fddf252ad1be2c89b69c2b068fc378daa952ba7f163c4a11628f55a4df523b3ef9060200160405180910390a35050565b505050565b634e487b7160e01b600052601160045260246000fd5b600181815b80851115620003785781600019048211156200035c576200035c62000321565b808516156200036a57918102915b93841c93908002906200033c565b509250929050565b600082620003915750600162000430565b81620003a05750600062000430565b8160018114620003b95760028114620003c457620003e4565b600191505062000430565b60ff841115620003d857620003d862000321565b50506001821b62000430565b5060208310610133831016604e8410600b841016171562000409575081810a62000430565b62000415838362000337565b80600019048211156200042c576200042c62000321565b0290505b92915050565b60006200044760ff84168362000380565b9392505050565b60008160001904831182151516156200046b576200046b62000321565b500290565b634e487b7160e01b600052604160045260246000fd5b600181811c908216806200049b57607f821691505b602082108103620004bc57634e487b7160e01b600052602260045260246000fd5b50919050565b601f8211156200031c57600081815260208120601f850160051c81016020861015620004eb5750805b601f850160051c820191505b818110156200050c57828155600101620004f7565b505050505050565b81516001600160401b0381111562000530576200053062000470565b620005488162000541845462000486565b84620004c2565b602080601f831160018114620005805760008415620005675750858301515b600019600386901b1c1916600185901b1785556200050c565b600085815260208120601f198616915b82811015620005b15788860151825594840194600190910190840162000590565b5085821015620005d05787850151600019600388901b60f8161c191681555b5050505050600190811b01905550565b60008219821115620005f657620005f662000321565b500190565b610a2c806200060b6000396000f3fe608060405234801561001057600080fd5b50600436106100b45760003560e01c806370a082311161007157806370a08231146101415780637a5d57f71461016a57806395d89b411461017f578063a457c2d714610187578063a9059cbb1461019a578063dd62ed3e146101ad57600080fd5b806306fdde03146100b9578063095ea7b3146100d757806318160ddd146100fa57806323b872dd1461010c578063313ce5671461011f578063395093511461012e575b600080fd5b6100c16101c0565b6040516100ce9190610843565b60405180910390f35b6100ea6100e53660046108b4565b610252565b60405190151581526020016100ce565b6002545b6040519081526020016100ce565b6100ea61011a3660046108de565b61026a565b604051601281526020016100ce565b6100ea61013c3660046108b4565b61028e565b6100fe61014f36600461091a565b6001600160a01b031660009081526020819052604090205490565b61017d6101783660046108b4565b6102b0565b005b6100c1610330565b6100ea6101953660046108b4565b61033f565b6100ea6101a83660046108b4565b6103bf565b6100fe6101bb36600461093c565b6103cd565b6060600380546101cf9061096f565b80601f01602080910402602001604051908101604052809291908181526020018280546101fb9061096f565b80156102485780601f1061021d57610100808354040283529160200191610248565b820191906000526020600020905b81548152906001019060200180831161022b57829003601f168201915b5050505050905090565b6000336102608185856103f8565b5060019392505050565b60003361027885828561051c565b610283858585610596565b506001949350505050565b6000336102608185856102a183836103cd565b6102ab91906109bf565b6103f8565b60006102bd82600a6109d7565b6008549091506001600160a01b03163314806102e357506009546001600160a01b031633145b6102ec57600080fd5b600554600754106102fc57600080fd5b600554811061030a57600080fd5b6103148383610764565b806007600082825461032691906109bf565b9091555050505050565b6060600480546101cf9061096f565b6000338161034d82866103cd565b9050838110156103b25760405162461bcd60e51b815260206004820152602560248201527f45524332303a2064656372656173656420616c6c6f77616e63652062656c6f77604482015264207a65726f60d81b60648201526084015b60405180910390fd5b61028382868684036103f8565b600033610260818585610596565b6001600160a01b03918216600090815260016020908152604080832093909416825291909152205490565b6001600160a01b03831661045a5760405162461bcd60e51b8152602060048201526024808201527f45524332303a20617070726f76652066726f6d20746865207a65726f206164646044820152637265737360e01b60648201526084016103a9565b6001600160a01b0382166104bb5760405162461bcd60e51b815260206004820152602260248201527f45524332303a20617070726f766520746f20746865207a65726f206164647265604482015261737360f01b60648201526084016103a9565b6001600160a01b0383811660008181526001602090815260408083209487168084529482529182902085905590518481527f8c5be1e5ebec7d5bd14f71427d1e84f3dd0314c0f7b2291e5b200ac8c7c3b925910160405180910390a3505050565b600061052884846103cd565b9050600019811461059057818110156105835760405162461bcd60e51b815260206004820152601d60248201527f45524332303a20696e73756666696369656e7420616c6c6f77616e636500000060448201526064016103a9565b61059084848484036103f8565b50505050565b6001600160a01b0383166105fa5760405162461bcd60e51b815260206004820152602560248201527f45524332303a207472616e736665722066726f6d20746865207a65726f206164604482015264647265737360d81b60648201526084016103a9565b6001600160a01b03821661065c5760405162461bcd60e51b815260206004820152602360248201527f45524332303a207472616e7366657220746f20746865207a65726f206164647260448201526265737360e81b60648201526084016103a9565b6001600160a01b038316600090815260208190526040902054818110156106d45760405162461bcd60e51b815260206004820152602660248201527f45524332303a207472616e7366657220616d6f756e7420657863656564732062604482015265616c616e636560d01b60648201526084016103a9565b6001600160a01b0380851660009081526020819052604080822085850390559185168152908120805484929061070b9084906109bf565b92505081905550826001600160a01b0316846001600160a01b03167fddf252ad1be2c89b69c2b068fc378daa952ba7f163c4a11628f55a4df523b3ef8460405161075791815260200190565b60405180910390a3610590565b6001600160a01b0382166107ba5760405162461bcd60e51b815260206004820152601f60248201527f45524332303a206d696e7420746f20746865207a65726f20616464726573730060448201526064016103a9565b80600260008282546107cc91906109bf565b90915550506001600160a01b038216600090815260208190526040812080548392906107f99084906109bf565b90915550506040518181526001600160a01b038316906000907fddf252ad1be2c89b69c2b068fc378daa952ba7f163c4a11628f55a4df523b3ef9060200160405180910390a35050565b600060208083528351808285015260005b8181101561087057858101830151858201604001528201610854565b81811115610882576000604083870101525b50601f01601f1916929092016040019392505050565b80356001600160a01b03811681146108af57600080fd5b919050565b600080604083850312156108c757600080fd5b6108d083610898565b946020939093013593505050565b6000806000606084860312156108f357600080fd5b6108fc84610898565b925061090a60208501610898565b9150604084013590509250925092565b60006020828403121561092c57600080fd5b61093582610898565b9392505050565b6000806040838503121561094f57600080fd5b61095883610898565b915061096660208401610898565b90509250929050565b600181811c9082168061098357607f821691505b6020821081036109a357634e487b7160e01b600052602260045260246000fd5b50919050565b634e487b7160e01b600052601160045260246000fd5b600082198211156109d2576109d26109a9565b500190565b60008160001904831182151516156109f1576109f16109a9565b50029056fea264697066735822122057f738df80f4a80a7033cb725c2c3e84b44e30cd87bd291a52b1d6b89e390f2464736f6c634300080f0033",
    "sourcePath": "c:/Users/Nobert Jakpor/Desktop/NftMarketplace (Frontend)/SmartContracts/HavenToken.sol",
    "compiler": {
        "name": "solc",
        "version": "0.8.15+commit.e14f2714"
    },
    "functionHashes": {
        "allowance(address,address)": "dd62ed3e",
        "approve(address,uint256)": "095ea7b3",
        "balanceOf(address)": "70a08231",
        "decimals()": "313ce567",
        "decreaseAllowance(address,uint256)": "a457c2d7",
        "increaseAllowance(address,uint256)": "39509351",
        "marketplaceRewards(address,uint256)": "7a5d57f7",
        "name()": "06fdde03",
        "symbol()": "95d89b41",
        "totalSupply()": "18160ddd",
        "transfer(address,uint256)": "a9059cbb",
        "transferFrom(address,address,uint256)": "23b872dd"
    },
    "gasEstimates": {
        "creation": {
            "codeDepositCost": "520800",
            "executionCost": "infinite",
            "totalCost": "infinite"
        },
        "external": {
            "allowance(address,address)": "infinite",
            "approve(address,uint256)": "24624",
            "balanceOf(address)": "2540",
            "decimals()": "266",
            "decreaseAllowance(address,uint256)": "27016",
            "increaseAllowance(address,uint256)": "27089",
            "marketplaceRewards(address,uint256)": "infinite",
            "name()": "infinite",
            "symbol()": "infinite",
            "totalSupply()": "2326",
            "transfer(address,uint256)": "51270",
            "transferFrom(address,address,uint256)": "infinite"
        }
    }
}