{
    "contractName": "HavenToken",
    "abi": [
        {
            "inputs": [],
            "stateMutability": "nonpayable",
            "type": "constructor"
        },
        {
            "anonymous": false,
            "inputs": [
                {
                    "indexed": true,
                    "internalType": "address",
                    "name": "owner",
                    "type": "address"
                },
                {
                    "indexed": true,
                    "internalType": "address",
                    "name": "spender",
                    "type": "address"
                },
                {
                    "indexed": false,
                    "internalType": "uint256",
                    "name": "value",
                    "type": "uint256"
                }
            ],
            "name": "Approval",
            "type": "event"
        },
        {
            "anonymous": false,
            "inputs": [
                {
                    "indexed": true,
                    "internalType": "address",
                    "name": "from",
                    "type": "address"
                },
                {
                    "indexed": true,
                    "internalType": "address",
                    "name": "to",
                    "type": "address"
                },
                {
                    "indexed": false,
                    "internalType": "uint256",
                    "name": "value",
                    "type": "uint256"
                }
            ],
            "name": "Transfer",
            "type": "event"
        },
        {
            "inputs": [
                {
                    "internalType": "address",
                    "name": "owner",
                    "type": "address"
                },
                {
                    "internalType": "address",
                    "name": "spender",
                    "type": "address"
                }
            ],
            "name": "allowance",
            "outputs": [
                {
                    "internalType": "uint256",
                    "name": "",
                    "type": "uint256"
                }
            ],
            "stateMutability": "view",
            "type": "function"
        },
        {
            "inputs": [
                {
                    "internalType": "address",
                    "name": "spender",
                    "type": "address"
                },
                {
                    "internalType": "uint256",
                    "name": "amount",
                    "type": "uint256"
                }
            ],
            "name": "approve",
            "outputs": [
                {
                    "internalType": "bool",
                    "name": "",
                    "type": "bool"
                }
            ],
            "stateMutability": "nonpayable",
            "type": "function"
        },
        {
            "inputs": [
                {
                    "internalType": "address",
                    "name": "account",
                    "type": "address"
                }
            ],
            "name": "balanceOf",
            "outputs": [
                {
                    "internalType": "uint256",
                    "name": "",
                    "type": "uint256"
                }
            ],
            "stateMutability": "view",
            "type": "function"
        },
        {
            "inputs": [],
            "name": "decimals",
            "outputs": [
                {
                    "internalType": "uint8",
                    "name": "",
                    "type": "uint8"
                }
            ],
            "stateMutability": "view",
            "type": "function"
        },
        {
            "inputs": [
                {
                    "internalType": "address",
                    "name": "spender",
                    "type": "address"
                },
                {
                    "internalType": "uint256",
                    "name": "subtractedValue",
                    "type": "uint256"
                }
            ],
            "name": "decreaseAllowance",
            "outputs": [
                {
                    "internalType": "bool",
                    "name": "",
                    "type": "bool"
                }
            ],
            "stateMutability": "nonpayable",
            "type": "function"
        },
        {
            "inputs": [
                {
                    "internalType": "address",
                    "name": "spender",
                    "type": "address"
                },
                {
                    "internalType": "uint256",
                    "name": "addedValue",
                    "type": "uint256"
                }
            ],
            "name": "increaseAllowance",
            "outputs": [
                {
                    "internalType": "bool",
                    "name": "",
                    "type": "bool"
                }
            ],
            "stateMutability": "nonpayable",
            "type": "function"
        },
        {
            "inputs": [],
            "name": "marketContract",
            "outputs": [
                {
                    "internalType": "address",
                    "name": "",
                    "type": "address"
                }
            ],
            "stateMutability": "view",
            "type": "function"
        },
        {
            "inputs": [
                {
                    "internalType": "address",
                    "name": "account",
                    "type": "address"
                },
                {
                    "internalType": "uint256",
                    "name": "amount",
                    "type": "uint256"
                }
            ],
            "name": "marketplaceRewards",
            "outputs": [],
            "stateMutability": "nonpayable",
            "type": "function"
        },
        {
            "inputs": [],
            "name": "name",
            "outputs": [
                {
                    "internalType": "string",
                    "name": "",
                    "type": "string"
                }
            ],
            "stateMutability": "view",
            "type": "function"
        },
        {
            "inputs": [
                {
                    "internalType": "address",
                    "name": "marketAddress",
                    "type": "address"
                }
            ],
            "name": "setMarketAddress",
            "outputs": [],
            "stateMutability": "nonpayable",
            "type": "function"
        },
        {
            "inputs": [
                {
                    "internalType": "address",
                    "name": "stakingContractAddress",
                    "type": "address"
                }
            ],
            "name": "setStakingAddress",
            "outputs": [],
            "stateMutability": "nonpayable",
            "type": "function"
        },
        {
            "inputs": [],
            "name": "stakingContract",
            "outputs": [
                {
                    "internalType": "address",
                    "name": "",
                    "type": "address"
                }
            ],
            "stateMutability": "view",
            "type": "function"
        },
        {
            "inputs": [],
            "name": "symbol",
            "outputs": [
                {
                    "internalType": "string",
                    "name": "",
                    "type": "string"
                }
            ],
            "stateMutability": "view",
            "type": "function"
        },
        {
            "inputs": [],
            "name": "totalSupply",
            "outputs": [
                {
                    "internalType": "uint256",
                    "name": "",
                    "type": "uint256"
                }
            ],
            "stateMutability": "view",
            "type": "function"
        },
        {
            "inputs": [
                {
                    "internalType": "address",
                    "name": "to",
                    "type": "address"
                },
                {
                    "internalType": "uint256",
                    "name": "amount",
                    "type": "uint256"
                }
            ],
            "name": "transfer",
            "outputs": [
                {
                    "internalType": "bool",
                    "name": "",
                    "type": "bool"
                }
            ],
            "stateMutability": "nonpayable",
            "type": "function"
        },
        {
            "inputs": [
                {
                    "internalType": "address",
                    "name": "from",
                    "type": "address"
                },
                {
                    "internalType": "address",
                    "name": "to",
                    "type": "address"
                },
                {
                    "internalType": "uint256",
                    "name": "amount",
                    "type": "uint256"
                }
            ],
            "name": "transferFrom",
            "outputs": [
                {
                    "internalType": "bool",
                    "name": "",
                    "type": "bool"
                }
            ],
            "stateMutability": "nonpayable",
            "type": "function"
        }
    ],
    "bytecode": "608060405267016345785d8a00006005556200001e6012600a62000444565b6200002e9063055d4a806200045c565b6006556008805473eeeeeeeeeeeeeeeeeeeeeeeeeeeeeeeeeeeeeeee6001600160a01b0319918216811790925560098054909116909117905560408051808201909152600b8082526a2430bb32b7102a37b5b2b760a91b60208301529062000097908262000522565b50604080518082019091526003815262090acb60eb1b6020820152600c90620000c1908262000522565b50348015620000cf57600080fd5b50600b8054620000df9062000494565b80601f01602080910402602001604051908101604052809291908181526020018280546200010d9062000494565b80156200015e5780601f1062000132576101008083540402835291602001916200015e565b820191906000526020600020905b8154815290600101906020018083116200014057829003601f168201915b5050505050600c8054620001729062000494565b80601f0160208091040260200160405190810160405280929190818152602001828054620001a09062000494565b8015620001f15780601f10620001c557610100808354040283529160200191620001f1565b820191906000526020600020905b815481529060010190602001808311620001d357829003601f168201915b5050505050816003908162000207919062000522565b50600462000216828262000522565b5050600a80546001600160a01b031916339081179091556006546200023c925062000242565b62000609565b6001600160a01b0382166200029d5760405162461bcd60e51b815260206004820152601f60248201527f45524332303a206d696e7420746f20746865207a65726f206164647265737300604482015260640160405180910390fd5b8060026000828254620002b19190620005ee565b90915550506001600160a01b03821660009081526020819052604081208054839290620002e0908490620005ee565b90915550506040518181526001600160a01b038316906000907fddf252ad1be2c89b69c2b068fc378daa952ba7f163c4a11628f55a4df523b3ef9060200160405180910390a35050565b505050565b634e487b7160e01b600052601160045260246000fd5b600181815b80851115620003865781600019048211156200036a576200036a6200032f565b808516156200037857918102915b93841c93908002906200034a565b509250929050565b6000826200039f575060016200043e565b81620003ae575060006200043e565b8160018114620003c75760028114620003d257620003f2565b60019150506200043e565b60ff841115620003e657620003e66200032f565b50506001821b6200043e565b5060208310610133831016604e8410600b841016171562000417575081810a6200043e565b62000423838362000345565b80600019048211156200043a576200043a6200032f565b0290505b92915050565b60006200045560ff8416836200038e565b9392505050565b60008160001904831182151516156200047957620004796200032f565b500290565b634e487b7160e01b600052604160045260246000fd5b600181811c90821680620004a957607f821691505b602082108103620004ca57634e487b7160e01b600052602260045260246000fd5b50919050565b601f8211156200032a57600081815260208120601f850160051c81016020861015620004f95750805b601f850160051c820191505b818110156200051a5782815560010162000505565b505050505050565b81516001600160401b038111156200053e576200053e6200047e565b62000556816200054f845462000494565b84620004d0565b602080601f8311600181146200058e5760008415620005755750858301515b600019600386901b1c1916600185901b1785556200051a565b600085815260208120601f198616915b82811015620005bf578886015182559484019460019091019084016200059e565b5085821015620005de5787850151600019600388901b60f8161c191681555b5050505050600190811b01905550565b600082198211156200060457620006046200032f565b500190565b610b7480620006196000396000f3fe608060405234801561001057600080fd5b50600436106101005760003560e01c806395d89b4111610097578063dd62ed3e11610066578063dd62ed3e1461021e578063ee99205c14610231578063f4e0d9ac14610242578063fae926121461025557600080fd5b806395d89b41146101cb578063a1794bcd146101d3578063a457c2d7146101f8578063a9059cbb1461020b57600080fd5b8063313ce567116100d3578063313ce5671461016b578063395093511461017a57806370a082311461018d5780637a5d57f7146101b657600080fd5b806306fdde0314610105578063095ea7b31461012357806318160ddd1461014657806323b872dd14610158575b600080fd5b61010d610268565b60405161011a919061098b565b60405180910390f35b6101366101313660046109fc565b6102fa565b604051901515815260200161011a565b6002545b60405190815260200161011a565b610136610166366004610a26565b610312565b6040516012815260200161011a565b6101366101883660046109fc565b610336565b61014a61019b366004610a62565b6001600160a01b031660009081526020819052604090205490565b6101c96101c43660046109fc565b610358565b005b61010d610406565b6008546001600160a01b03165b6040516001600160a01b03909116815260200161011a565b6101366102063660046109fc565b610415565b6101366102193660046109fc565b610495565b61014a61022c366004610a84565b6104a3565b6009546001600160a01b03166101e0565b6101c9610250366004610a62565b6104ce565b6101c9610263366004610a62565b610507565b60606003805461027790610ab7565b80601f01602080910402602001604051908101604052809291908181526020018280546102a390610ab7565b80156102f05780601f106102c5576101008083540402835291602001916102f0565b820191906000526020600020905b8154815290600101906020018083116102d357829003601f168201915b5050505050905090565b600033610308818585610540565b5060019392505050565b600033610320858285610664565b61032b8585856106de565b506001949350505050565b60003361030881858561034983836104a3565b6103539190610b07565b610540565b600061036582600a610b1f565b6008549091506001600160a01b03163b15158061038d57506009546001600160a01b03163b15155b61039657600080fd5b6008546001600160a01b03163314806103b957506009546001600160a01b031633145b6103c257600080fd5b600554600754106103d257600080fd5b60055481106103e057600080fd5b6103ea83836108ac565b80600760008282546103fc9190610b07565b9091555050505050565b60606004805461027790610ab7565b6000338161042382866104a3565b9050838110156104885760405162461bcd60e51b815260206004820152602560248201527f45524332303a2064656372656173656420616c6c6f77616e63652062656c6f77604482015264207a65726f60d81b60648201526084015b60405180910390fd5b61032b8286868403610540565b6000336103088185856106de565b6001600160a01b03918216600090815260016020908152604080832093909416825291909152205490565b600a546001600160a01b031633146104e557600080fd5b600980546001600160a01b0319166001600160a01b0392909216919091179055565b600a546001600160a01b0316331461051e57600080fd5b600880546001600160a01b0319166001600160a01b0392909216919091179055565b6001600160a01b0383166105a25760405162461bcd60e51b8152602060048201526024808201527f45524332303a20617070726f76652066726f6d20746865207a65726f206164646044820152637265737360e01b606482015260840161047f565b6001600160a01b0382166106035760405162461bcd60e51b815260206004820152602260248201527f45524332303a20617070726f766520746f20746865207a65726f206164647265604482015261737360f01b606482015260840161047f565b6001600160a01b0383811660008181526001602090815260408083209487168084529482529182902085905590518481527f8c5be1e5ebec7d5bd14f71427d1e84f3dd0314c0f7b2291e5b200ac8c7c3b925910160405180910390a3505050565b600061067084846104a3565b905060001981146106d857818110156106cb5760405162461bcd60e51b815260206004820152601d60248201527f45524332303a20696e73756666696369656e7420616c6c6f77616e6365000000604482015260640161047f565b6106d88484848403610540565b50505050565b6001600160a01b0383166107425760405162461bcd60e51b815260206004820152602560248201527f45524332303a207472616e736665722066726f6d20746865207a65726f206164604482015264647265737360d81b606482015260840161047f565b6001600160a01b0382166107a45760405162461bcd60e51b815260206004820152602360248201527f45524332303a207472616e7366657220746f20746865207a65726f206164647260448201526265737360e81b606482015260840161047f565b6001600160a01b0383166000908152602081905260409020548181101561081c5760405162461bcd60e51b815260206004820152602660248201527f45524332303a207472616e7366657220616d6f756e7420657863656564732062604482015265616c616e636560d01b606482015260840161047f565b6001600160a01b03808516600090815260208190526040808220858503905591851681529081208054849290610853908490610b07565b92505081905550826001600160a01b0316846001600160a01b03167fddf252ad1be2c89b69c2b068fc378daa952ba7f163c4a11628f55a4df523b3ef8460405161089f91815260200190565b60405180910390a36106d8565b6001600160a01b0382166109025760405162461bcd60e51b815260206004820152601f60248201527f45524332303a206d696e7420746f20746865207a65726f206164647265737300604482015260640161047f565b80600260008282546109149190610b07565b90915550506001600160a01b03821660009081526020819052604081208054839290610941908490610b07565b90915550506040518181526001600160a01b038316906000907fddf252ad1be2c89b69c2b068fc378daa952ba7f163c4a11628f55a4df523b3ef9060200160405180910390a35050565b600060208083528351808285015260005b818110156109b85785810183015185820160400152820161099c565b818111156109ca576000604083870101525b50601f01601f1916929092016040019392505050565b80356001600160a01b03811681146109f757600080fd5b919050565b60008060408385031215610a0f57600080fd5b610a18836109e0565b946020939093013593505050565b600080600060608486031215610a3b57600080fd5b610a44846109e0565b9250610a52602085016109e0565b9150604084013590509250925092565b600060208284031215610a7457600080fd5b610a7d826109e0565b9392505050565b60008060408385031215610a9757600080fd5b610aa0836109e0565b9150610aae602084016109e0565b90509250929050565b600181811c90821680610acb57607f821691505b602082108103610aeb57634e487b7160e01b600052602260045260246000fd5b50919050565b634e487b7160e01b600052601160045260246000fd5b60008219821115610b1a57610b1a610af1565b500190565b6000816000190483118215151615610b3957610b39610af1565b50029056fea26469706673582212200983324a3fef6a6670e5bd648ac3317803c5e437cfa78d49f3fba262e84a0d5d64736f6c634300080f0033",
    "sourcePath": "c:/Users/Nobert Jakpor/Desktop/NftMarketplace (Frontend)/SmartContracts/HavenToken.sol",
    "compiler": {
        "name": "solc",
        "version": "0.8.15+commit.e14f2714"
    },
    "functionHashes": {
        "allowance(address,address)": "dd62ed3e",
        "approve(address,uint256)": "095ea7b3",
        "balanceOf(address)": "70a08231",
        "decimals()": "313ce567",
        "decreaseAllowance(address,uint256)": "a457c2d7",
        "increaseAllowance(address,uint256)": "39509351",
        "marketContract()": "a1794bcd",
        "marketplaceRewards(address,uint256)": "7a5d57f7",
        "name()": "06fdde03",
        "setMarketAddress(address)": "fae92612",
        "setStakingAddress(address)": "f4e0d9ac",
        "stakingContract()": "ee99205c",
        "symbol()": "95d89b41",
        "totalSupply()": "18160ddd",
        "transfer(address,uint256)": "a9059cbb",
        "transferFrom(address,address,uint256)": "23b872dd"
    },
    "gasEstimates": {
        "creation": {
            "codeDepositCost": "586400",
            "executionCost": "infinite",
            "totalCost": "infinite"
        },
        "external": {
            "allowance(address,address)": "infinite",
            "approve(address,uint256)": "24647",
            "balanceOf(address)": "2607",
            "decimals()": "200",
            "decreaseAllowance(address,uint256)": "27017",
            "increaseAllowance(address,uint256)": "27023",
            "marketContract()": "2365",
            "marketplaceRewards(address,uint256)": "infinite",
            "name()": "infinite",
            "setMarketAddress(address)": "26799",
            "setStakingAddress(address)": "26777",
            "stakingContract()": "2375",
            "symbol()": "infinite",
            "totalSupply()": "2349",
            "transfer(address,uint256)": "51271",
            "transferFrom(address,address,uint256)": "infinite"
        }
    }
}