{
    "contractName": "HavenMarketPlace",
    "abi": [
        {
            "inputs": [
                {
                    "internalType": "string",
                    "name": "name",
                    "type": "string"
                },
                {
                    "internalType": "string",
                    "name": "symbol",
                    "type": "string"
                }
            ],
            "stateMutability": "payable",
            "type": "constructor"
        },
        {
            "anonymous": false,
            "inputs": [
                {
                    "indexed": true,
                    "internalType": "address",
                    "name": "owner",
                    "type": "address"
                },
                {
                    "indexed": true,
                    "internalType": "address",
                    "name": "approved",
                    "type": "address"
                },
                {
                    "indexed": true,
                    "internalType": "uint256",
                    "name": "tokenId",
                    "type": "uint256"
                }
            ],
            "name": "Approval",
            "type": "event"
        },
        {
            "anonymous": false,
            "inputs": [
                {
                    "indexed": true,
                    "internalType": "address",
                    "name": "owner",
                    "type": "address"
                },
                {
                    "indexed": true,
                    "internalType": "address",
                    "name": "operator",
                    "type": "address"
                },
                {
                    "indexed": false,
                    "internalType": "bool",
                    "name": "approved",
                    "type": "bool"
                }
            ],
            "name": "ApprovalForAll",
            "type": "event"
        },
        {
            "anonymous": false,
            "inputs": [
                {
                    "indexed": false,
                    "internalType": "address",
                    "name": "newToken",
                    "type": "address"
                },
                {
                    "indexed": false,
                    "internalType": "uint256",
                    "name": "id",
                    "type": "uint256"
                },
                {
                    "indexed": false,
                    "internalType": "uint256",
                    "name": "startPrice",
                    "type": "uint256"
                }
            ],
            "name": "Auctioned",
            "type": "event"
        },
        {
            "anonymous": false,
            "inputs": [
                {
                    "indexed": false,
                    "internalType": "address",
                    "name": "buyer",
                    "type": "address"
                },
                {
                    "indexed": false,
                    "internalType": "uint256",
                    "name": "price",
                    "type": "uint256"
                },
                {
                    "indexed": false,
                    "internalType": "uint256",
                    "name": "id",
                    "type": "uint256"
                }
            ],
            "name": "Bought",
            "type": "event"
        },
        {
            "anonymous": false,
            "inputs": [
                {
                    "indexed": false,
                    "internalType": "address",
                    "name": "user",
                    "type": "address"
                },
                {
                    "indexed": false,
                    "internalType": "address",
                    "name": "collectionadd",
                    "type": "address"
                }
            ],
            "name": "CollectionAdded",
            "type": "event"
        },
        {
            "anonymous": false,
            "inputs": [
                {
                    "indexed": false,
                    "internalType": "address",
                    "name": "bidder",
                    "type": "address"
                },
                {
                    "indexed": false,
                    "internalType": "uint256",
                    "name": "amount",
                    "type": "uint256"
                }
            ],
            "name": "HighestBidIncreased",
            "type": "event"
        },
        {
            "anonymous": false,
            "inputs": [
                {
                    "indexed": false,
                    "internalType": "address",
                    "name": "seller",
                    "type": "address"
                },
                {
                    "indexed": false,
                    "internalType": "address",
                    "name": "newToken",
                    "type": "address"
                },
                {
                    "indexed": false,
                    "internalType": "uint256",
                    "name": "id",
                    "type": "uint256"
                },
                {
                    "indexed": false,
                    "internalType": "uint256",
                    "name": "price",
                    "type": "uint256"
                }
            ],
            "name": "Listed",
            "type": "event"
        },
        {
            "anonymous": false,
            "inputs": [
                {
                    "indexed": false,
                    "internalType": "address",
                    "name": "add",
                    "type": "address"
                },
                {
                    "indexed": false,
                    "internalType": "string",
                    "name": "uri",
                    "type": "string"
                }
            ],
            "name": "Minted",
            "type": "event"
        },
        {
            "anonymous": false,
            "inputs": [
                {
                    "indexed": true,
                    "internalType": "address",
                    "name": "from",
                    "type": "address"
                },
                {
                    "indexed": true,
                    "internalType": "address",
                    "name": "to",
                    "type": "address"
                },
                {
                    "indexed": true,
                    "internalType": "uint256",
                    "name": "tokenId",
                    "type": "uint256"
                }
            ],
            "name": "Transfer",
            "type": "event"
        },
        {
            "anonymous": false,
            "inputs": [
                {
                    "indexed": false,
                    "internalType": "address",
                    "name": "user",
                    "type": "address"
                },
                {
                    "indexed": false,
                    "internalType": "string",
                    "name": "useruri",
                    "type": "string"
                }
            ],
            "name": "UserCreated",
            "type": "event"
        },
        {
            "anonymous": false,
            "inputs": [
                {
                    "indexed": false,
                    "internalType": "address",
                    "name": "owner",
                    "type": "address"
                },
                {
                    "indexed": false,
                    "internalType": "uint256",
                    "name": "id",
                    "type": "uint256"
                }
            ],
            "name": "auctionCanceled",
            "type": "event"
        },
        {
            "anonymous": false,
            "inputs": [
                {
                    "indexed": false,
                    "internalType": "address",
                    "name": "buyer",
                    "type": "address"
                },
                {
                    "indexed": false,
                    "internalType": "uint256",
                    "name": "id",
                    "type": "uint256"
                },
                {
                    "indexed": false,
                    "internalType": "uint256",
                    "name": "sellingPrice",
                    "type": "uint256"
                }
            ],
            "name": "auctionSold",
            "type": "event"
        },
        {
            "anonymous": false,
            "inputs": [
                {
                    "indexed": false,
                    "internalType": "address",
                    "name": "owner",
                    "type": "address"
                },
                {
                    "indexed": false,
                    "internalType": "uint256",
                    "name": "id",
                    "type": "uint256"
                }
            ],
            "name": "deListed",
            "type": "event"
        },
        {
            "anonymous": false,
            "inputs": [
                {
                    "indexed": false,
                    "internalType": "address",
                    "name": "owner",
                    "type": "address"
                },
                {
                    "indexed": false,
                    "internalType": "uint256",
                    "name": "id",
                    "type": "uint256"
                },
                {
                    "indexed": false,
                    "internalType": "uint256",
                    "name": "startPrice",
                    "type": "uint256"
                }
            ],
            "name": "itemAuctioned",
            "type": "event"
        },
        {
            "anonymous": false,
            "inputs": [
                {
                    "indexed": false,
                    "internalType": "address",
                    "name": "owner",
                    "type": "address"
                },
                {
                    "indexed": false,
                    "internalType": "uint256",
                    "name": "amount",
                    "type": "uint256"
                }
            ],
            "name": "withdrawnFunds",
            "type": "event"
        },
        {
            "inputs": [],
            "name": "MAX_PER_MINT",
            "outputs": [
                {
                    "internalType": "uint256",
                    "name": "",
                    "type": "uint256"
                }
            ],
            "stateMutability": "view",
            "type": "function"
        },
        {
            "inputs": [
                {
                    "internalType": "address",
                    "name": "collectionaddress",
                    "type": "address"
                }
            ],
            "name": "add_collection",
            "outputs": [
                {
                    "internalType": "bool",
                    "name": "",
                    "type": "bool"
                }
            ],
            "stateMutability": "nonpayable",
            "type": "function"
        },
        {
            "inputs": [
                {
                    "internalType": "address",
                    "name": "to",
                    "type": "address"
                },
                {
                    "internalType": "uint256",
                    "name": "tokenId",
                    "type": "uint256"
                }
            ],
            "name": "approve",
            "outputs": [],
            "stateMutability": "nonpayable",
            "type": "function"
        },
        {
            "inputs": [
                {
                    "internalType": "address",
                    "name": "owner",
                    "type": "address"
                }
            ],
            "name": "balanceOf",
            "outputs": [
                {
                    "internalType": "uint256",
                    "name": "",
                    "type": "uint256"
                }
            ],
            "stateMutability": "view",
            "type": "function"
        },
        {
            "inputs": [
                {
                    "internalType": "uint256",
                    "name": "aId",
                    "type": "uint256"
                },
                {
                    "internalType": "uint256",
                    "name": "amount",
                    "type": "uint256"
                }
            ],
            "name": "bid",
            "outputs": [],
            "stateMutability": "payable",
            "type": "function"
        },
        {
            "inputs": [
                {
                    "internalType": "uint256",
                    "name": "listingId_",
                    "type": "uint256"
                },
                {
                    "internalType": "address",
                    "name": "currency",
                    "type": "address"
                },
                {
                    "internalType": "uint256",
                    "name": "amount",
                    "type": "uint256"
                }
            ],
            "name": "buyNft",
            "outputs": [
                {
                    "internalType": "bool",
                    "name": "",
                    "type": "bool"
                }
            ],
            "stateMutability": "payable",
            "type": "function"
        },
        {
            "inputs": [
                {
                    "internalType": "uint256",
                    "name": "aId",
                    "type": "uint256"
                }
            ],
            "name": "cancelAuction",
            "outputs": [
                {
                    "internalType": "bool",
                    "name": "",
                    "type": "bool"
                }
            ],
            "stateMutability": "nonpayable",
            "type": "function"
        },
        {
            "inputs": [
                {
                    "internalType": "uint256",
                    "name": "lId",
                    "type": "uint256"
                }
            ],
            "name": "cancelListing",
            "outputs": [
                {
                    "internalType": "bool",
                    "name": "",
                    "type": "bool"
                }
            ],
            "stateMutability": "payable",
            "type": "function"
        },
        {
            "inputs": [
                {
                    "internalType": "uint256",
                    "name": "aId",
                    "type": "uint256"
                }
            ],
            "name": "claimNft",
            "outputs": [
                {
                    "internalType": "bool",
                    "name": "",
                    "type": "bool"
                }
            ],
            "stateMutability": "payable",
            "type": "function"
        },
        {
            "inputs": [
                {
                    "internalType": "string",
                    "name": "useruri_",
                    "type": "string"
                }
            ],
            "name": "createUser",
            "outputs": [
                {
                    "internalType": "bool",
                    "name": "",
                    "type": "bool"
                }
            ],
            "stateMutability": "nonpayable",
            "type": "function"
        },
        {
            "inputs": [
                {
                    "internalType": "string",
                    "name": "useruri_",
                    "type": "string"
                }
            ],
            "name": "editUser",
            "outputs": [
                {
                    "internalType": "string",
                    "name": "",
                    "type": "string"
                }
            ],
            "stateMutability": "nonpayable",
            "type": "function"
        },
        {
            "inputs": [],
            "name": "getAllAuctions",
            "outputs": [
                {
                    "internalType": "uint256[]",
                    "name": "",
                    "type": "uint256[]"
                }
            ],
            "stateMutability": "view",
            "type": "function"
        },
        {
            "inputs": [],
            "name": "getAllListings",
            "outputs": [
                {
                    "internalType": "uint256[]",
                    "name": "",
                    "type": "uint256[]"
                }
            ],
            "stateMutability": "view",
            "type": "function"
        },
        {
            "inputs": [
                {
                    "internalType": "uint256",
                    "name": "tokenId",
                    "type": "uint256"
                }
            ],
            "name": "getApproved",
            "outputs": [
                {
                    "internalType": "address",
                    "name": "",
                    "type": "address"
                }
            ],
            "stateMutability": "view",
            "type": "function"
        },
        {
            "inputs": [
                {
                    "internalType": "uint256",
                    "name": "aId",
                    "type": "uint256"
                }
            ],
            "name": "getAuctionedTokenUri",
            "outputs": [
                {
                    "internalType": "string",
                    "name": "",
                    "type": "string"
                }
            ],
            "stateMutability": "view",
            "type": "function"
        },
        {
            "inputs": [
                {
                    "internalType": "uint256",
                    "name": "lId",
                    "type": "uint256"
                }
            ],
            "name": "getListingById",
            "outputs": [
                {
                    "components": [
                        {
                            "internalType": "enum HavenMarketPlace.status",
                            "name": "status",
                            "type": "uint8"
                        },
                        {
                            "internalType": "address",
                            "name": "seller",
                            "type": "address"
                        },
                        {
                            "internalType": "address",
                            "name": "nftContract",
                            "type": "address"
                        },
                        {
                            "internalType": "uint256",
                            "name": "tokenId",
                            "type": "uint256"
                        }
                    ],
                    "internalType": "struct HavenMarketPlace.Listing",
                    "name": "",
                    "type": "tuple"
                }
            ],
            "stateMutability": "view",
            "type": "function"
        },
        {
            "inputs": [
                {
                    "internalType": "uint256",
                    "name": "lId",
                    "type": "uint256"
                }
            ],
            "name": "getTokenUri",
            "outputs": [
                {
                    "internalType": "string",
                    "name": "",
                    "type": "string"
                }
            ],
            "stateMutability": "view",
            "type": "function"
        },
        {
            "inputs": [
                {
                    "internalType": "address",
                    "name": "owner",
                    "type": "address"
                },
                {
                    "internalType": "address",
                    "name": "operator",
                    "type": "address"
                }
            ],
            "name": "isApprovedForAll",
            "outputs": [
                {
                    "internalType": "bool",
                    "name": "",
                    "type": "bool"
                }
            ],
            "stateMutability": "view",
            "type": "function"
        },
        {
            "inputs": [
                {
                    "internalType": "address",
                    "name": "userAccount",
                    "type": "address"
                }
            ],
            "name": "isVerified",
            "outputs": [
                {
                    "internalType": "bool",
                    "name": "",
                    "type": "bool"
                }
            ],
            "stateMutability": "view",
            "type": "function"
        },
        {
            "inputs": [
                {
                    "internalType": "address",
                    "name": "collectionContract",
                    "type": "address"
                },
                {
                    "internalType": "uint256",
                    "name": "tokenid_",
                    "type": "uint256"
                },
                {
                    "internalType": "uint256",
                    "name": "amount",
                    "type": "uint256"
                }
            ],
            "name": "listNft",
            "outputs": [
                {
                    "internalType": "uint256",
                    "name": "",
                    "type": "uint256"
                }
            ],
            "stateMutability": "payable",
            "type": "function"
        },
        {
            "inputs": [
                {
                    "internalType": "string",
                    "name": "_tokenURI",
                    "type": "string"
                }
            ],
            "name": "mintNft",
            "outputs": [
                {
                    "internalType": "uint256",
                    "name": "",
                    "type": "uint256"
                },
                {
                    "internalType": "string",
                    "name": "",
                    "type": "string"
                },
                {
                    "internalType": "bool",
                    "name": "",
                    "type": "bool"
                }
            ],
            "stateMutability": "nonpayable",
            "type": "function"
        },
        {
            "inputs": [],
            "name": "name",
            "outputs": [
                {
                    "internalType": "string",
                    "name": "",
                    "type": "string"
                }
            ],
            "stateMutability": "view",
            "type": "function"
        },
        {
            "inputs": [
                {
                    "internalType": "uint256",
                    "name": "tokenId",
                    "type": "uint256"
                }
            ],
            "name": "ownerOf",
            "outputs": [
                {
                    "internalType": "address",
                    "name": "",
                    "type": "address"
                }
            ],
            "stateMutability": "view",
            "type": "function"
        },
        {
            "inputs": [
                {
                    "internalType": "address",
                    "name": "collectionContract",
                    "type": "address"
                },
                {
                    "internalType": "uint256",
                    "name": "tokenid_",
                    "type": "uint256"
                },
                {
                    "internalType": "uint256",
                    "name": "aucEndTime",
                    "type": "uint256"
                },
                {
                    "internalType": "uint256",
                    "name": "amount",
                    "type": "uint256"
                }
            ],
            "name": "placeAuction",
            "outputs": [
                {
                    "internalType": "uint256",
                    "name": "",
                    "type": "uint256"
                }
            ],
            "stateMutability": "nonpayable",
            "type": "function"
        },
        {
            "inputs": [
                {
                    "internalType": "address",
                    "name": "from",
                    "type": "address"
                },
                {
                    "internalType": "address",
                    "name": "to",
                    "type": "address"
                },
                {
                    "internalType": "uint256",
                    "name": "tokenId",
                    "type": "uint256"
                }
            ],
            "name": "safeTransferFrom",
            "outputs": [],
            "stateMutability": "nonpayable",
            "type": "function"
        },
        {
            "inputs": [
                {
                    "internalType": "address",
                    "name": "from",
                    "type": "address"
                },
                {
                    "internalType": "address",
                    "name": "to",
                    "type": "address"
                },
                {
                    "internalType": "uint256",
                    "name": "tokenId",
                    "type": "uint256"
                },
                {
                    "internalType": "bytes",
                    "name": "data",
                    "type": "bytes"
                }
            ],
            "name": "safeTransferFrom",
            "outputs": [],
            "stateMutability": "nonpayable",
            "type": "function"
        },
        {
            "inputs": [
                {
                    "internalType": "address",
                    "name": "operator",
                    "type": "address"
                },
                {
                    "internalType": "bool",
                    "name": "approved",
                    "type": "bool"
                }
            ],
            "name": "setApprovalForAll",
            "outputs": [],
            "stateMutability": "nonpayable",
            "type": "function"
        },
        {
            "inputs": [
                {
                    "internalType": "bytes4",
                    "name": "interfaceId",
                    "type": "bytes4"
                }
            ],
            "name": "supportsInterface",
            "outputs": [
                {
                    "internalType": "bool",
                    "name": "",
                    "type": "bool"
                }
            ],
            "stateMutability": "view",
            "type": "function"
        },
        {
            "inputs": [],
            "name": "symbol",
            "outputs": [
                {
                    "internalType": "string",
                    "name": "",
                    "type": "string"
                }
            ],
            "stateMutability": "view",
            "type": "function"
        },
        {
            "inputs": [
                {
                    "internalType": "uint256",
                    "name": "tokenId",
                    "type": "uint256"
                }
            ],
            "name": "tokenURI",
            "outputs": [
                {
                    "internalType": "string",
                    "name": "",
                    "type": "string"
                }
            ],
            "stateMutability": "view",
            "type": "function"
        },
        {
            "inputs": [
                {
                    "internalType": "uint256",
                    "name": "",
                    "type": "uint256"
                }
            ],
            "name": "token_owners",
            "outputs": [
                {
                    "internalType": "address",
                    "name": "",
                    "type": "address"
                }
            ],
            "stateMutability": "view",
            "type": "function"
        },
        {
            "inputs": [
                {
                    "internalType": "address",
                    "name": "from",
                    "type": "address"
                },
                {
                    "internalType": "address",
                    "name": "to",
                    "type": "address"
                },
                {
                    "internalType": "uint256",
                    "name": "tokenId",
                    "type": "uint256"
                }
            ],
            "name": "transferFrom",
            "outputs": [],
            "stateMutability": "nonpayable",
            "type": "function"
        },
        {
            "inputs": [
                {
                    "internalType": "address",
                    "name": "userAccount",
                    "type": "address"
                }
            ],
            "name": "verifiyUser",
            "outputs": [
                {
                    "internalType": "string",
                    "name": "",
                    "type": "string"
                }
            ],
            "stateMutability": "nonpayable",
            "type": "function"
        },
        {
            "inputs": [
                {
                    "internalType": "address",
                    "name": "currency",
                    "type": "address"
                },
                {
                    "internalType": "uint256",
                    "name": "amount",
                    "type": "uint256"
                }
            ],
            "name": "withdrawEarnings",
            "outputs": [
                {
                    "internalType": "bool",
                    "name": "",
                    "type": "bool"
                }
            ],
            "stateMutability": "nonpayable",
            "type": "function"
        },
        {
            "inputs": [
                {
                    "internalType": "uint256",
                    "name": "aId",
                    "type": "uint256"
                }
            ],
            "name": "withdrawHighestBid",
            "outputs": [
                {
                    "internalType": "bool",
                    "name": "",
                    "type": "bool"
                }
            ],
            "stateMutability": "payable",
            "type": "function"
        },
        {
            "inputs": [
                {
                    "internalType": "uint256",
                    "name": "aId",
                    "type": "uint256"
                }
            ],
            "name": "withdrawUnderBid",
            "outputs": [],
            "stateMutability": "payable",
            "type": "function"
        }
    ],
    "bytecode": "6080604052426009556005600b5560405162003ad338038062003ad38339810160408190526200002f916200013d565b818160006200003f838262000236565b5060016200004e828262000236565b505060016007555050601280546001600160a01b031916331790555062000302565b634e487b7160e01b600052604160045260246000fd5b600082601f8301126200009857600080fd5b81516001600160401b0380821115620000b557620000b562000070565b604051601f8301601f19908116603f01168101908282118183101715620000e057620000e062000070565b81604052838152602092508683858801011115620000fd57600080fd5b600091505b8382101562000121578582018301518183018401529082019062000102565b83821115620001335760008385830101525b9695505050505050565b600080604083850312156200015157600080fd5b82516001600160401b03808211156200016957600080fd5b620001778683870162000086565b935060208501519150808211156200018e57600080fd5b506200019d8582860162000086565b9150509250929050565b600181811c90821680620001bc57607f821691505b602082108103620001dd57634e487b7160e01b600052602260045260246000fd5b50919050565b601f8211156200023157600081815260208120601f850160051c810160208610156200020c5750805b601f850160051c820191505b818110156200022d5782815560010162000218565b5050505b505050565b81516001600160401b0381111562000252576200025262000070565b6200026a81620002638454620001a7565b84620001e3565b602080601f831160018114620002a25760008415620002895750858301515b600019600386901b1c1916600185901b1785556200022d565b600085815260208120601f198616915b82811015620002d357888601518255948401946001909101908401620002b2565b5085821015620002f25787850151600019600388901b60f8161c191681555b5050505050600190811b01905550565b6137c180620003126000396000f3fe60806040526004361061020f5760003560e01c806395d89b4111610118578063c9211c82116100a0578063da86f4a91161006f578063da86f4a9146105d4578063e0e8a26014610603578063e985e9c514610623578063f52c61741461066c578063fd57251a1461067f57600080fd5b8063c9211c821461056c578063c922b17c1461058c578063cbd2bdfd1461059f578063d41cffe8146105b457600080fd5b8063b2e5e309116100e7578063b2e5e309146104d9578063b88d4fde146104f9578063b9209e3314610519578063bc53cade14610539578063c87b56dd1461054c57600080fd5b806395d89b411461046257806396b5a75514610477578063a22cb46514610497578063ae73ccec146104b757600080fd5b80634f85310f1161019b57806365aeaea71161016a57806365aeaea7146103cf57806370a08231146103ef57806375e234851461040f57806381754494146104225780638ad913451461044257600080fd5b80634f85310f1461034f578063507ffba51461037c578063598647f81461039c5780636352211e146103af57600080fd5b806309d42b30116101e257806309d42b30146102c557806323b872dd146102e95780632ec09d3914610309578063305a67a81461031c57806342842e0e1461032f57600080fd5b806301ffc9a71461021457806306fdde0314610249578063081812fc1461026b578063095ea7b3146102a3575b600080fd5b34801561022057600080fd5b5061023461022f366004612f19565b61069f565b60405190151581526020015b60405180910390f35b34801561025557600080fd5b5061025e6106f1565b6040516102409190612f8e565b34801561027757600080fd5b5061028b610286366004612fa1565b610783565b6040516001600160a01b039091168152602001610240565b3480156102af57600080fd5b506102c36102be366004612fd6565b6107aa565b005b3480156102d157600080fd5b506102db600b5481565b604051908152602001610240565b3480156102f557600080fd5b506102c3610304366004613000565b6108c4565b610234610317366004612fa1565b6108f5565b61023461032a366004612fa1565b610aca565b34801561033b57600080fd5b506102c361034a366004613000565b610c76565b34801561035b57600080fd5b5061036f61036a366004612fa1565b610c91565b6040516102409190613052565b34801561038857600080fd5b50610234610397366004613139565b610d4a565b6102c36103aa366004613182565b610f35565b3480156103bb57600080fd5b5061028b6103ca366004612fa1565b6111ab565b3480156103db57600080fd5b5061025e6103ea3660046131a4565b61120b565b3480156103fb57600080fd5b506102db61040a3660046131a4565b6112d3565b61023461041d3660046131bf565b611359565b34801561042e57600080fd5b5061025e61043d366004613139565b611516565b34801561044e57600080fd5b5061025e61045d366004612fa1565b611558565b34801561046e57600080fd5b5061025e61157f565b34801561048357600080fd5b50610234610492366004612fa1565b61158e565b3480156104a357600080fd5b506102c36104b23660046131f2565b6116e2565b3480156104c357600080fd5b506104cc6116f1565b6040516102409190613229565b3480156104e557600080fd5b506102346104f43660046131a4565b611748565b34801561050557600080fd5b506102c361051436600461326d565b611855565b34801561052557600080fd5b506102346105343660046131a4565b61188d565b6102c3610547366004612fa1565b6118d3565b34801561055857600080fd5b5061025e610567366004612fa1565b6119df565b34801561057857600080fd5b50610234610587366004612fd6565b611aef565b6102db61059a3660046132e9565b611bd9565b3480156105ab57600080fd5b506104cc611dbd565b3480156105c057600080fd5b506102db6105cf36600461331c565b611e13565b3480156105e057600080fd5b506105f46105ef366004613139565b6120b9565b60405161024093929190613355565b34801561060f57600080fd5b5061028b61061e366004612fa1565b6121ae565b34801561062f57600080fd5b5061023461063e366004613380565b6001600160a01b03918216600090815260056020908152604080832093909416825291909152205460ff1690565b61023461067a366004612fa1565b6121d8565b34801561068b57600080fd5b5061025e61069a366004612fa1565b6123d1565b60006001600160e01b031982166380ac58cd60e01b14806106d057506001600160e01b03198216635b5e139f60e01b145b806106eb57506301ffc9a760e01b6001600160e01b03198316145b92915050565b606060008054610700906133b3565b80601f016020809104026020016040519081016040528092919081815260200182805461072c906133b3565b80156107795780601f1061074e57610100808354040283529160200191610779565b820191906000526020600020905b81548152906001019060200180831161075c57829003601f168201915b5050505050905090565b600061078e82612406565b506000908152600460205260409020546001600160a01b031690565b60006107b5826111ab565b9050806001600160a01b0316836001600160a01b0316036108275760405162461bcd60e51b815260206004820152602160248201527f4552433732313a20617070726f76616c20746f2063757272656e74206f776e656044820152603960f91b60648201526084015b60405180910390fd5b336001600160a01b03821614806108435750610843813361063e565b6108b55760405162461bcd60e51b815260206004820152603e60248201527f4552433732313a20617070726f76652063616c6c6572206973206e6f7420746f60448201527f6b656e206f776e6572206e6f7220617070726f76656420666f7220616c6c0000606482015260840161081e565b6108bf8383612468565b505050565b6108ce33826124d6565b6108ea5760405162461bcd60e51b815260040161081e906133e7565b6108bf838383612554565b60006002600754036109195760405162461bcd60e51b815260040161081e90613435565b600260075560008281526019602052604081208391815460ff1660038111156109445761094461303c565b1415801561096857506002815460ff1660038111156109655761096561303c565b14155b61097157600080fd5b8060030154421161098157600080fd5b805460ff1916600317815560008481526019602052604090206006810154336001600160a01b03909116146109b557600080fd5b806003015442116109c557600080fd5b805461010090046001600160a01b031633036109e057600080fd5b6002815460ff1660038111156109f8576109f861303c565b03610a0257600080fd5b600181015460068201546004808401546040516323b872dd60e01b81526001600160a01b03948516946323b872dd94610a4294309492909116920161346c565b600060405180830381600087803b158015610a5c57600080fd5b505af1158015610a70573d6000803e3d6000fd5b505050506007810154604080513381526020810188905280820192909252517f5e5c09d98280e274b712c7e0c10c72c56d685db96c13f761d0259ea0fb1e4d6f9181900360600190a1600193505050506001600755919050565b6000600260075403610aee5760405162461bcd60e51b815260040161081e90613435565b6002600755600082815260186020908152604080832033808552601d9093529220805490916101009091046001600160a01b031614610b2c57600080fd5b815461010090046001600160a01b03163314610b4757600080fd5b6000825460ff166003811115610b5f57610b5f61303c565b14610b6957600080fd5b610b72846126f0565b1515600114610b8057600080fd5b600182015460028301546040516323b872dd60e01b81526001600160a01b03909216916323b872dd91610bb9913091339160040161346c565b600060405180830381600087803b158015610bd357600080fd5b505af1158015610be7573d6000803e3d6000fd5b505050600085815260186020908152604080832080546001600160a81b03191681556001810180546001600160a01b0319169055600290810193909355855460ff1916909217855581513381529081018790527fd5a72ef9a771fa194c21aa74cf85acd0c36822446487685b0dd5ac3215e545c592500160405180910390a16001925050506001600755919050565b6108bf83838360405180602001604052806000815250611855565b604080516080810182526000808252602082018190529181018290526060810191909152610cbe826126f0565b1515600114610ccc57600080fd5b6000828152601860205260409081902081516080810190925280549091908290829060ff166003811115610d0257610d0261303c565b6003811115610d1357610d1361303c565b815281546001600160a01b036101009091048116602083015260018301541660408201526002909101546060909101529392505050565b336000818152601d6020526040812080549192909161010090046001600160a01b03169003610d7857600080fd5b6040805160c08101825260018152336020808301829052428385015260006060840181905260808401889052918252601a81528382208054855181840281018401909652808652929460a08501939092830182828015610e0157602002820191906000526020600020905b81546001600160a01b03168152600190910190602001808311610de3575b505050919092525050336000908152601d60205260409020815181549293508392829060ff191660018381811115610e3b57610e3b61303c565b0217905550602082015181546001600160a01b0390911661010002610100600160a81b0319909116178155604082015160018201556060820151600282015560808201516003820190610e8e90826134de565b5060a08201518051610eaa916004840191602090910190612e49565b5050601380546001810182556000919091527f66de8ffda797e3de9c05e8fc57b3bf0ec28a930d40b0d285d93c06501cf6a0900180546001600160a01b031916339081179091556040517f9954bce02f72fbdef0fa668ac6f42e434b5829615dac2fb22448054d2359d4f69250610f239190879061359e565b60405180910390a15060019392505050565b600260075403610f575760405162461bcd60e51b815260040161081e90613435565b600260075560008281526019602052604081208391815460ff166003811115610f8257610f8261303c565b14158015610fa657506002815460ff166003811115610fa357610fa361303c565b14155b610faf57600080fd5b80600301544211610fbf57600080fd5b8054600360ff19909116178155336000818152601d60205260409020805490916101009091046001600160a01b031614610ff857600080fd5b6110018561273d565b151560011461100f57600080fd5b60008581526019602052604090206002810154600954108015906110395750806003015460095411155b61104257600080fd5b8060050154851161105257600080fd5b8060070154851161106257600080fd5b6000815460ff16600381111561107a5761107a61303c565b1461108457600080fd5b600781015460068201546001600160a01b03166000908152601b6020526040812080549091906110b59084906135d8565b90915550506006810180546001600160a01b03191633908117909155600782018690556011546040516323b872dd60e01b81526001600160a01b0391909116916323b872dd9161110c919030908a9060040161346c565b6020604051808303816000875af115801561112b573d6000803e3d6000fd5b505050506040513d601f19601f8201168201806040525081019061114f91906135f0565b5060068101546007820154604080516001600160a01b03909316835260208301919091527ff4757a49b326036464bec6fe419a4ae38c8a02ce3e68bf0809674f6aab8ad300910160405180910390a15050600160075550505050565b6000818152600260205260408120546001600160a01b0316806106eb5760405162461bcd60e51b8152602060048201526018602482015277115490cdcc8c4e881a5b9d985b1a59081d1bdad95b88125160421b604482015260640161081e565b6001600160a01b038181166000908152601d6020526040902060125460609216331461123657600080fd5b6001815460ff16600181111561124e5761124e61303c565b0361127f57805460ff1916905550506040805180820190915260088152671d995c9a599a595960c21b602082015290565b6000815460ff1660018111156112975761129761303c565b036112cd57805460ff19166001179055505060408051808201909152600a8152691d5b9d995c9a599a595960b21b602082015290565b50919050565b60006001600160a01b03821661133d5760405162461bcd60e51b815260206004820152602960248201527f4552433732313a2061646472657373207a65726f206973206e6f7420612076616044820152683634b21037bbb732b960b91b606482015260840161081e565b506001600160a01b031660009081526003602052604090205490565b600060026007540361137d5760405162461bcd60e51b815260040161081e90613435565b6002600755600084815260186020908152604080832033808552601d9093529220805490916101009091046001600160a01b0316146113bb57600080fd5b815461010090046001600160a01b031633036113d657600080fd5b6000825460ff1660038111156113ee576113ee61303c565b146113f857600080fd5b601154336001600160a01b039091160361141157600080fd5b81546011546001600160a01b03610100909204821691160361143257600080fd5b6000606461144186600261360d565b61144b9190613642565b905060006114598287613656565b6001850154600286015491925061147e916001600160a01b039091169089908961278a565b8083600201600082825461149291906135d8565b9250508190555081600c60008282546114ab91906135d8565b9091555050835460ff1916600117845560028401546040805133815260208101899052908101919091527fa9a40dec7a304e5915d11358b968c1e8d365992abf20f82285d1df1b30c8e24c9060600160405180910390a1600194505050505060016007559392505050565b336000818152601d6020526040902080546060926101009091046001600160a01b03161461154357600080fd5b6003810161155184826134de565b5050919050565b6000818152601860205260409020600281015460609190611578906119df565b9392505050565b606060018054610700906133b3565b60006002600754036115b25760405162461bcd60e51b815260040161081e90613435565b60026007556115c08261273d565b15156001146115ce57600080fd5b6000828152601960205260409020805461010090046001600160a01b031633146115f757600080fd5b6000815460ff16600381111561160f5761160f61303c565b1461161957600080fd5b600181015481546004808401546040516323b872dd60e01b81526001600160a01b03948516946323b872dd9461165d9430946101009092049092169290910161346c565b600060405180830381600087803b15801561167757600080fd5b505af115801561168b573d6000803e3d6000fd5b5050825460ff19166002178355505060408051338152602081018590527ffb201f8e6ca6ef1f147086d898840d222fc8bd103783b0e7182d9fa3fc4e0cc8910160405180910390a160019150506001600755919050565b6116ed3383836128b1565b5050565b6060600e80548060200260200160405190810160405280929190818152602001828054801561077957602002820191906000526020600020905b81548152602001906001019080831161172b575050505050905090565b336000818152601d6020526040812080549192909161010090046001600160a01b03161461177557600080fd5b336000818152601a602090815260408220805460018101825581845291832090910180546001600160a01b0319166001600160a01b03881617905591905280546117c3916004840191612eae565b50601580546001810182556000919091527f55f448fdea98c4d29eb340757ef0a66cd03dbb9538908a6a81d96026b71ec4750180546001600160a01b0319166001600160a01b0385169081179091556040805133815260208101929092527fde026c5319b7c35f108a6ccfc922edc8008522079b610aee3c676bb7b7b7fb35910160405180910390a150600192915050565b61185f33836124d6565b61187b5760405162461bcd60e51b815260040161081e906133e7565b6118878484848461297f565b50505050565b6001600160a01b0381166000908152601d6020526040812081815460ff1660018111156118bc576118bc61303c565b036118ca5750600192915050565b50600092915050565b6002600754036118f55760405162461bcd60e51b815260040161081e90613435565b60026007556000818152601960205260409020805461010090046001600160a01b0316330361192357600080fd5b60068101546001600160a01b0316330361193c57600080fd5b336000818152601b6020526040908190205460115491516323b872dd60e01b815290926001600160a01b03909216916323b872dd91611981913091869060040161346c565b6020604051808303816000875af11580156119a0573d6000803e3d6000fd5b505050506040513d601f19601f820116820180604052508101906119c491906135f0565b5050336000908152601b602052604081205550506001600755565b60606119ea82612406565b60008281526006602052604081208054611a03906133b3565b80601f0160208091040260200160405190810160405280929190818152602001828054611a2f906133b3565b8015611a7c5780601f10611a5157610100808354040283529160200191611a7c565b820191906000526020600020905b815481529060010190602001808311611a5f57829003601f168201915b505050505090506000611a9a60408051602081019091526000815290565b90508051600003611aac575092915050565b815115611ade578082604051602001611ac692919061366d565b60405160208183030381529060405292505050919050565b611ae7846129b2565b949350505050565b6000600260075403611b135760405162461bcd60e51b815260040161081e90613435565b6002600755336000818152601d60205260409020805490916101009091046001600160a01b031614611b4457600080fd5b8060020154831015611b5557600080fd5b6040516323b872dd60e01b81526001600160a01b038516906323b872dd90611b859030903390889060040161346c565b6020604051808303816000875af1158015611ba4573d6000803e3d6000fd5b505050506040513d601f19601f82011682018060405250810190611bc891906135f0565b506001915050600160075592915050565b6000600260075403611bfd5760405162461bcd60e51b815260040161081e90613435565b6002600755336000818152601d60205260409020805490916101009091046001600160a01b031614611c2e57600080fd5b60008311611c3b57600080fd5b6040516323b872dd60e01b81526001600160a01b038616906323b872dd90611c6b9033903090899060040161346c565b600060405180830381600087803b158015611c8557600080fd5b505af1158015611c99573d6000803e3d6000fd5b505050506000604051806080016040528060006003811115611cbd57611cbd61303c565b81523360208201526001600160a01b03881660408201526060018690529050611cea600880546001019055565b6000611cf560085490565b6000818152601860205260409020835181549293508492829060ff19166001836003811115611d2657611d2661303c565b021790555060208201518154610100600160a81b0319166101006001600160a01b03928316021782556040830151600180840180546001600160a01b0319169290931691909117909155606090920151600290910155600e805480830182556000919091527fbb7b4a454dc3493923482f07822329ed19e8244eff582cc204f8554c3620c3fd018290556007559695505050505050565b6060600f805480602002602001604051908101604052809291908181526020018280548015610779576020028201919060005260206000209081548152602001906001019080831161172b575050505050905090565b6000600260075403611e375760405162461bcd60e51b815260040161081e90613435565b6002600755336000818152601d60205260409020805490916101009091046001600160a01b031614611e6857600080fd5b60008311611e7557600080fd5b6040516323b872dd60e01b81526001600160a01b038716906323b872dd90611ea590339030908a9060040161346c565b600060405180830381600087803b158015611ebf57600080fd5b505af1158015611ed3573d6000803e3d6000fd5b505050600a859055506000611ee885426135d8565b9050600060405180610120016040528060006003811115611f0b57611f0b61303c565b815233602082018190526001600160a01b038b1660408301524260608301526080820185905260a082018a905260c0820188905260e0820152610100018690529050611f5b600880546001019055565b6000611f6660085490565b6000818152601960205260409020835181549293508492829060ff19166001836003811115611f9757611f9761303c565b021790555060208201518154610100600160a81b0319166101006001600160a01b0392831681029190911783556040840151600180850180546001600160a01b0319908116938616939093179055606086015160028601556080860151600386015560a0860151600486015560c0860151600586015560e0860151600686018054909316941693909317905590920151600790910155600f8054918201815560009081527f8d1108e10bcb7c27dddfc02ed9d693a074039d026cf4ea4240b40f7d581ac802909101829055828190525060408051338152602081018390529081018790527f430786e602a748f3e9cc9c6218c577df03b130a2ba0146f17c87c8d2686ce70c9060600160405180910390a1600160075598975050505050505050565b6000606060006002600754036120e15760405162461bcd60e51b815260040161081e90613435565b60026007556120f4600880546001019055565b60006120ff60085490565b905061210b3382612a25565b6121158186612a3f565b6000818152601c6020526040902061212d86826134de565b50600d80546001810182556000919091527fd7b6990105719101dabeb77144f2a3385c8033acd3af97e9423a695e81ad1eb5018190556040517f0c1b180fbb60448c5491c5ddc7c3a923854214b9ff70f90a7821333338971f9290612195903390889061359e565b60405180910390a1600160078190559095909350915050565b601481815481106121be57600080fd5b6000918252602090912001546001600160a01b0316905081565b60006002600754036121fc5760405162461bcd60e51b815260040161081e90613435565b60026007819055600083815260196020526040902090815460ff1660038111156122285761222861303c565b0361223257600080fd5b8060030154421161224257600080fd5b805461010090046001600160a01b0316331461225d57600080fd5b60078101546000606461227183600261360d565b61227b9190613642565b905060006122898284613656565b60115485546040516323b872dd60e01b81529293506001600160a01b03918216926323b872dd926122ca92309261010090910490911690869060040161346c565b6020604051808303816000875af11580156122e9573d6000803e3d6000fd5b505050506040513d601f19601f8201168201806040525081019061230d91906135f0565b506011546040516323b872dd60e01b81526001600160a01b03909116906323b872dd906123429030908490879060040161346c565b6020604051808303816000875af1158015612361573d6000803e3d6000fd5b505050506040513d601f19601f8201168201806040525081019061238591906135f0565b5060408051338152602081018390527f84eeb14ffee257d43f78e7777c1d13bedfcd09ab4c0b02fc7ef86fc1b2a48278910160405180910390a160019450505050506001600755919050565b60606123dc8261273d565b15156001146123ea57600080fd5b60008281526019602052604090206004810154611578906119df565b6000818152600260205260409020546001600160a01b03166124655760405162461bcd60e51b8152602060048201526018602482015277115490cdcc8c4e881a5b9d985b1a59081d1bdad95b88125160421b604482015260640161081e565b50565b600081815260046020526040902080546001600160a01b0319166001600160a01b038416908117909155819061249d826111ab565b6001600160a01b03167f8c5be1e5ebec7d5bd14f71427d1e84f3dd0314c0f7b2291e5b200ac8c7c3b92560405160405180910390a45050565b6000806124e2836111ab565b9050806001600160a01b0316846001600160a01b0316148061252957506001600160a01b0380821660009081526005602090815260408083209388168352929052205460ff165b80611ae75750836001600160a01b031661254284610783565b6001600160a01b031614949350505050565b826001600160a01b0316612567826111ab565b6001600160a01b0316146125cb5760405162461bcd60e51b815260206004820152602560248201527f4552433732313a207472616e736665722066726f6d20696e636f72726563742060448201526437bbb732b960d91b606482015260840161081e565b6001600160a01b03821661262d5760405162461bcd60e51b8152602060048201526024808201527f4552433732313a207472616e7366657220746f20746865207a65726f206164646044820152637265737360e01b606482015260840161081e565b612638600082612468565b6001600160a01b0383166000908152600360205260408120805460019290612661908490613656565b90915550506001600160a01b038216600090815260036020526040812080546001929061268f9084906135d8565b909155505060008181526002602052604080822080546001600160a01b0319166001600160a01b0386811691821790925591518493918716917fddf252ad1be2c89b69c2b068fc378daa952ba7f163c4a11628f55a4df523b3ef91a4505050565b6000805b600e548110156118ca5782600e82815481106127125761271261369c565b90600052602060002001540361272b5750600192915050565b80612735816136b2565b9150506126f4565b6000805b600f548110156118ca5782600f828154811061275f5761275f61369c565b9060005260206000200154036127785750600192915050565b80612782816136b2565b915050612741565b6001600160a01b03831673eeeeeeeeeeeeeeeeeeeeeeeeeeeeeeeeeeeeeeee14806127d157506001600160a01b03831673eeeeeeeeeeeeeeeeeeeeeeeeeeeeeeeeeeeeeeee145b1561020f576040516323b872dd60e01b81526001600160a01b038416906323b872dd906128069033903090869060040161346c565b6020604051808303816000875af1158015612825573d6000803e3d6000fd5b505050506040513d601f19601f8201168201806040525081019061284991906135f0565b506040516323b872dd60e01b81526001600160a01b038516906323b872dd9061287a9030903390879060040161346c565b600060405180830381600087803b15801561289457600080fd5b505af11580156128a8573d6000803e3d6000fd5b50505050611887565b816001600160a01b0316836001600160a01b0316036129125760405162461bcd60e51b815260206004820152601960248201527f4552433732313a20617070726f766520746f2063616c6c657200000000000000604482015260640161081e565b6001600160a01b03838116600081815260056020908152604080832094871680845294825291829020805460ff191686151590811790915591519182527f17307eab39ab6107e8899845ad3d59bd9653f200f220920489ca2b5937696c31910160405180910390a3505050565b61298a848484612554565b61299684848484612ad2565b6118875760405162461bcd60e51b815260040161081e906136cb565b60606129bd82612406565b60006129d460408051602081019091526000815290565b905060008151116129f45760405180602001604052806000815250611578565b806129fe84612bd3565b604051602001612a0f92919061366d565b6040516020818303038152906040529392505050565b6116ed828260405180602001604052806000815250612cd4565b6000828152600260205260409020546001600160a01b0316612aba5760405162461bcd60e51b815260206004820152602e60248201527f45524337323155524953746f726167653a2055524920736574206f66206e6f6e60448201526d32bc34b9ba32b73a103a37b5b2b760911b606482015260840161081e565b60008281526006602052604090206108bf82826134de565b60006001600160a01b0384163b15612bc857604051630a85bd0160e11b81526001600160a01b0385169063150b7a0290612b1690339089908890889060040161371d565b6020604051808303816000875af1925050508015612b51575060408051601f3d908101601f19168201909252612b4e9181019061375a565b60015b612bae573d808015612b7f576040519150601f19603f3d011682016040523d82523d6000602084013e612b84565b606091505b508051600003612ba65760405162461bcd60e51b815260040161081e906136cb565b805181602001fd5b6001600160e01b031916630a85bd0160e11b149050611ae7565b506001949350505050565b606081600003612bfa5750506040805180820190915260018152600360fc1b602082015290565b8160005b8115612c245780612c0e816136b2565b9150612c1d9050600a83613642565b9150612bfe565b60008167ffffffffffffffff811115612c3f57612c3f6130ad565b6040519080825280601f01601f191660200182016040528015612c69576020820181803683370190505b5090505b8415611ae757612c7e600183613656565b9150612c8b600a86613777565b612c969060306135d8565b60f81b818381518110612cab57612cab61369c565b60200101906001600160f81b031916908160001a905350612ccd600a86613642565b9450612c6d565b612cde8383612d07565b612ceb6000848484612ad2565b6108bf5760405162461bcd60e51b815260040161081e906136cb565b6001600160a01b038216612d5d5760405162461bcd60e51b815260206004820181905260248201527f4552433732313a206d696e7420746f20746865207a65726f2061646472657373604482015260640161081e565b6000818152600260205260409020546001600160a01b031615612dc25760405162461bcd60e51b815260206004820152601c60248201527f4552433732313a20746f6b656e20616c7265616479206d696e74656400000000604482015260640161081e565b6001600160a01b0382166000908152600360205260408120805460019290612deb9084906135d8565b909155505060008181526002602052604080822080546001600160a01b0319166001600160a01b03861690811790915590518392907fddf252ad1be2c89b69c2b068fc378daa952ba7f163c4a11628f55a4df523b3ef908290a45050565b828054828255906000526020600020908101928215612e9e579160200282015b82811115612e9e57825182546001600160a01b0319166001600160a01b03909116178255602090920191600190910190612e69565b50612eaa929150612eee565b5090565b828054828255906000526020600020908101928215612e9e5760005260206000209182015b82811115612e9e578254825591600101919060010190612ed3565b5b80821115612eaa5760008155600101612eef565b6001600160e01b03198116811461246557600080fd5b600060208284031215612f2b57600080fd5b813561157881612f03565b60005b83811015612f51578181015183820152602001612f39565b838111156118875750506000910152565b60008151808452612f7a816020860160208601612f36565b601f01601f19169290920160200192915050565b6020815260006115786020830184612f62565b600060208284031215612fb357600080fd5b5035919050565b80356001600160a01b0381168114612fd157600080fd5b919050565b60008060408385031215612fe957600080fd5b612ff283612fba565b946020939093013593505050565b60008060006060848603121561301557600080fd5b61301e84612fba565b925061302c60208501612fba565b9150604084013590509250925092565b634e487b7160e01b600052602160045260246000fd5b815160808201906004811061307757634e487b7160e01b600052602160045260246000fd5b80835250602083015160018060a01b03808216602085015280604086015116604085015250506060830151606083015292915050565b634e487b7160e01b600052604160045260246000fd5b600067ffffffffffffffff808411156130de576130de6130ad565b604051601f8501601f19908116603f01168101908282118183101715613106576131066130ad565b8160405280935085815286868601111561311f57600080fd5b858560208301376000602087830101525050509392505050565b60006020828403121561314b57600080fd5b813567ffffffffffffffff81111561316257600080fd5b8201601f8101841361317357600080fd5b611ae7848235602084016130c3565b6000806040838503121561319557600080fd5b50508035926020909101359150565b6000602082840312156131b657600080fd5b61157882612fba565b6000806000606084860312156131d457600080fd5b8335925061302c60208501612fba565b801515811461246557600080fd5b6000806040838503121561320557600080fd5b61320e83612fba565b9150602083013561321e816131e4565b809150509250929050565b6020808252825182820181905260009190848201906040850190845b8181101561326157835183529284019291840191600101613245565b50909695505050505050565b6000806000806080858703121561328357600080fd5b61328c85612fba565b935061329a60208601612fba565b925060408501359150606085013567ffffffffffffffff8111156132bd57600080fd5b8501601f810187136132ce57600080fd5b6132dd878235602084016130c3565b91505092959194509250565b6000806000606084860312156132fe57600080fd5b61330784612fba565b95602085013595506040909401359392505050565b6000806000806080858703121561333257600080fd5b61333b85612fba565b966020860135965060408601359560600135945092505050565b83815260606020820152600061336e6060830185612f62565b90508215156040830152949350505050565b6000806040838503121561339357600080fd5b61339c83612fba565b91506133aa60208401612fba565b90509250929050565b600181811c908216806133c757607f821691505b6020821081036112cd57634e487b7160e01b600052602260045260246000fd5b6020808252602e908201527f4552433732313a2063616c6c6572206973206e6f7420746f6b656e206f776e6560408201526d1c881b9bdc88185c1c1c9bdd995960921b606082015260800190565b6020808252601f908201527f5265656e7472616e637947756172643a207265656e7472616e742063616c6c00604082015260600190565b6001600160a01b039384168152919092166020820152604081019190915260600190565b601f8211156108bf57600081815260208120601f850160051c810160208610156134b75750805b601f850160051c820191505b818110156134d6578281556001016134c3565b505050505050565b815167ffffffffffffffff8111156134f8576134f86130ad565b61350c8161350684546133b3565b84613490565b602080601f83116001811461354157600084156135295750858301515b600019600386901b1c1916600185901b1785556134d6565b600085815260208120601f198616915b8281101561357057888601518255948401946001909101908401613551565b508582101561358e5787850151600019600388901b60f8161c191681555b5050505050600190811b01905550565b6001600160a01b0383168152604060208201819052600090611ae790830184612f62565b634e487b7160e01b600052601160045260246000fd5b600082198211156135eb576135eb6135c2565b500190565b60006020828403121561360257600080fd5b8151611578816131e4565b6000816000190483118215151615613627576136276135c2565b500290565b634e487b7160e01b600052601260045260246000fd5b6000826136515761365161362c565b500490565b600082821015613668576136686135c2565b500390565b6000835161367f818460208801612f36565b835190830190613693818360208801612f36565b01949350505050565b634e487b7160e01b600052603260045260246000fd5b6000600182016136c4576136c46135c2565b5060010190565b60208082526032908201527f4552433732313a207472616e7366657220746f206e6f6e20455243373231526560408201527131b2b4bb32b91034b6b83632b6b2b73a32b960711b606082015260800190565b6001600160a01b038581168252841660208201526040810183905260806060820181905260009061375090830184612f62565b9695505050505050565b60006020828403121561376c57600080fd5b815161157881612f03565b6000826137865761378661362c565b50069056fea2646970667358221220eeda3df6eb3746dc77c0e57953b1fbe33311a7d838b49daf1a8ea06533c221a564736f6c634300080f0033",
    "sourcePath": "c:/Users/Nobert Jakpor/Desktop/NftMarketplace (Frontend)/SmartContracts/MarketPlace.sol",
    "compiler": {
        "name": "solc",
        "version": "0.8.15+commit.e14f2714"
    },
    "functionHashes": {
        "MAX_PER_MINT()": "09d42b30",
        "add_collection(address)": "b2e5e309",
        "approve(address,uint256)": "095ea7b3",
        "balanceOf(address)": "70a08231",
        "bid(uint256,uint256)": "598647f8",
        "buyNft(uint256,address,uint256)": "75e23485",
        "cancelAuction(uint256)": "96b5a755",
        "cancelListing(uint256)": "305a67a8",
        "claimNft(uint256)": "2ec09d39",
        "createUser(string)": "507ffba5",
        "editUser(string)": "81754494",
        "getAllAuctions()": "cbd2bdfd",
        "getAllListings()": "ae73ccec",
        "getApproved(uint256)": "081812fc",
        "getAuctionedTokenUri(uint256)": "fd57251a",
        "getListingById(uint256)": "4f85310f",
        "getTokenUri(uint256)": "8ad91345",
        "isApprovedForAll(address,address)": "e985e9c5",
        "isVerified(address)": "b9209e33",
        "listNft(address,uint256,uint256)": "c922b17c",
        "mintNft(string)": "da86f4a9",
        "name()": "06fdde03",
        "ownerOf(uint256)": "6352211e",
        "placeAuction(address,uint256,uint256,uint256)": "d41cffe8",
        "safeTransferFrom(address,address,uint256)": "42842e0e",
        "safeTransferFrom(address,address,uint256,bytes)": "b88d4fde",
        "setApprovalForAll(address,bool)": "a22cb465",
        "supportsInterface(bytes4)": "01ffc9a7",
        "symbol()": "95d89b41",
        "tokenURI(uint256)": "c87b56dd",
        "token_owners(uint256)": "e0e8a260",
        "transferFrom(address,address,uint256)": "23b872dd",
        "verifiyUser(address)": "65aeaea7",
        "withdrawEarnings(address,uint256)": "c9211c82",
        "withdrawHighestBid(uint256)": "f52c6174",
        "withdrawUnderBid(uint256)": "bc53cade"
    },
    "gasEstimates": {
        "creation": {
            "codeDepositCost": "2854600",
            "executionCost": "infinite",
            "totalCost": "infinite"
        },
        "external": {
            "MAX_PER_MINT()": "2341",
            "add_collection(address)": "infinite",
            "approve(address,uint256)": "infinite",
            "balanceOf(address)": "2656",
            "bid(uint256,uint256)": "infinite",
            "buyNft(uint256,address,uint256)": "infinite",
            "cancelAuction(uint256)": "infinite",
            "cancelListing(uint256)": "infinite",
            "claimNft(uint256)": "infinite",
            "createUser(string)": "infinite",
            "editUser(string)": "infinite",
            "getAllAuctions()": "infinite",
            "getAllListings()": "infinite",
            "getApproved(uint256)": "4815",
            "getAuctionedTokenUri(uint256)": "infinite",
            "getListingById(uint256)": "infinite",
            "getTokenUri(uint256)": "infinite",
            "isApprovedForAll(address,address)": "infinite",
            "isVerified(address)": "2703",
            "listNft(address,uint256,uint256)": "infinite",
            "mintNft(string)": "infinite",
            "name()": "infinite",
            "ownerOf(uint256)": "2650",
            "placeAuction(address,uint256,uint256,uint256)": "infinite",
            "safeTransferFrom(address,address,uint256)": "infinite",
            "safeTransferFrom(address,address,uint256,bytes)": "infinite",
            "setApprovalForAll(address,bool)": "26802",
            "supportsInterface(bytes4)": "557",
            "symbol()": "infinite",
            "tokenURI(uint256)": "infinite",
            "token_owners(uint256)": "4680",
            "transferFrom(address,address,uint256)": "infinite",
            "verifiyUser(address)": "infinite",
            "withdrawEarnings(address,uint256)": "infinite",
            "withdrawHighestBid(uint256)": "infinite",
            "withdrawUnderBid(uint256)": "infinite"
        },
        "internal": {
            "auction_exists(uint256)": "infinite",
            "listing_exists(uint256)": "infinite"
        }
    }
}