{
    "contractName": "HavenToken",
    "abi": [
        {
            "inputs": [],
            "stateMutability": "nonpayable",
            "type": "constructor"
        },
        {
            "anonymous": false,
            "inputs": [
                {
                    "indexed": true,
                    "internalType": "address",
                    "name": "owner",
                    "type": "address"
                },
                {
                    "indexed": true,
                    "internalType": "address",
                    "name": "spender",
                    "type": "address"
                },
                {
                    "indexed": false,
                    "internalType": "uint256",
                    "name": "value",
                    "type": "uint256"
                }
            ],
            "name": "Approval",
            "type": "event"
        },
        {
            "anonymous": false,
            "inputs": [
                {
                    "indexed": true,
                    "internalType": "address",
                    "name": "from",
                    "type": "address"
                },
                {
                    "indexed": true,
                    "internalType": "address",
                    "name": "to",
                    "type": "address"
                },
                {
                    "indexed": false,
                    "internalType": "uint256",
                    "name": "value",
                    "type": "uint256"
                }
            ],
            "name": "Transfer",
            "type": "event"
        },
        {
            "inputs": [
                {
                    "internalType": "address",
                    "name": "owner",
                    "type": "address"
                },
                {
                    "internalType": "address",
                    "name": "spender",
                    "type": "address"
                }
            ],
            "name": "allowance",
            "outputs": [
                {
                    "internalType": "uint256",
                    "name": "",
                    "type": "uint256"
                }
            ],
            "stateMutability": "view",
            "type": "function"
        },
        {
            "inputs": [
                {
                    "internalType": "address",
                    "name": "spender",
                    "type": "address"
                },
                {
                    "internalType": "uint256",
                    "name": "amount",
                    "type": "uint256"
                }
            ],
            "name": "approve",
            "outputs": [
                {
                    "internalType": "bool",
                    "name": "",
                    "type": "bool"
                }
            ],
            "stateMutability": "nonpayable",
            "type": "function"
        },
        {
            "inputs": [
                {
                    "internalType": "address",
                    "name": "account",
                    "type": "address"
                }
            ],
            "name": "balanceOf",
            "outputs": [
                {
                    "internalType": "uint256",
                    "name": "",
                    "type": "uint256"
                }
            ],
            "stateMutability": "view",
            "type": "function"
        },
        {
            "inputs": [],
            "name": "decimals",
            "outputs": [
                {
                    "internalType": "uint8",
                    "name": "",
                    "type": "uint8"
                }
            ],
            "stateMutability": "view",
            "type": "function"
        },
        {
            "inputs": [
                {
                    "internalType": "address",
                    "name": "spender",
                    "type": "address"
                },
                {
                    "internalType": "uint256",
                    "name": "subtractedValue",
                    "type": "uint256"
                }
            ],
            "name": "decreaseAllowance",
            "outputs": [
                {
                    "internalType": "bool",
                    "name": "",
                    "type": "bool"
                }
            ],
            "stateMutability": "nonpayable",
            "type": "function"
        },
        {
            "inputs": [
                {
                    "internalType": "address",
                    "name": "spender",
                    "type": "address"
                },
                {
                    "internalType": "uint256",
                    "name": "addedValue",
                    "type": "uint256"
                }
            ],
            "name": "increaseAllowance",
            "outputs": [
                {
                    "internalType": "bool",
                    "name": "",
                    "type": "bool"
                }
            ],
            "stateMutability": "nonpayable",
            "type": "function"
        },
        {
            "inputs": [],
            "name": "marketContract",
            "outputs": [
                {
                    "internalType": "address",
                    "name": "",
                    "type": "address"
                }
            ],
            "stateMutability": "view",
            "type": "function"
        },
        {
            "inputs": [
                {
                    "internalType": "address",
                    "name": "account",
                    "type": "address"
                },
                {
                    "internalType": "uint256",
                    "name": "amount",
                    "type": "uint256"
                }
            ],
            "name": "marketplaceRewards",
            "outputs": [],
            "stateMutability": "nonpayable",
            "type": "function"
        },
        {
            "inputs": [],
            "name": "name",
            "outputs": [
                {
                    "internalType": "string",
                    "name": "",
                    "type": "string"
                }
            ],
            "stateMutability": "view",
            "type": "function"
        },
        {
            "inputs": [
                {
                    "internalType": "address",
                    "name": "marketAddress",
                    "type": "address"
                }
            ],
            "name": "setMarketAddress",
            "outputs": [],
            "stateMutability": "nonpayable",
            "type": "function"
        },
        {
            "inputs": [
                {
                    "internalType": "address",
                    "name": "stakingContractAddress",
                    "type": "address"
                }
            ],
            "name": "setStakingAddress",
            "outputs": [],
            "stateMutability": "nonpayable",
            "type": "function"
        },
        {
            "inputs": [],
            "name": "stakingContract",
            "outputs": [
                {
                    "internalType": "address",
                    "name": "",
                    "type": "address"
                }
            ],
            "stateMutability": "view",
            "type": "function"
        },
        {
            "inputs": [],
            "name": "symbol",
            "outputs": [
                {
                    "internalType": "string",
                    "name": "",
                    "type": "string"
                }
            ],
            "stateMutability": "view",
            "type": "function"
        },
        {
            "inputs": [],
            "name": "totalSupply",
            "outputs": [
                {
                    "internalType": "uint256",
                    "name": "",
                    "type": "uint256"
                }
            ],
            "stateMutability": "view",
            "type": "function"
        },
        {
            "inputs": [
                {
                    "internalType": "address",
                    "name": "to",
                    "type": "address"
                },
                {
                    "internalType": "uint256",
                    "name": "amount",
                    "type": "uint256"
                }
            ],
            "name": "transfer",
            "outputs": [
                {
                    "internalType": "bool",
                    "name": "",
                    "type": "bool"
                }
            ],
            "stateMutability": "nonpayable",
            "type": "function"
        },
        {
            "inputs": [
                {
                    "internalType": "address",
                    "name": "from",
                    "type": "address"
                },
                {
                    "internalType": "address",
                    "name": "to",
                    "type": "address"
                },
                {
                    "internalType": "uint256",
                    "name": "amount",
                    "type": "uint256"
                }
            ],
            "name": "transferFrom",
            "outputs": [
                {
                    "internalType": "bool",
                    "name": "",
                    "type": "bool"
                }
            ],
            "stateMutability": "nonpayable",
            "type": "function"
        }
    ],
    "bytecode": "608060405267016345785d8a00006005556200001e6012600a62000444565b6200002e9063055d4a806200045c565b6006556008805473eeeeeeeeeeeeeeeeeeeeeeeeeeeeeeeeeeeeeeee6001600160a01b0319918216811790925560098054909116909117905560408051808201909152600b8082526a2430bb32b7102a37b5b2b760a91b60208301529062000097908262000522565b50604080518082019091526003815262090acb60eb1b6020820152600c90620000c1908262000522565b50348015620000cf57600080fd5b50600b8054620000df9062000494565b80601f01602080910402602001604051908101604052809291908181526020018280546200010d9062000494565b80156200015e5780601f1062000132576101008083540402835291602001916200015e565b820191906000526020600020905b8154815290600101906020018083116200014057829003601f168201915b5050505050600c8054620001729062000494565b80601f0160208091040260200160405190810160405280929190818152602001828054620001a09062000494565b8015620001f15780601f10620001c557610100808354040283529160200191620001f1565b820191906000526020600020905b815481529060010190602001808311620001d357829003601f168201915b5050505050816003908162000207919062000522565b50600462000216828262000522565b5050600a80546001600160a01b031916339081179091556006546200023c925062000242565b62000604565b6001600160a01b0382166200029d5760405162461bcd60e51b815260206004820152601f60248201527f45524332303a206d696e7420746f20746865207a65726f206164647265737300604482015260640160405180910390fd5b8060026000828254620002b19190620005ee565b90915550506001600160a01b03821660009081526020819052604081208054839290620002e0908490620005ee565b90915550506040518181526001600160a01b038316906000907fddf252ad1be2c89b69c2b068fc378daa952ba7f163c4a11628f55a4df523b3ef9060200160405180910390a35050565b505050565b634e487b7160e01b600052601160045260246000fd5b600181815b80851115620003865781600019048211156200036a576200036a6200032f565b808516156200037857918102915b93841c93908002906200034a565b509250929050565b6000826200039f575060016200043e565b81620003ae575060006200043e565b8160018114620003c75760028114620003d257620003f2565b60019150506200043e565b60ff841115620003e657620003e66200032f565b50506001821b6200043e565b5060208310610133831016604e8410600b841016171562000417575081810a6200043e565b62000423838362000345565b80600019048211156200043a576200043a6200032f565b0290505b92915050565b60006200045560ff8416836200038e565b9392505050565b60008160001904831182151516156200047957620004796200032f565b500290565b634e487b7160e01b600052604160045260246000fd5b600181811c90821680620004a957607f821691505b602082108103620004ca57634e487b7160e01b600052602260045260246000fd5b50919050565b601f8211156200032a57600081815260208120601f850160051c81016020861015620004f95750805b601f850160051c820191505b818110156200051a5782815560010162000505565b505050505050565b81516001600160401b038111156200053e576200053e6200047e565b62000556816200054f845462000494565b84620004d0565b602080601f8311600181146200058e5760008415620005755750858301515b600019600386901b1c1916600185901b1785556200051a565b600085815260208120601f198616915b82811015620005bf578886015182559484019460019091019084016200059e565b5085821015620005de5787850151600019600388901b60f8161c191681555b5050505050600190811b01905550565b808201808211156200043e576200043e6200032f565b610b6a80620006146000396000f3fe608060405234801561001057600080fd5b50600436106101005760003560e01c806395d89b4111610097578063dd62ed3e11610066578063dd62ed3e1461021e578063ee99205c14610231578063f4e0d9ac14610242578063fae926121461025557600080fd5b806395d89b41146101cb578063a1794bcd146101d3578063a457c2d7146101f8578063a9059cbb1461020b57600080fd5b8063313ce567116100d3578063313ce5671461016b578063395093511461017a57806370a082311461018d5780637a5d57f7146101b657600080fd5b806306fdde0314610105578063095ea7b31461012357806318160ddd1461014657806323b872dd14610158575b600080fd5b61010d610268565b60405161011a919061098d565b60405180910390f35b6101366101313660046109f7565b6102fa565b604051901515815260200161011a565b6002545b60405190815260200161011a565b610136610166366004610a21565b610314565b6040516012815260200161011a565b6101366101883660046109f7565b610338565b61014a61019b366004610a5d565b6001600160a01b031660009081526020819052604090205490565b6101c96101c43660046109f7565b61035a565b005b61010d610408565b6008546001600160a01b03165b6040516001600160a01b03909116815260200161011a565b6101366102063660046109f7565b610417565b6101366102193660046109f7565b610497565b61014a61022c366004610a7f565b6104a5565b6009546001600160a01b03166101e0565b6101c9610250366004610a5d565b6104d0565b6101c9610263366004610a5d565b610509565b60606003805461027790610ab2565b80601f01602080910402602001604051908101604052809291908181526020018280546102a390610ab2565b80156102f05780601f106102c5576101008083540402835291602001916102f0565b820191906000526020600020905b8154815290600101906020018083116102d357829003601f168201915b5050505050905090565b600033610308818585610542565b60019150505b92915050565b600033610322858285610666565b61032d8585856106e0565b506001949350505050565b60003361030881858561034b83836104a5565b6103559190610b02565b610542565b600061036782600a610b15565b6008549091506001600160a01b03163b15158061038f57506009546001600160a01b03163b15155b61039857600080fd5b6008546001600160a01b03163314806103bb57506009546001600160a01b031633145b6103c457600080fd5b600554600754106103d457600080fd5b60055481106103e257600080fd5b6103ec83836108ae565b80600760008282546103fe9190610b02565b9091555050505050565b60606004805461027790610ab2565b6000338161042582866104a5565b90508381101561048a5760405162461bcd60e51b815260206004820152602560248201527f45524332303a2064656372656173656420616c6c6f77616e63652062656c6f77604482015264207a65726f60d81b60648201526084015b60405180910390fd5b61032d8286868403610542565b6000336103088185856106e0565b6001600160a01b03918216600090815260016020908152604080832093909416825291909152205490565b600a546001600160a01b031633146104e757600080fd5b600980546001600160a01b0319166001600160a01b0392909216919091179055565b600a546001600160a01b0316331461052057600080fd5b600880546001600160a01b0319166001600160a01b0392909216919091179055565b6001600160a01b0383166105a45760405162461bcd60e51b8152602060048201526024808201527f45524332303a20617070726f76652066726f6d20746865207a65726f206164646044820152637265737360e01b6064820152608401610481565b6001600160a01b0382166106055760405162461bcd60e51b815260206004820152602260248201527f45524332303a20617070726f766520746f20746865207a65726f206164647265604482015261737360f01b6064820152608401610481565b6001600160a01b0383811660008181526001602090815260408083209487168084529482529182902085905590518481527f8c5be1e5ebec7d5bd14f71427d1e84f3dd0314c0f7b2291e5b200ac8c7c3b925910160405180910390a3505050565b600061067284846104a5565b905060001981146106da57818110156106cd5760405162461bcd60e51b815260206004820152601d60248201527f45524332303a20696e73756666696369656e7420616c6c6f77616e63650000006044820152606401610481565b6106da8484848403610542565b50505050565b6001600160a01b0383166107445760405162461bcd60e51b815260206004820152602560248201527f45524332303a207472616e736665722066726f6d20746865207a65726f206164604482015264647265737360d81b6064820152608401610481565b6001600160a01b0382166107a65760405162461bcd60e51b815260206004820152602360248201527f45524332303a207472616e7366657220746f20746865207a65726f206164647260448201526265737360e81b6064820152608401610481565b6001600160a01b0383166000908152602081905260409020548181101561081e5760405162461bcd60e51b815260206004820152602660248201527f45524332303a207472616e7366657220616d6f756e7420657863656564732062604482015265616c616e636560d01b6064820152608401610481565b6001600160a01b03808516600090815260208190526040808220858503905591851681529081208054849290610855908490610b02565b92505081905550826001600160a01b0316846001600160a01b03167fddf252ad1be2c89b69c2b068fc378daa952ba7f163c4a11628f55a4df523b3ef846040516108a191815260200190565b60405180910390a36106da565b6001600160a01b0382166109045760405162461bcd60e51b815260206004820152601f60248201527f45524332303a206d696e7420746f20746865207a65726f2061646472657373006044820152606401610481565b80600260008282546109169190610b02565b90915550506001600160a01b03821660009081526020819052604081208054839290610943908490610b02565b90915550506040518181526001600160a01b038316906000907fddf252ad1be2c89b69c2b068fc378daa952ba7f163c4a11628f55a4df523b3ef9060200160405180910390a35050565b600060208083528351808285015260005b818110156109ba5785810183015185820160400152820161099e565b506000604082860101526040601f19601f8301168501019250505092915050565b80356001600160a01b03811681146109f257600080fd5b919050565b60008060408385031215610a0a57600080fd5b610a13836109db565b946020939093013593505050565b600080600060608486031215610a3657600080fd5b610a3f846109db565b9250610a4d602085016109db565b9150604084013590509250925092565b600060208284031215610a6f57600080fd5b610a78826109db565b9392505050565b60008060408385031215610a9257600080fd5b610a9b836109db565b9150610aa9602084016109db565b90509250929050565b600181811c90821680610ac657607f821691505b602082108103610ae657634e487b7160e01b600052602260045260246000fd5b50919050565b634e487b7160e01b600052601160045260246000fd5b8082018082111561030e5761030e610aec565b6000816000190483118215151615610b2f57610b2f610aec565b50029056fea2646970667358221220f405b23b055d6f1eb89a625f47eadca2e0aebe073914747085e748bc307dd31864736f6c63430008100033",
    "sourcePath": "c:/Users/Blessing/Desktop/GITHUB Repos/NftMarketplace--Frontend-/SmartContracts/HavenToken.sol",
    "compiler": {
        "name": "solc",
        "version": "0.8.16+commit.07a7930e"
    },
    "functionHashes": {
        "allowance(address,address)": "dd62ed3e",
        "approve(address,uint256)": "095ea7b3",
        "balanceOf(address)": "70a08231",
        "decimals()": "313ce567",
        "decreaseAllowance(address,uint256)": "a457c2d7",
        "increaseAllowance(address,uint256)": "39509351",
        "marketContract()": "a1794bcd",
        "marketplaceRewards(address,uint256)": "7a5d57f7",
        "name()": "06fdde03",
        "setMarketAddress(address)": "fae92612",
        "setStakingAddress(address)": "f4e0d9ac",
        "stakingContract()": "ee99205c",
        "symbol()": "95d89b41",
        "totalSupply()": "18160ddd",
        "transfer(address,uint256)": "a9059cbb",
        "transferFrom(address,address,uint256)": "23b872dd"
    },
    "gasEstimates": {
        "creation": {
            "codeDepositCost": "584400",
            "executionCost": "infinite",
            "totalCost": "infinite"
        },
        "external": {
            "allowance(address,address)": "infinite",
            "approve(address,uint256)": "24651",
            "balanceOf(address)": "2607",
            "decimals()": "200",
            "decreaseAllowance(address,uint256)": "27017",
            "increaseAllowance(address,uint256)": "infinite",
            "marketContract()": "2365",
            "marketplaceRewards(address,uint256)": "infinite",
            "name()": "infinite",
            "setMarketAddress(address)": "26799",
            "setStakingAddress(address)": "26777",
            "stakingContract()": "2375",
            "symbol()": "infinite",
            "totalSupply()": "2349",
            "transfer(address,uint256)": "infinite",
            "transferFrom(address,address,uint256)": "infinite"
        }
    }
}