{
    "contractName": "HaveXStaking",
    "abi": [
        {
            "inputs": [
                {
                    "internalType": "uint256",
                    "name": "principal",
                    "type": "uint256"
                },
                {
                    "internalType": "uint256",
                    "name": "period",
                    "type": "uint256"
                }
            ],
            "name": "apy",
            "outputs": [
                {
                    "internalType": "uint256",
                    "name": "",
                    "type": "uint256"
                }
            ],
            "stateMutability": "pure",
            "type": "function"
        },
        {
            "inputs": [],
            "name": "apyy",
            "outputs": [
                {
                    "internalType": "uint256",
                    "name": "",
                    "type": "uint256"
                }
            ],
            "stateMutability": "pure",
            "type": "function"
        }
    ],
    "bytecode": "608060405234801561001057600080fd5b5061086c806100206000396000f3fe608060405234801561001057600080fd5b50600436106100365760003560e01c806349dead521461003b5780637d30e24514610060575b600080fd5b61004e610049366004610799565b610068565b60405190815260200160405180910390f35b61004e610089565b6000816100766064856107d1565b61008091906107f3565b90505b92915050565b6000610099600560e9600361009e565b905090565b60006100d36100ce6100c06100b2876100db565b6100bb876100db565b610142565b6100c9856100db565b6103cd565b610672565b949350505050565b6000816000036100ed57506000919050565b8160006100f9826106f6565b90506070811015610112578060700382901b9150610125565b6070811115610125576070810382901c91505b613fff0160701b6001600160701b03919091161760801b92915050565b6000617fff60f084811c8216919084901c8116908290036101f25780617fff036101bd576001600160801b03198085169086160361018b57505050600160ff1b81168218610083565b6001600160801b031985851816600160ff1b036101ad57505050818117610083565b5061ffff60ef1b91506100839050565b600160801b600160ff1b0384166000036101e1575061ffff60ef1b91506100839050565b505050600160ff1b81168218610083565b80617fff0361023057600160801b600160ff1b03851660000361021f575061ffff60ef1b91506100839050565b505050600160ff1b82168118610083565b6001600160701b03608086901c1660008390036102505760019250610257565b600160701b175b6001600160701b03608086901c166000839003610277576001925061027e565b600160701b175b8082029150816000036102b057600160ff1b8787181661029f5760006102a5565b600160ff1b5b945050505050610083565b928201926000600160e11b8310156102e357600160e01b8310156102dc576102d7836106f6565b6102e6565b60e06102e6565b60e15b9050614070818601101561030157600094506000925061039e565b6140e081860110156103445761407085101561032657846140700383901c925061033b565b61407085111561033b57614070850383901b92505b6000945061039e565b61c0dd818601111561035e57617fff94506000925061039e565b6070811115610375576070810383901c9250610388565b6070811015610388578060700383901b92505b6001600160701b03831692506140df8186010394505b82607086901b888a186001607f1b60801b1660801c6001600160801b0316171760801b95505050505050610083565b6000617fff60f084811c8216919084901c8116908290036104015780617fff036101e1575061ffff60ef1b91506100839050565b80617fff03610444576dffffffffffffffffffffffffffff60801b841615610433575061ffff60ef1b91506100839050565b505050808218600160ff1b16610083565b600160801b600160ff1b03841660000361049457600160801b600160ff1b03851660000361047c575061ffff60ef1b91506100839050565b505050808218600160ff1b16617fff60f01b17610083565b6001600160701b03608085901c1660008290036104b457600191506104bb565b600160701b175b6001600160701b03608087901c1660008490036104fe5780156104f95760006104e3826106f6565b6001955060e20393840160711901939190911b90505b610508565b600160701b1760721b5b818181610517576105176107bb565b0490508060000361053657600160ff1b8787181661029f5760006102a5565b6001606c1b81101561054a5761054a610820565b6000600160731b82101561058957600160721b82101561057e57600160711b821015610577576070610581565b6071610581565b60725b60ff16610592565b610592826106f6565b9050836140710181860111156105b057617fff945060009150610643565b83818601613ffc0110156105cb576000945060009150610643565b83818601613f8c011015610618578385613ffc0111156105f6578385613ffc010382901b915061060f565b8385613ffc01101561060f57613ffc8585030382901c91505b60009450610643565b607081111561062b576070810382901c91505b6001600160701b038216915083818601613f8d010394505b81607086901b888a186001607f1b60801b1660801c6001600160801b0316171760801b95505050505050610083565b6000617fff60f083901c16613fff8110156106905750600092915050565b6001607f1b608084901c106106a457600080fd5b6140fe8111156106b357600080fd5b600160701b6001600160701b03608085901c161761406f8210156106dd5761406f8290031c6106ef565b61406f8211156106ef5761406e1982011b5b9392505050565b600080821161070457600080fd5b6000600160801b831061071957608092831c92015b68010000000000000000831061073157604092831c92015b640100000000831061074557602092831c92015b62010000831061075757601092831c92015b610100831061076857600892831c92015b6010831061077857600492831c92015b6004831061078857600292831c92015b600283106100835760010192915050565b600080604083850312156107ac57600080fd5b50508035926020909101359150565b634e487b7160e01b600052601260045260246000fd5b6000826107ee57634e487b7160e01b600052601260045260246000fd5b500490565b600081600019048311821515161561081b57634e487b7160e01b600052601160045260246000fd5b500290565b634e487b7160e01b600052600160045260246000fdfea2646970667358221220753cd8c0221a1c9c9873e814e974ff0bc0214490f4d858565a747fbd1be7117264736f6c634300080f0033",
    "sourcePath": "c:/Users/Nobert Jakpor/Desktop/NftMarketplace (Frontend)/SmartContracts/Stake.sol",
    "compiler": {
        "name": "solc",
        "version": "0.8.15+commit.e14f2714"
    },
    "functionHashes": {
        "apy(uint256,uint256)": "49dead52",
        "apyy()": "7d30e245"
    },
    "gasEstimates": {
        "creation": {
            "codeDepositCost": "431200",
            "executionCost": "468",
            "totalCost": "431668"
        },
        "external": {
            "apy(uint256,uint256)": "441",
            "apyy()": "infinite"
        },
        "internal": {
            "mulDiv(uint256,uint256,uint256)": "infinite"
        }
    }
}