{
    "contractName": "HavenMarketPlace",
    "abi": [
        {
            "inputs": [
                {
                    "internalType": "string",
                    "name": "name",
                    "type": "string"
                },
                {
                    "internalType": "string",
                    "name": "symbol",
                    "type": "string"
                }
            ],
            "stateMutability": "payable",
            "type": "constructor"
        },
        {
            "anonymous": false,
            "inputs": [
                {
                    "indexed": true,
                    "internalType": "address",
                    "name": "owner",
                    "type": "address"
                },
                {
                    "indexed": true,
                    "internalType": "address",
                    "name": "approved",
                    "type": "address"
                },
                {
                    "indexed": true,
                    "internalType": "uint256",
                    "name": "tokenId",
                    "type": "uint256"
                }
            ],
            "name": "Approval",
            "type": "event"
        },
        {
            "anonymous": false,
            "inputs": [
                {
                    "indexed": true,
                    "internalType": "address",
                    "name": "owner",
                    "type": "address"
                },
                {
                    "indexed": true,
                    "internalType": "address",
                    "name": "operator",
                    "type": "address"
                },
                {
                    "indexed": false,
                    "internalType": "bool",
                    "name": "approved",
                    "type": "bool"
                }
            ],
            "name": "ApprovalForAll",
            "type": "event"
        },
        {
            "anonymous": false,
            "inputs": [
                {
                    "indexed": false,
                    "internalType": "address",
                    "name": "newToken",
                    "type": "address"
                },
                {
                    "indexed": false,
                    "internalType": "uint256",
                    "name": "id",
                    "type": "uint256"
                },
                {
                    "indexed": false,
                    "internalType": "uint256",
                    "name": "startPrice",
                    "type": "uint256"
                }
            ],
            "name": "Auctioned",
            "type": "event"
        },
        {
            "anonymous": false,
            "inputs": [
                {
                    "indexed": false,
                    "internalType": "address",
                    "name": "buyer",
                    "type": "address"
                },
                {
                    "indexed": false,
                    "internalType": "uint256",
                    "name": "price",
                    "type": "uint256"
                },
                {
                    "indexed": false,
                    "internalType": "uint256",
                    "name": "id",
                    "type": "uint256"
                }
            ],
            "name": "Bought",
            "type": "event"
        },
        {
            "anonymous": false,
            "inputs": [
                {
                    "indexed": false,
                    "internalType": "address",
                    "name": "user",
                    "type": "address"
                },
                {
                    "indexed": false,
                    "internalType": "address",
                    "name": "collectionadd",
                    "type": "address"
                }
            ],
            "name": "CollectionAdded",
            "type": "event"
        },
        {
            "anonymous": false,
            "inputs": [
                {
                    "indexed": false,
                    "internalType": "address",
                    "name": "bidder",
                    "type": "address"
                },
                {
                    "indexed": false,
                    "internalType": "uint256",
                    "name": "amount",
                    "type": "uint256"
                }
            ],
            "name": "HighestBidIncreased",
            "type": "event"
        },
        {
            "anonymous": false,
            "inputs": [
                {
                    "indexed": false,
                    "internalType": "address",
                    "name": "seller",
                    "type": "address"
                },
                {
                    "indexed": false,
                    "internalType": "address",
                    "name": "newToken",
                    "type": "address"
                },
                {
                    "indexed": false,
                    "internalType": "uint256",
                    "name": "id",
                    "type": "uint256"
                },
                {
                    "indexed": false,
                    "internalType": "uint256",
                    "name": "price",
                    "type": "uint256"
                }
            ],
            "name": "Listed",
            "type": "event"
        },
        {
            "anonymous": false,
            "inputs": [
                {
                    "indexed": false,
                    "internalType": "address",
                    "name": "add",
                    "type": "address"
                },
                {
                    "indexed": false,
                    "internalType": "string",
                    "name": "uri",
                    "type": "string"
                }
            ],
            "name": "Minted",
            "type": "event"
        },
        {
            "anonymous": false,
            "inputs": [
                {
                    "indexed": true,
                    "internalType": "address",
                    "name": "from",
                    "type": "address"
                },
                {
                    "indexed": true,
                    "internalType": "address",
                    "name": "to",
                    "type": "address"
                },
                {
                    "indexed": true,
                    "internalType": "uint256",
                    "name": "tokenId",
                    "type": "uint256"
                }
            ],
            "name": "Transfer",
            "type": "event"
        },
        {
            "anonymous": false,
            "inputs": [
                {
                    "indexed": false,
                    "internalType": "address",
                    "name": "user",
                    "type": "address"
                },
                {
                    "indexed": false,
                    "internalType": "string",
                    "name": "useruri",
                    "type": "string"
                }
            ],
            "name": "UserCreated",
            "type": "event"
        },
        {
            "anonymous": false,
            "inputs": [
                {
                    "indexed": false,
                    "internalType": "address",
                    "name": "owner",
                    "type": "address"
                },
                {
                    "indexed": false,
                    "internalType": "uint256",
                    "name": "id",
                    "type": "uint256"
                }
            ],
            "name": "auctionCanceled",
            "type": "event"
        },
        {
            "anonymous": false,
            "inputs": [
                {
                    "indexed": false,
                    "internalType": "address",
                    "name": "buyer",
                    "type": "address"
                },
                {
                    "indexed": false,
                    "internalType": "uint256",
                    "name": "id",
                    "type": "uint256"
                },
                {
                    "indexed": false,
                    "internalType": "uint256",
                    "name": "sellingPrice",
                    "type": "uint256"
                }
            ],
            "name": "auctionSold",
            "type": "event"
        },
        {
            "anonymous": false,
            "inputs": [
                {
                    "indexed": false,
                    "internalType": "address",
                    "name": "owner",
                    "type": "address"
                },
                {
                    "indexed": false,
                    "internalType": "uint256",
                    "name": "id",
                    "type": "uint256"
                }
            ],
            "name": "deListed",
            "type": "event"
        },
        {
            "anonymous": false,
            "inputs": [
                {
                    "indexed": false,
                    "internalType": "address",
                    "name": "owner",
                    "type": "address"
                },
                {
                    "indexed": false,
                    "internalType": "uint256",
                    "name": "id",
                    "type": "uint256"
                },
                {
                    "indexed": false,
                    "internalType": "uint256",
                    "name": "startPrice",
                    "type": "uint256"
                }
            ],
            "name": "itemAuctioned",
            "type": "event"
        },
        {
            "anonymous": false,
            "inputs": [
                {
                    "indexed": false,
                    "internalType": "address",
                    "name": "owner",
                    "type": "address"
                },
                {
                    "indexed": false,
                    "internalType": "uint256",
                    "name": "amount",
                    "type": "uint256"
                }
            ],
            "name": "withdrawnFunds",
            "type": "event"
        },
        {
            "inputs": [],
            "name": "MAX_PER_MINT",
            "outputs": [
                {
                    "internalType": "uint256",
                    "name": "",
                    "type": "uint256"
                }
            ],
            "stateMutability": "view",
            "type": "function"
        },
        {
            "inputs": [
                {
                    "internalType": "address",
                    "name": "collectionaddress",
                    "type": "address"
                }
            ],
            "name": "add_collection",
            "outputs": [
                {
                    "internalType": "bool",
                    "name": "",
                    "type": "bool"
                }
            ],
            "stateMutability": "nonpayable",
            "type": "function"
        },
        {
            "inputs": [
                {
                    "internalType": "address",
                    "name": "to",
                    "type": "address"
                },
                {
                    "internalType": "uint256",
                    "name": "tokenId",
                    "type": "uint256"
                }
            ],
            "name": "approve",
            "outputs": [],
            "stateMutability": "nonpayable",
            "type": "function"
        },
        {
            "inputs": [
                {
                    "internalType": "address",
                    "name": "owner",
                    "type": "address"
                }
            ],
            "name": "balanceOf",
            "outputs": [
                {
                    "internalType": "uint256",
                    "name": "",
                    "type": "uint256"
                }
            ],
            "stateMutability": "view",
            "type": "function"
        },
        {
            "inputs": [
                {
                    "internalType": "uint256",
                    "name": "aId",
                    "type": "uint256"
                },
                {
                    "internalType": "uint256",
                    "name": "amount",
                    "type": "uint256"
                }
            ],
            "name": "bid",
            "outputs": [],
            "stateMutability": "payable",
            "type": "function"
        },
        {
            "inputs": [
                {
                    "internalType": "uint256",
                    "name": "listingId_",
                    "type": "uint256"
                },
                {
                    "internalType": "address",
                    "name": "currency",
                    "type": "address"
                },
                {
                    "internalType": "uint256",
                    "name": "amount",
                    "type": "uint256"
                }
            ],
            "name": "buyNft",
            "outputs": [
                {
                    "internalType": "bool",
                    "name": "",
                    "type": "bool"
                }
            ],
            "stateMutability": "payable",
            "type": "function"
        },
        {
            "inputs": [
                {
                    "internalType": "uint256",
                    "name": "aId",
                    "type": "uint256"
                }
            ],
            "name": "cancelAuction",
            "outputs": [
                {
                    "internalType": "bool",
                    "name": "",
                    "type": "bool"
                }
            ],
            "stateMutability": "nonpayable",
            "type": "function"
        },
        {
            "inputs": [
                {
                    "internalType": "uint256",
                    "name": "lId",
                    "type": "uint256"
                }
            ],
            "name": "cancelListing",
            "outputs": [
                {
                    "internalType": "bool",
                    "name": "",
                    "type": "bool"
                }
            ],
            "stateMutability": "payable",
            "type": "function"
        },
        {
            "inputs": [
                {
                    "internalType": "uint256",
                    "name": "aId",
                    "type": "uint256"
                }
            ],
            "name": "claimHighestBid",
            "outputs": [
                {
                    "internalType": "bool",
                    "name": "",
                    "type": "bool"
                }
            ],
            "stateMutability": "payable",
            "type": "function"
        },
        {
            "inputs": [
                {
                    "internalType": "uint256",
                    "name": "aId",
                    "type": "uint256"
                }
            ],
            "name": "claimNft",
            "outputs": [
                {
                    "internalType": "bool",
                    "name": "",
                    "type": "bool"
                }
            ],
            "stateMutability": "payable",
            "type": "function"
        },
        {
            "inputs": [
                {
                    "internalType": "string",
                    "name": "useruri_",
                    "type": "string"
                }
            ],
            "name": "createUser",
            "outputs": [
                {
                    "internalType": "bool",
                    "name": "",
                    "type": "bool"
                }
            ],
            "stateMutability": "nonpayable",
            "type": "function"
        },
        {
            "inputs": [
                {
                    "internalType": "string",
                    "name": "useruri_",
                    "type": "string"
                }
            ],
            "name": "editUser",
            "outputs": [
                {
                    "internalType": "string",
                    "name": "",
                    "type": "string"
                }
            ],
            "stateMutability": "nonpayable",
            "type": "function"
        },
        {
            "inputs": [],
            "name": "getAllAuctions",
            "outputs": [
                {
                    "internalType": "uint256[]",
                    "name": "",
                    "type": "uint256[]"
                }
            ],
            "stateMutability": "view",
            "type": "function"
        },
        {
            "inputs": [],
            "name": "getAllListings",
            "outputs": [
                {
                    "internalType": "uint256[]",
                    "name": "",
                    "type": "uint256[]"
                }
            ],
            "stateMutability": "view",
            "type": "function"
        },
        {
            "inputs": [
                {
                    "internalType": "uint256",
                    "name": "tokenId",
                    "type": "uint256"
                }
            ],
            "name": "getApproved",
            "outputs": [
                {
                    "internalType": "address",
                    "name": "",
                    "type": "address"
                }
            ],
            "stateMutability": "view",
            "type": "function"
        },
        {
            "inputs": [
                {
                    "internalType": "uint256",
                    "name": "aId",
                    "type": "uint256"
                }
            ],
            "name": "getAuctionedTokenUri",
            "outputs": [
                {
                    "internalType": "string",
                    "name": "",
                    "type": "string"
                }
            ],
            "stateMutability": "view",
            "type": "function"
        },
        {
            "inputs": [
                {
                    "internalType": "uint256",
                    "name": "lId",
                    "type": "uint256"
                }
            ],
            "name": "getListingById",
            "outputs": [
                {
                    "components": [
                        {
                            "internalType": "enum HavenMarketPlace.status",
                            "name": "status",
                            "type": "uint8"
                        },
                        {
                            "internalType": "address",
                            "name": "seller",
                            "type": "address"
                        },
                        {
                            "internalType": "address",
                            "name": "nftContract",
                            "type": "address"
                        },
                        {
                            "internalType": "uint256",
                            "name": "tokenId",
                            "type": "uint256"
                        },
                        {
                            "internalType": "uint256",
                            "name": "price",
                            "type": "uint256"
                        },
                        {
                            "internalType": "uint256",
                            "name": "listingTime",
                            "type": "uint256"
                        }
                    ],
                    "internalType": "struct HavenMarketPlace.Listing",
                    "name": "",
                    "type": "tuple"
                }
            ],
            "stateMutability": "view",
            "type": "function"
        },
        {
            "inputs": [
                {
                    "internalType": "uint256",
                    "name": "lId",
                    "type": "uint256"
                }
            ],
            "name": "getTokenUri",
            "outputs": [
                {
                    "internalType": "string",
                    "name": "",
                    "type": "string"
                }
            ],
            "stateMutability": "view",
            "type": "function"
        },
        {
            "inputs": [
                {
                    "internalType": "address",
                    "name": "owner",
                    "type": "address"
                },
                {
                    "internalType": "address",
                    "name": "operator",
                    "type": "address"
                }
            ],
            "name": "isApprovedForAll",
            "outputs": [
                {
                    "internalType": "bool",
                    "name": "",
                    "type": "bool"
                }
            ],
            "stateMutability": "view",
            "type": "function"
        },
        {
            "inputs": [
                {
                    "internalType": "address",
                    "name": "userAccount",
                    "type": "address"
                }
            ],
            "name": "isVerified",
            "outputs": [
                {
                    "internalType": "bool",
                    "name": "",
                    "type": "bool"
                }
            ],
            "stateMutability": "view",
            "type": "function"
        },
        {
            "inputs": [
                {
                    "internalType": "address",
                    "name": "collectionContract",
                    "type": "address"
                },
                {
                    "internalType": "uint256",
                    "name": "tokenid_",
                    "type": "uint256"
                },
                {
                    "internalType": "uint256",
                    "name": "amount",
                    "type": "uint256"
                }
            ],
            "name": "listNft",
            "outputs": [
                {
                    "internalType": "uint256",
                    "name": "",
                    "type": "uint256"
                }
            ],
            "stateMutability": "payable",
            "type": "function"
        },
        {
            "inputs": [
                {
                    "internalType": "string",
                    "name": "_tokenURI",
                    "type": "string"
                }
            ],
            "name": "mintNft",
            "outputs": [
                {
                    "internalType": "uint256",
                    "name": "",
                    "type": "uint256"
                },
                {
                    "internalType": "string",
                    "name": "",
                    "type": "string"
                },
                {
                    "internalType": "bool",
                    "name": "",
                    "type": "bool"
                }
            ],
            "stateMutability": "nonpayable",
            "type": "function"
        },
        {
            "inputs": [],
            "name": "name",
            "outputs": [
                {
                    "internalType": "string",
                    "name": "",
                    "type": "string"
                }
            ],
            "stateMutability": "view",
            "type": "function"
        },
        {
            "inputs": [
                {
                    "internalType": "uint256",
                    "name": "tokenId",
                    "type": "uint256"
                }
            ],
            "name": "ownerOf",
            "outputs": [
                {
                    "internalType": "address",
                    "name": "",
                    "type": "address"
                }
            ],
            "stateMutability": "view",
            "type": "function"
        },
        {
            "inputs": [
                {
                    "internalType": "address",
                    "name": "collectionContract",
                    "type": "address"
                },
                {
                    "internalType": "uint256",
                    "name": "tokenid_",
                    "type": "uint256"
                },
                {
                    "internalType": "uint256",
                    "name": "aucEndTime",
                    "type": "uint256"
                },
                {
                    "internalType": "uint256",
                    "name": "amount",
                    "type": "uint256"
                }
            ],
            "name": "placeAuction",
            "outputs": [
                {
                    "internalType": "uint256",
                    "name": "",
                    "type": "uint256"
                }
            ],
            "stateMutability": "nonpayable",
            "type": "function"
        },
        {
            "inputs": [
                {
                    "internalType": "address",
                    "name": "from",
                    "type": "address"
                },
                {
                    "internalType": "address",
                    "name": "to",
                    "type": "address"
                },
                {
                    "internalType": "uint256",
                    "name": "tokenId",
                    "type": "uint256"
                }
            ],
            "name": "safeTransferFrom",
            "outputs": [],
            "stateMutability": "nonpayable",
            "type": "function"
        },
        {
            "inputs": [
                {
                    "internalType": "address",
                    "name": "from",
                    "type": "address"
                },
                {
                    "internalType": "address",
                    "name": "to",
                    "type": "address"
                },
                {
                    "internalType": "uint256",
                    "name": "tokenId",
                    "type": "uint256"
                },
                {
                    "internalType": "bytes",
                    "name": "data",
                    "type": "bytes"
                }
            ],
            "name": "safeTransferFrom",
            "outputs": [],
            "stateMutability": "nonpayable",
            "type": "function"
        },
        {
            "inputs": [
                {
                    "internalType": "address",
                    "name": "operator",
                    "type": "address"
                },
                {
                    "internalType": "bool",
                    "name": "approved",
                    "type": "bool"
                }
            ],
            "name": "setApprovalForAll",
            "outputs": [],
            "stateMutability": "nonpayable",
            "type": "function"
        },
        {
            "inputs": [
                {
                    "internalType": "bytes4",
                    "name": "interfaceId",
                    "type": "bytes4"
                }
            ],
            "name": "supportsInterface",
            "outputs": [
                {
                    "internalType": "bool",
                    "name": "",
                    "type": "bool"
                }
            ],
            "stateMutability": "view",
            "type": "function"
        },
        {
            "inputs": [],
            "name": "symbol",
            "outputs": [
                {
                    "internalType": "string",
                    "name": "",
                    "type": "string"
                }
            ],
            "stateMutability": "view",
            "type": "function"
        },
        {
            "inputs": [
                {
                    "internalType": "uint256",
                    "name": "tokenId",
                    "type": "uint256"
                }
            ],
            "name": "tokenURI",
            "outputs": [
                {
                    "internalType": "string",
                    "name": "",
                    "type": "string"
                }
            ],
            "stateMutability": "view",
            "type": "function"
        },
        {
            "inputs": [
                {
                    "internalType": "address",
                    "name": "from",
                    "type": "address"
                },
                {
                    "internalType": "address",
                    "name": "to",
                    "type": "address"
                },
                {
                    "internalType": "uint256",
                    "name": "tokenId",
                    "type": "uint256"
                }
            ],
            "name": "transferFrom",
            "outputs": [],
            "stateMutability": "nonpayable",
            "type": "function"
        },
        {
            "inputs": [
                {
                    "internalType": "address",
                    "name": "userAccount",
                    "type": "address"
                }
            ],
            "name": "verifiyUser",
            "outputs": [
                {
                    "internalType": "string",
                    "name": "",
                    "type": "string"
                }
            ],
            "stateMutability": "nonpayable",
            "type": "function"
        },
        {
            "inputs": [
                {
                    "internalType": "address",
                    "name": "currency",
                    "type": "address"
                },
                {
                    "internalType": "uint256",
                    "name": "amount",
                    "type": "uint256"
                }
            ],
            "name": "withdrawEarnings",
            "outputs": [
                {
                    "internalType": "bool",
                    "name": "",
                    "type": "bool"
                }
            ],
            "stateMutability": "nonpayable",
            "type": "function"
        },
        {
            "inputs": [
                {
                    "internalType": "uint256",
                    "name": "aId",
                    "type": "uint256"
                }
            ],
            "name": "withdrawUnderBid",
            "outputs": [],
            "stateMutability": "payable",
            "type": "function"
        }
    ],
    "bytecode": "6080604052600560095560405162003ab738038062003ab78339810160408190526200002b9162000139565b818160006200003b838262000232565b5060016200004a828262000232565b505060016007555050600f80546001600160a01b0319163317905550620002fe565b634e487b7160e01b600052604160045260246000fd5b600082601f8301126200009457600080fd5b81516001600160401b0380821115620000b157620000b16200006c565b604051601f8301601f19908116603f01168101908282118183101715620000dc57620000dc6200006c565b81604052838152602092508683858801011115620000f957600080fd5b600091505b838210156200011d5785820183015181830184015290820190620000fe565b838211156200012f5760008385830101525b9695505050505050565b600080604083850312156200014d57600080fd5b82516001600160401b03808211156200016557600080fd5b620001738683870162000082565b935060208501519150808211156200018a57600080fd5b50620001998582860162000082565b9150509250929050565b600181811c90821680620001b857607f821691505b602082108103620001d957634e487b7160e01b600052602260045260246000fd5b50919050565b601f8211156200022d57600081815260208120601f850160051c81016020861015620002085750805b601f850160051c820191505b81811015620002295782815560010162000214565b5050505b505050565b81516001600160401b038111156200024e576200024e6200006c565b62000266816200025f8454620001a3565b84620001df565b602080601f8311600181146200029e5760008415620002855750858301515b600019600386901b1c1916600185901b17855562000229565b600085815260208120601f198616915b82811015620002cf57888601518255948401946001909101908401620002ae565b5085821015620002ee5787850151600019600388901b60f8161c191681555b5050505050600190811b01905550565b6137a9806200030e6000396000f3fe6080604052600436106102045760003560e01c80638175449411610118578063bc53cade116100a0578063cbd2bdfd1161006f578063cbd2bdfd146105a7578063d41cffe8146105bc578063da86f4a9146105dc578063e985e9c51461060b578063fd57251a1461065457600080fd5b8063bc53cade14610541578063c87b56dd14610554578063c9211c8214610574578063c922b17c1461059457600080fd5b8063a22cb465116100e7578063a22cb4651461049f578063ae73ccec146104bf578063b2e5e309146104e1578063b88d4fde14610501578063b9209e331461052157600080fd5b8063817544941461042a5780638ad913451461044a57806395d89b411461046a57806396b5a7551461047f57600080fd5b806342842e0e1161019b5780636352211e1161016a5780636352211e146103a457806365aeaea7146103c457806370a08231146103e457806375e23485146104045780638052427a1461041757600080fd5b806342842e0e146103245780634f85310f14610344578063507ffba514610371578063598647f81461039157600080fd5b806309d42b30116101d757806309d42b30146102ba57806323b872dd146102de5780632ec09d39146102fe578063305a67a81461031157600080fd5b806301ffc9a71461020957806306fdde031461023e578063081812fc14610260578063095ea7b314610298575b600080fd5b34801561021557600080fd5b50610229610224366004612eed565b610674565b60405190151581526020015b60405180910390f35b34801561024a57600080fd5b506102536106c6565b6040516102359190612f62565b34801561026c57600080fd5b5061028061027b366004612f75565b610758565b6040516001600160a01b039091168152602001610235565b3480156102a457600080fd5b506102b86102b3366004612faa565b61077f565b005b3480156102c657600080fd5b506102d060095481565b604051908152602001610235565b3480156102ea57600080fd5b506102b86102f9366004612fd4565b610899565b61022961030c366004612f75565b6108ca565b61022961031f366004612f75565b610a97565b34801561033057600080fd5b506102b861033f366004612fd4565b610c3b565b34801561035057600080fd5b5061036461035f366004612f75565b610c56565b6040516102359190613026565b34801561037d57600080fd5b5061022961038c366004613121565b610d31565b6102b861039f36600461316a565b610f1c565b3480156103b057600080fd5b506102806103bf366004612f75565b61116d565b3480156103d057600080fd5b506102536103df36600461318c565b6111cd565b3480156103f057600080fd5b506102d06103ff36600461318c565b611295565b6102296104123660046131a7565b61131b565b610229610425366004612f75565b6114fa565b34801561043657600080fd5b50610253610445366004613121565b611647565b34801561045657600080fd5b50610253610465366004612f75565b611689565b34801561047657600080fd5b506102536116b0565b34801561048b57600080fd5b5061022961049a366004612f75565b6116bf565b3480156104ab57600080fd5b506102b86104ba3660046131da565b611807565b3480156104cb57600080fd5b506104d4611816565b6040516102359190613211565b3480156104ed57600080fd5b506102296104fc36600461318c565b61186d565b34801561050d57600080fd5b506102b861051c366004613255565b61197a565b34801561052d57600080fd5b5061022961053c36600461318c565b6119b2565b6102b861054f366004612f75565b6119f8565b34801561056057600080fd5b5061025361056f366004612f75565b611b27565b34801561058057600080fd5b5061022961058f366004612faa565b611c37565b6102d06105a23660046132d1565b611d47565b3480156105b357600080fd5b506104d4611fa0565b3480156105c857600080fd5b506102d06105d7366004613304565b611ff6565b3480156105e857600080fd5b506105fc6105f7366004613121565b6122b0565b6040516102359392919061333d565b34801561061757600080fd5b50610229610626366004613368565b6001600160a01b03918216600090815260056020908152604080832093909416825291909152205460ff1690565b34801561066057600080fd5b5061025361066f366004612f75565b6123a5565b60006001600160e01b031982166380ac58cd60e01b14806106a557506001600160e01b03198216635b5e139f60e01b145b806106c057506301ffc9a760e01b6001600160e01b03198316145b92915050565b6060600080546106d59061339b565b80601f01602080910402602001604051908101604052809291908181526020018280546107019061339b565b801561074e5780601f106107235761010080835404028352916020019161074e565b820191906000526020600020905b81548152906001019060200180831161073157829003601f168201915b5050505050905090565b6000610763826123da565b506000908152600460205260409020546001600160a01b031690565b600061078a8261116d565b9050806001600160a01b0316836001600160a01b0316036107fc5760405162461bcd60e51b815260206004820152602160248201527f4552433732313a20617070726f76616c20746f2063757272656e74206f776e656044820152603960f91b60648201526084015b60405180910390fd5b336001600160a01b038216148061081857506108188133610626565b61088a5760405162461bcd60e51b815260206004820152603e60248201527f4552433732313a20617070726f76652063616c6c6572206973206e6f7420746f60448201527f6b656e206f776e6572206e6f7220617070726f76656420666f7220616c6c000060648201526084016107f3565b610894838361243c565b505050565b6108a333826124aa565b6108bf5760405162461bcd60e51b81526004016107f3906133cf565b610894838383612528565b60006002600754036108ee5760405162461bcd60e51b81526004016107f39061341d565b600260075560008281526014602052604081208391815460ff16600381111561091957610919613010565b1415801561093d57506002815460ff16600381111561093a5761093a613010565b14155b61094657600080fd5b8060030154421161095657600080fd5b805460ff1916600317815560008481526014602052604090206006810154336001600160a01b039091161461098a57600080fd5b8060030154421161099a57600080fd5b805461010090046001600160a01b031633036109b557600080fd5b6002815460ff1660038111156109cd576109cd613010565b036109d757600080fd5b60018101546004808301546040516323b872dd60e01b81526001600160a01b03909316926323b872dd92610a0f923092339201613454565b600060405180830381600087803b158015610a2957600080fd5b505af1158015610a3d573d6000803e3d6000fd5b505050506007810154604080513381526020810188905280820192909252517f5e5c09d98280e274b712c7e0c10c72c56d685db96c13f761d0259ea0fb1e4d6f9181900360600190a1600193505050506001600755919050565b6000600260075403610abb5760405162461bcd60e51b81526004016107f39061341d565b600260075560008281526013602090815260408083203380855260189093529220805490916101009091046001600160a01b031614610af957600080fd5b815461010090046001600160a01b03163314610b1457600080fd5b6000825460ff166003811115610b2c57610b2c613010565b14610b3657600080fd5b600182015460028301546040516323b872dd60e01b81526001600160a01b03909216916323b872dd91610b6f9130913391600401613454565b600060405180830381600087803b158015610b8957600080fd5b505af1158015610b9d573d6000803e3d6000fd5b505050600085815260136020908152604080832080546001600160a81b03191681556001810180546001600160a01b0319169055600280820185905560038201859055600490910193909355855460ff1916909217855581513381529081018790527fd5a72ef9a771fa194c21aa74cf85acd0c36822446487685b0dd5ac3215e545c592500160405180910390a16001925050506001600755919050565b6108948383836040518060200160405280600081525061197a565b6040805160c081018252600080825260208201819052918101829052606081018290526080810182905260a0810191909152610c91826126c4565b1515600114610c9f57600080fd5b60008281526013602052604090819020815160c0810190925280549091908290829060ff166003811115610cd557610cd5613010565b6003811115610ce657610ce6613010565b815281546001600160a01b03610100909104811660208301526001830154166040820152600282015460608201526003820154608082015260049091015460a0909101529392505050565b33600081815260186020526040812080549192909161010090046001600160a01b03169003610d5f57600080fd5b6040805160c08101825260018152336020808301829052428385015260006060840181905260808401889052918252601581528382208054855181840281018401909652808652929460a08501939092830182828015610de857602002820191906000526020600020905b81546001600160a01b03168152600190910190602001808311610dca575b505050919092525050336000908152601860205260409020815181549293508392829060ff191660018381811115610e2257610e22613010565b0217905550602082015181546001600160a01b0390911661010002610100600160a81b0319909116178155604082015160018201556060820151600282015560808201516003820190610e7590826134c6565b5060a08201518051610e91916004840191602090910190612e1d565b5050601080546001810182556000919091527f1b6847dc741a1b0cd08d278845f9d819d87b734759afb55fe2de5cb82a9ae6720180546001600160a01b031916339081179091556040517f9954bce02f72fbdef0fa668ac6f42e434b5829615dac2fb22448054d2359d4f69250610f0a91908790613586565b60405180910390a15060019392505050565b600260075403610f3e5760405162461bcd60e51b81526004016107f39061341d565b600260075560008281526014602052604081208391815460ff166003811115610f6957610f69613010565b14158015610f8d57506002815460ff166003811115610f8a57610f8a613010565b14155b610f9657600080fd5b80600301544211610fa657600080fd5b8054600360ff19909116178155336000818152601860205260409020805490916101009091046001600160a01b031614610fdf57600080fd5b600085815260146020526040902060028101544210801590611005575080600301544211155b61100e57600080fd5b8060050154851161101e57600080fd5b8060070154851161102e57600080fd5b6000815460ff16600381111561104657611046613010565b1461105057600080fd5b805461010090046001600160a01b0316330361106b57600080fd5b8460000361107857600080fd5b600e546040516323b872dd60e01b81526001600160a01b03909116906323b872dd906110ac90339030908a90600401613454565b6020604051808303816000875af11580156110cb573d6000803e3d6000fd5b505050506040513d601f19601f820116820180604052508101906110ef91906135aa565b50600086815260166020908152604080832033808552908352928190208890556006840180546001600160a01b031916841790556007840188905580519283529082018790527ff4757a49b326036464bec6fe419a4ae38c8a02ce3e68bf0809674f6aab8ad300910160405180910390a15050600160075550505050565b6000818152600260205260408120546001600160a01b0316806106c05760405162461bcd60e51b8152602060048201526018602482015277115490cdcc8c4e881a5b9d985b1a59081d1bdad95b88125160421b60448201526064016107f3565b6001600160a01b038181166000908152601860205260409020600f546060921633146111f857600080fd5b6001815460ff16600181111561121057611210613010565b0361124157805460ff1916905550506040805180820190915260088152671d995c9a599a595960c21b602082015290565b6000815460ff16600181111561125957611259613010565b0361128f57805460ff19166001179055505060408051808201909152600a8152691d5b9d995c9a599a595960b21b602082015290565b50919050565b60006001600160a01b0382166112ff5760405162461bcd60e51b815260206004820152602960248201527f4552433732313a2061646472657373207a65726f206973206e6f7420612076616044820152683634b21037bbb732b960b91b60648201526084016107f3565b506001600160a01b031660009081526003602052604090205490565b600060026007540361133f5760405162461bcd60e51b81526004016107f39061341d565b6002600755600084815260136020908152604080832033808552601890935281842081546001600160a01b03610100918290048116875293909520815492959194909391909204161461139157600080fd5b825461010090046001600160a01b031633036113ac57600080fd5b6000835460ff1660038111156113c4576113c4613010565b146113ce57600080fd5b600e54336001600160a01b03909116036113e757600080fd5b8254600e546001600160a01b03610100909204821691160361140857600080fd5b8460000361141557600080fd5b600060646114248760026135dd565b61142e9190613612565b9050600061143c8288613626565b60018601546002870154919250611461916001600160a01b03909116908a908a612711565b80836002016000828254611475919061363d565b9250508190555081600a600082825461148e919061363d565b9091555050845460ff19166001178555600285015460408051338152602081018a9052908101919091527fa9a40dec7a304e5915d11358b968c1e8d365992abf20f82285d1df1b30c8e24c9060600160405180910390a160019550505050505060016007559392505050565b600060026007540361151e5760405162461bcd60e51b81526004016107f39061341d565b60026007819055600083815260146020908152604080832080546001600160a01b0361010082041685526018909352922091929060ff16600381111561156657611566613010565b0361157057600080fd5b8160030154421161158057600080fd5b815461010090046001600160a01b0316331461159b57600080fd5b6007820154600060646115af8360026135dd565b6115b99190613612565b905060006115c78284613626565b9050808460020160008282546115dd919061363d565b9250508190555081600a60008282546115f6919061363d565b909155505060408051338152602081018390527f84eeb14ffee257d43f78e7777c1d13bedfcd09ab4c0b02fc7ef86fc1b2a48278910160405180910390a16001955050505050506001600755919050565b33600081815260186020526040902080546060926101009091046001600160a01b03161461167457600080fd5b6003810161168284826134c6565b5050919050565b60008181526013602052604090206002810154606091906116a990611b27565b9392505050565b6060600180546106d59061339b565b60006002600754036116e35760405162461bcd60e51b81526004016107f39061341d565b60026007556116f182612838565b15156001146116ff57600080fd5b6000828152601460205260409020805461010090046001600160a01b0316331461172857600080fd5b6000815460ff16600381111561174057611740613010565b1461174a57600080fd5b60018101546004808301546040516323b872dd60e01b81526001600160a01b03909316926323b872dd92611782923092339201613454565b600060405180830381600087803b15801561179c57600080fd5b505af11580156117b0573d6000803e3d6000fd5b5050825460ff19166002178355505060408051338152602081018590527ffb201f8e6ca6ef1f147086d898840d222fc8bd103783b0e7182d9fa3fc4e0cc8910160405180910390a160019150506001600755919050565b611812338383612885565b5050565b6060600c80548060200260200160405190810160405280929190818152602001828054801561074e57602002820191906000526020600020905b815481526020019060010190808311611850575050505050905090565b33600081815260186020526040812080549192909161010090046001600160a01b03161461189a57600080fd5b3360008181526015602090815260408220805460018101825581845291832090910180546001600160a01b0319166001600160a01b03881617905591905280546118e8916004840191612e82565b50601180546001810182556000919091527f31ecc21a745e3968a04e9570e4425bc18fa8019c68028196b546d1669c200c680180546001600160a01b0319166001600160a01b0385169081179091556040805133815260208101929092527fde026c5319b7c35f108a6ccfc922edc8008522079b610aee3c676bb7b7b7fb35910160405180910390a150600192915050565b61198433836124aa565b6119a05760405162461bcd60e51b81526004016107f3906133cf565b6119ac84848484612953565b50505050565b6001600160a01b038116600090815260186020526040812081815460ff1660018111156119e1576119e1613010565b036119ef5750600192915050565b50600092915050565b600260075403611a1a5760405162461bcd60e51b81526004016107f39061341d565b6002600790815560008281526016602090815260408083203384528252808320548584526014909252909120918201549091908203611a5857600080fd5b805461010090046001600160a01b03163303611a7357600080fd5b60068101546001600160a01b03163303611a8c57600080fd5b600e546040516323b872dd60e01b81526001600160a01b03909116906323b872dd90611ac090309033908790600401613454565b6020604051808303816000875af1158015611adf573d6000803e3d6000fd5b505050506040513d601f19601f82011682018060405250810190611b0391906135aa565b50505060009081526016602090815260408083203384529091528120556001600755565b6060611b32826123da565b60008281526006602052604081208054611b4b9061339b565b80601f0160208091040260200160405190810160405280929190818152602001828054611b779061339b565b8015611bc45780601f10611b9957610100808354040283529160200191611bc4565b820191906000526020600020905b815481529060010190602001808311611ba757829003601f168201915b505050505090506000611be260408051602081019091526000815290565b90508051600003611bf4575092915050565b815115611c26578082604051602001611c0e929190613655565b60405160208183030381529060405292505050919050565b611c2f84612986565b949350505050565b6000600260075403611c5b5760405162461bcd60e51b81526004016107f39061341d565b6002600755336000818152601860205260409020805490916101009091046001600160a01b031614611c8c57600080fd5b8060020154831015611c9d57600080fd5b82600003611caa57600080fd5b6040516323b872dd60e01b81526001600160a01b038516906323b872dd90611cda90309033908890600401613454565b6020604051808303816000875af1158015611cf9573d6000803e3d6000fd5b505050506040513d601f19601f82011682018060405250810190611d1d91906135aa565b5082816002016000828254611d329190613626565b90915550600192505050600160075592915050565b6000600260075403611d6b5760405162461bcd60e51b81526004016107f39061341d565b6002600755336000818152601860205260409020805490916101009091046001600160a01b031614611d9c57600080fd5b82600003611da957600080fd5b6040516323b872dd60e01b81526001600160a01b038616906323b872dd90611dd990339030908990600401613454565b600060405180830381600087803b158015611df357600080fd5b505af1158015611e07573d6000803e3d6000fd5b5050505060006040518060c0016040528060006003811115611e2b57611e2b613010565b8152602001336001600160a01b03168152602001876001600160a01b03168152602001868152602001858152602001428152509050611e6e600880546001019055565b6000611e7960085490565b6000818152601360205260409020835181549293508492829060ff19166001836003811115611eaa57611eaa613010565b02179055506020828101518254610100600160a81b0319166101006001600160a01b0392831602178355604080850151600180860180546001600160a01b031916928516929092179091556060808701516002870155608080880151600388015560a090970151600490960195909555600c805491820181556000527fdf6966c971051c3d54ec59162606531493a51404a002842f56009d7e5cf4a8c7018690558051338152918c16928201929092529081018990529081018790527fd9d69fee247951cc283dc6f5b64c36ce396a36146405a798b86ebfd113c8b5ca910160405180910390a160016007559695505050505050565b6060600d80548060200260200160405190810160405280929190818152602001828054801561074e5760200282019190600052602060002090815481526020019060010190808311611850575050505050905090565b600060026007540361201a5760405162461bcd60e51b81526004016107f39061341d565b6002600755336000818152601860205260409020805490916101009091046001600160a01b03161461204b57600080fd5b8260000361205857600080fd5b6040516323b872dd60e01b81526001600160a01b038716906323b872dd9061208890339030908a90600401613454565b600060405180830381600087803b1580156120a257600080fd5b505af11580156120b6573d6000803e3d6000fd5b50505050600084426120c8919061363d565b90506000604051806101200160405280600060038111156120eb576120eb613010565b815233602082018190526001600160a01b038b1660408301524260608301526080820185905260a082018a905260c0820188905260e082015261010001869052905061213b600880546001019055565b600061214660085490565b6000818152601460205260409020835181549293508492829060ff1916600183600381111561217757612177613010565b02179055506020828101518254610100600160a81b0319166101006001600160a01b039283168102919091178455604080860151600180870180546001600160a01b0319908116938716939093179055606088015160028801556080880151600388015560a0880151600488015560c0880151600588015560e08801516006880180549093169516949094179055940151600790930192909255600d805492830190557fd7b6990105719101dabeb77144f2a3385c8033acd3af97e9423a695e81ad1eb5909101839055600083815260168252828120338252909152908120819055828190525060408051338152602081018390529081018790527f430786e602a748f3e9cc9c6218c577df03b130a2ba0146f17c87c8d2686ce70c9060600160405180910390a1600160075598975050505050505050565b6000606060006002600754036122d85760405162461bcd60e51b81526004016107f39061341d565b60026007556122eb600880546001019055565b60006122f660085490565b905061230233826129f9565b61230c8186612a13565b600081815260176020526040902061232486826134c6565b50600b80546001810182556000919091527f0175b7a638427703f0dbe7bb9bbf987a2551717b34e79f33b5b1008d1fa01db9018190556040517f0c1b180fbb60448c5491c5ddc7c3a923854214b9ff70f90a7821333338971f929061238c9033908890613586565b60405180910390a1600160078190559095909350915050565b60606123b082612838565b15156001146123be57600080fd5b600082815260146020526040902060048101546116a990611b27565b6000818152600260205260409020546001600160a01b03166124395760405162461bcd60e51b8152602060048201526018602482015277115490cdcc8c4e881a5b9d985b1a59081d1bdad95b88125160421b60448201526064016107f3565b50565b600081815260046020526040902080546001600160a01b0319166001600160a01b03841690811790915581906124718261116d565b6001600160a01b03167f8c5be1e5ebec7d5bd14f71427d1e84f3dd0314c0f7b2291e5b200ac8c7c3b92560405160405180910390a45050565b6000806124b68361116d565b9050806001600160a01b0316846001600160a01b031614806124fd57506001600160a01b0380821660009081526005602090815260408083209388168352929052205460ff165b80611c2f5750836001600160a01b031661251684610758565b6001600160a01b031614949350505050565b826001600160a01b031661253b8261116d565b6001600160a01b03161461259f5760405162461bcd60e51b815260206004820152602560248201527f4552433732313a207472616e736665722066726f6d20696e636f72726563742060448201526437bbb732b960d91b60648201526084016107f3565b6001600160a01b0382166126015760405162461bcd60e51b8152602060048201526024808201527f4552433732313a207472616e7366657220746f20746865207a65726f206164646044820152637265737360e01b60648201526084016107f3565b61260c60008261243c565b6001600160a01b0383166000908152600360205260408120805460019290612635908490613626565b90915550506001600160a01b038216600090815260036020526040812080546001929061266390849061363d565b909155505060008181526002602052604080822080546001600160a01b0319166001600160a01b0386811691821790925591518493918716917fddf252ad1be2c89b69c2b068fc378daa952ba7f163c4a11628f55a4df523b3ef91a4505050565b6000805b600c548110156119ef5782600c82815481106126e6576126e6613684565b9060005260206000200154036126ff5750600192915050565b806127098161369a565b9150506126c8565b6001600160a01b03831673eeeeeeeeeeeeeeeeeeeeeeeeeeeeeeeeeeeeeeee148061275857506001600160a01b03831673eeeeeeeeeeeeeeeeeeeeeeeeeeeeeeeeeeeeeeee145b15610204576040516323b872dd60e01b81526001600160a01b038416906323b872dd9061278d90339030908690600401613454565b6020604051808303816000875af11580156127ac573d6000803e3d6000fd5b505050506040513d601f19601f820116820180604052508101906127d091906135aa565b506040516323b872dd60e01b81526001600160a01b038516906323b872dd9061280190309033908790600401613454565b600060405180830381600087803b15801561281b57600080fd5b505af115801561282f573d6000803e3d6000fd5b505050506119ac565b6000805b600d548110156119ef5782600d828154811061285a5761285a613684565b9060005260206000200154036128735750600192915050565b8061287d8161369a565b91505061283c565b816001600160a01b0316836001600160a01b0316036128e65760405162461bcd60e51b815260206004820152601960248201527f4552433732313a20617070726f766520746f2063616c6c65720000000000000060448201526064016107f3565b6001600160a01b03838116600081815260056020908152604080832094871680845294825291829020805460ff191686151590811790915591519182527f17307eab39ab6107e8899845ad3d59bd9653f200f220920489ca2b5937696c31910160405180910390a3505050565b61295e848484612528565b61296a84848484612aa6565b6119ac5760405162461bcd60e51b81526004016107f3906136b3565b6060612991826123da565b60006129a860408051602081019091526000815290565b905060008151116129c857604051806020016040528060008152506116a9565b806129d284612ba7565b6040516020016129e3929190613655565b6040516020818303038152906040529392505050565b611812828260405180602001604052806000815250612ca8565b6000828152600260205260409020546001600160a01b0316612a8e5760405162461bcd60e51b815260206004820152602e60248201527f45524337323155524953746f726167653a2055524920736574206f66206e6f6e60448201526d32bc34b9ba32b73a103a37b5b2b760911b60648201526084016107f3565b600082815260066020526040902061089482826134c6565b60006001600160a01b0384163b15612b9c57604051630a85bd0160e11b81526001600160a01b0385169063150b7a0290612aea903390899088908890600401613705565b6020604051808303816000875af1925050508015612b25575060408051601f3d908101601f19168201909252612b2291810190613742565b60015b612b82573d808015612b53576040519150601f19603f3d011682016040523d82523d6000602084013e612b58565b606091505b508051600003612b7a5760405162461bcd60e51b81526004016107f3906136b3565b805181602001fd5b6001600160e01b031916630a85bd0160e11b149050611c2f565b506001949350505050565b606081600003612bce5750506040805180820190915260018152600360fc1b602082015290565b8160005b8115612bf85780612be28161369a565b9150612bf19050600a83613612565b9150612bd2565b60008167ffffffffffffffff811115612c1357612c13613095565b6040519080825280601f01601f191660200182016040528015612c3d576020820181803683370190505b5090505b8415611c2f57612c52600183613626565b9150612c5f600a8661375f565b612c6a90603061363d565b60f81b818381518110612c7f57612c7f613684565b60200101906001600160f81b031916908160001a905350612ca1600a86613612565b9450612c41565b612cb28383612cdb565b612cbf6000848484612aa6565b6108945760405162461bcd60e51b81526004016107f3906136b3565b6001600160a01b038216612d315760405162461bcd60e51b815260206004820181905260248201527f4552433732313a206d696e7420746f20746865207a65726f206164647265737360448201526064016107f3565b6000818152600260205260409020546001600160a01b031615612d965760405162461bcd60e51b815260206004820152601c60248201527f4552433732313a20746f6b656e20616c7265616479206d696e7465640000000060448201526064016107f3565b6001600160a01b0382166000908152600360205260408120805460019290612dbf90849061363d565b909155505060008181526002602052604080822080546001600160a01b0319166001600160a01b03861690811790915590518392907fddf252ad1be2c89b69c2b068fc378daa952ba7f163c4a11628f55a4df523b3ef908290a45050565b828054828255906000526020600020908101928215612e72579160200282015b82811115612e7257825182546001600160a01b0319166001600160a01b03909116178255602090920191600190910190612e3d565b50612e7e929150612ec2565b5090565b828054828255906000526020600020908101928215612e725760005260206000209182015b82811115612e72578254825591600101919060010190612ea7565b5b80821115612e7e5760008155600101612ec3565b6001600160e01b03198116811461243957600080fd5b600060208284031215612eff57600080fd5b81356116a981612ed7565b60005b83811015612f25578181015183820152602001612f0d565b838111156119ac5750506000910152565b60008151808452612f4e816020860160208601612f0a565b601f01601f19169290920160200192915050565b6020815260006116a96020830184612f36565b600060208284031215612f8757600080fd5b5035919050565b80356001600160a01b0381168114612fa557600080fd5b919050565b60008060408385031215612fbd57600080fd5b612fc683612f8e565b946020939093013593505050565b600080600060608486031215612fe957600080fd5b612ff284612f8e565b925061300060208501612f8e565b9150604084013590509250925092565b634e487b7160e01b600052602160045260246000fd5b815160c08201906004811061304b57634e487b7160e01b600052602160045260246000fd5b80835250602083015160018060a01b0380821660208501528060408601511660408501525050606083015160608301526080830151608083015260a083015160a083015292915050565b634e487b7160e01b600052604160045260246000fd5b600067ffffffffffffffff808411156130c6576130c6613095565b604051601f8501601f19908116603f011681019082821181831017156130ee576130ee613095565b8160405280935085815286868601111561310757600080fd5b858560208301376000602087830101525050509392505050565b60006020828403121561313357600080fd5b813567ffffffffffffffff81111561314a57600080fd5b8201601f8101841361315b57600080fd5b611c2f848235602084016130ab565b6000806040838503121561317d57600080fd5b50508035926020909101359150565b60006020828403121561319e57600080fd5b6116a982612f8e565b6000806000606084860312156131bc57600080fd5b8335925061300060208501612f8e565b801515811461243957600080fd5b600080604083850312156131ed57600080fd5b6131f683612f8e565b91506020830135613206816131cc565b809150509250929050565b6020808252825182820181905260009190848201906040850190845b818110156132495783518352928401929184019160010161322d565b50909695505050505050565b6000806000806080858703121561326b57600080fd5b61327485612f8e565b935061328260208601612f8e565b925060408501359150606085013567ffffffffffffffff8111156132a557600080fd5b8501601f810187136132b657600080fd5b6132c5878235602084016130ab565b91505092959194509250565b6000806000606084860312156132e657600080fd5b6132ef84612f8e565b95602085013595506040909401359392505050565b6000806000806080858703121561331a57600080fd5b61332385612f8e565b966020860135965060408601359560600135945092505050565b8381526060602082015260006133566060830185612f36565b90508215156040830152949350505050565b6000806040838503121561337b57600080fd5b61338483612f8e565b915061339260208401612f8e565b90509250929050565b600181811c908216806133af57607f821691505b60208210810361128f57634e487b7160e01b600052602260045260246000fd5b6020808252602e908201527f4552433732313a2063616c6c6572206973206e6f7420746f6b656e206f776e6560408201526d1c881b9bdc88185c1c1c9bdd995960921b606082015260800190565b6020808252601f908201527f5265656e7472616e637947756172643a207265656e7472616e742063616c6c00604082015260600190565b6001600160a01b039384168152919092166020820152604081019190915260600190565b601f82111561089457600081815260208120601f850160051c8101602086101561349f5750805b601f850160051c820191505b818110156134be578281556001016134ab565b505050505050565b815167ffffffffffffffff8111156134e0576134e0613095565b6134f4816134ee845461339b565b84613478565b602080601f83116001811461352957600084156135115750858301515b600019600386901b1c1916600185901b1785556134be565b600085815260208120601f198616915b8281101561355857888601518255948401946001909101908401613539565b50858210156135765787850151600019600388901b60f8161c191681555b5050505050600190811b01905550565b6001600160a01b0383168152604060208201819052600090611c2f90830184612f36565b6000602082840312156135bc57600080fd5b81516116a9816131cc565b634e487b7160e01b600052601160045260246000fd5b60008160001904831182151516156135f7576135f76135c7565b500290565b634e487b7160e01b600052601260045260246000fd5b600082613621576136216135fc565b500490565b600082821015613638576136386135c7565b500390565b60008219821115613650576136506135c7565b500190565b60008351613667818460208801612f0a565b83519083019061367b818360208801612f0a565b01949350505050565b634e487b7160e01b600052603260045260246000fd5b6000600182016136ac576136ac6135c7565b5060010190565b60208082526032908201527f4552433732313a207472616e7366657220746f206e6f6e20455243373231526560408201527131b2b4bb32b91034b6b83632b6b2b73a32b960711b606082015260800190565b6001600160a01b038581168252841660208201526040810183905260806060820181905260009061373890830184612f36565b9695505050505050565b60006020828403121561375457600080fd5b81516116a981612ed7565b60008261376e5761376e6135fc565b50069056fea26469706673582212201f8553858fcd4e8bd78bd13d0c53b87b18bf795b961f43bc8070fd19b5ad8ffe64736f6c634300080f0033",
    "sourcePath": "c:/Users/Nobert Jakpor/Desktop/NftMarketplace (Frontend)/SmartContracts/MarketPlace.sol",
    "compiler": {
        "name": "solc",
        "version": "0.8.15+commit.e14f2714"
    },
    "functionHashes": {
        "MAX_PER_MINT()": "09d42b30",
        "add_collection(address)": "b2e5e309",
        "approve(address,uint256)": "095ea7b3",
        "balanceOf(address)": "70a08231",
        "bid(uint256,uint256)": "598647f8",
        "buyNft(uint256,address,uint256)": "75e23485",
        "cancelAuction(uint256)": "96b5a755",
        "cancelListing(uint256)": "305a67a8",
        "claimHighestBid(uint256)": "8052427a",
        "claimNft(uint256)": "2ec09d39",
        "createUser(string)": "507ffba5",
        "editUser(string)": "81754494",
        "getAllAuctions()": "cbd2bdfd",
        "getAllListings()": "ae73ccec",
        "getApproved(uint256)": "081812fc",
        "getAuctionedTokenUri(uint256)": "fd57251a",
        "getListingById(uint256)": "4f85310f",
        "getTokenUri(uint256)": "8ad91345",
        "isApprovedForAll(address,address)": "e985e9c5",
        "isVerified(address)": "b9209e33",
        "listNft(address,uint256,uint256)": "c922b17c",
        "mintNft(string)": "da86f4a9",
        "name()": "06fdde03",
        "ownerOf(uint256)": "6352211e",
        "placeAuction(address,uint256,uint256,uint256)": "d41cffe8",
        "safeTransferFrom(address,address,uint256)": "42842e0e",
        "safeTransferFrom(address,address,uint256,bytes)": "b88d4fde",
        "setApprovalForAll(address,bool)": "a22cb465",
        "supportsInterface(bytes4)": "01ffc9a7",
        "symbol()": "95d89b41",
        "tokenURI(uint256)": "c87b56dd",
        "transferFrom(address,address,uint256)": "23b872dd",
        "verifiyUser(address)": "65aeaea7",
        "withdrawEarnings(address,uint256)": "c9211c82",
        "withdrawUnderBid(uint256)": "bc53cade"
    },
    "gasEstimates": {
        "creation": {
            "codeDepositCost": "2849800",
            "executionCost": "infinite",
            "totalCost": "infinite"
        },
        "external": {
            "MAX_PER_MINT()": "2341",
            "add_collection(address)": "infinite",
            "approve(address,uint256)": "infinite",
            "balanceOf(address)": "2678",
            "bid(uint256,uint256)": "68289",
            "buyNft(uint256,address,uint256)": "infinite",
            "cancelAuction(uint256)": "infinite",
            "cancelListing(uint256)": "infinite",
            "claimHighestBid(uint256)": "infinite",
            "claimNft(uint256)": "infinite",
            "createUser(string)": "infinite",
            "editUser(string)": "infinite",
            "getAllAuctions()": "infinite",
            "getAllListings()": "infinite",
            "getApproved(uint256)": "4815",
            "getAuctionedTokenUri(uint256)": "infinite",
            "getListingById(uint256)": "infinite",
            "getTokenUri(uint256)": "infinite",
            "isApprovedForAll(address,address)": "infinite",
            "isVerified(address)": "2747",
            "listNft(address,uint256,uint256)": "infinite",
            "mintNft(string)": "infinite",
            "name()": "infinite",
            "ownerOf(uint256)": "2583",
            "placeAuction(address,uint256,uint256,uint256)": "infinite",
            "safeTransferFrom(address,address,uint256)": "infinite",
            "safeTransferFrom(address,address,uint256,bytes)": "infinite",
            "setApprovalForAll(address,bool)": "26757",
            "supportsInterface(bytes4)": "557",
            "symbol()": "infinite",
            "tokenURI(uint256)": "infinite",
            "transferFrom(address,address,uint256)": "infinite",
            "verifiyUser(address)": "infinite",
            "withdrawEarnings(address,uint256)": "infinite",
            "withdrawUnderBid(uint256)": "infinite"
        },
        "internal": {
            "auction_exists(uint256)": "infinite",
            "listing_exists(uint256)": "infinite"
        }
    }
}