{
    "contractName": "HavenMarketPlace",
    "abi": [
        {
            "inputs": [
                {
                    "internalType": "string",
                    "name": "name",
                    "type": "string"
                },
                {
                    "internalType": "string",
                    "name": "symbol",
                    "type": "string"
                }
            ],
            "stateMutability": "payable",
            "type": "constructor"
        },
        {
            "anonymous": false,
            "inputs": [
                {
                    "indexed": true,
                    "internalType": "address",
                    "name": "owner",
                    "type": "address"
                },
                {
                    "indexed": true,
                    "internalType": "address",
                    "name": "approved",
                    "type": "address"
                },
                {
                    "indexed": true,
                    "internalType": "uint256",
                    "name": "tokenId",
                    "type": "uint256"
                }
            ],
            "name": "Approval",
            "type": "event"
        },
        {
            "anonymous": false,
            "inputs": [
                {
                    "indexed": true,
                    "internalType": "address",
                    "name": "owner",
                    "type": "address"
                },
                {
                    "indexed": true,
                    "internalType": "address",
                    "name": "operator",
                    "type": "address"
                },
                {
                    "indexed": false,
                    "internalType": "bool",
                    "name": "approved",
                    "type": "bool"
                }
            ],
            "name": "ApprovalForAll",
            "type": "event"
        },
        {
            "anonymous": false,
            "inputs": [
                {
                    "indexed": false,
                    "internalType": "address",
                    "name": "newToken",
                    "type": "address"
                },
                {
                    "indexed": false,
                    "internalType": "uint256",
                    "name": "id",
                    "type": "uint256"
                },
                {
                    "indexed": false,
                    "internalType": "uint256",
                    "name": "startPrice",
                    "type": "uint256"
                }
            ],
            "name": "Auctioned",
            "type": "event"
        },
        {
            "anonymous": false,
            "inputs": [
                {
                    "indexed": false,
                    "internalType": "address",
                    "name": "buyer",
                    "type": "address"
                },
                {
                    "indexed": false,
                    "internalType": "uint256",
                    "name": "price",
                    "type": "uint256"
                },
                {
                    "indexed": false,
                    "internalType": "uint256",
                    "name": "id",
                    "type": "uint256"
                }
            ],
            "name": "Bought",
            "type": "event"
        },
        {
            "anonymous": false,
            "inputs": [
                {
                    "indexed": false,
                    "internalType": "address",
                    "name": "user",
                    "type": "address"
                },
                {
                    "indexed": false,
                    "internalType": "address",
                    "name": "collectionadd",
                    "type": "address"
                }
            ],
            "name": "CollectionAdded",
            "type": "event"
        },
        {
            "anonymous": false,
            "inputs": [
                {
                    "indexed": false,
                    "internalType": "address",
                    "name": "bidder",
                    "type": "address"
                },
                {
                    "indexed": false,
                    "internalType": "uint256",
                    "name": "amount",
                    "type": "uint256"
                }
            ],
            "name": "HighestBidIncreased",
            "type": "event"
        },
        {
            "anonymous": false,
            "inputs": [
                {
                    "indexed": false,
                    "internalType": "address",
                    "name": "seller",
                    "type": "address"
                },
                {
                    "indexed": false,
                    "internalType": "address",
                    "name": "newToken",
                    "type": "address"
                },
                {
                    "indexed": false,
                    "internalType": "uint256",
                    "name": "id",
                    "type": "uint256"
                },
                {
                    "indexed": false,
                    "internalType": "uint256",
                    "name": "price",
                    "type": "uint256"
                }
            ],
            "name": "Listed",
            "type": "event"
        },
        {
            "anonymous": false,
            "inputs": [
                {
                    "indexed": false,
                    "internalType": "address",
                    "name": "add",
                    "type": "address"
                },
                {
                    "indexed": false,
                    "internalType": "string",
                    "name": "uri",
                    "type": "string"
                }
            ],
            "name": "Minted",
            "type": "event"
        },
        {
            "anonymous": false,
            "inputs": [
                {
                    "indexed": true,
                    "internalType": "address",
                    "name": "from",
                    "type": "address"
                },
                {
                    "indexed": true,
                    "internalType": "address",
                    "name": "to",
                    "type": "address"
                },
                {
                    "indexed": true,
                    "internalType": "uint256",
                    "name": "tokenId",
                    "type": "uint256"
                }
            ],
            "name": "Transfer",
            "type": "event"
        },
        {
            "anonymous": false,
            "inputs": [
                {
                    "indexed": false,
                    "internalType": "address",
                    "name": "user",
                    "type": "address"
                },
                {
                    "indexed": false,
                    "internalType": "string",
                    "name": "useruri",
                    "type": "string"
                }
            ],
            "name": "UserCreated",
            "type": "event"
        },
        {
            "anonymous": false,
            "inputs": [
                {
                    "indexed": false,
                    "internalType": "address",
                    "name": "owner",
                    "type": "address"
                },
                {
                    "indexed": false,
                    "internalType": "uint256",
                    "name": "id",
                    "type": "uint256"
                }
            ],
            "name": "auctionCanceled",
            "type": "event"
        },
        {
            "anonymous": false,
            "inputs": [
                {
                    "indexed": false,
                    "internalType": "address",
                    "name": "buyer",
                    "type": "address"
                },
                {
                    "indexed": false,
                    "internalType": "uint256",
                    "name": "id",
                    "type": "uint256"
                },
                {
                    "indexed": false,
                    "internalType": "uint256",
                    "name": "sellingPrice",
                    "type": "uint256"
                }
            ],
            "name": "auctionSold",
            "type": "event"
        },
        {
            "anonymous": false,
            "inputs": [
                {
                    "indexed": false,
                    "internalType": "address",
                    "name": "owner",
                    "type": "address"
                },
                {
                    "indexed": false,
                    "internalType": "uint256",
                    "name": "id",
                    "type": "uint256"
                }
            ],
            "name": "deListed",
            "type": "event"
        },
        {
            "anonymous": false,
            "inputs": [
                {
                    "indexed": false,
                    "internalType": "address",
                    "name": "owner",
                    "type": "address"
                },
                {
                    "indexed": false,
                    "internalType": "uint256",
                    "name": "id",
                    "type": "uint256"
                },
                {
                    "indexed": false,
                    "internalType": "uint256",
                    "name": "startPrice",
                    "type": "uint256"
                }
            ],
            "name": "itemAuctioned",
            "type": "event"
        },
        {
            "anonymous": false,
            "inputs": [
                {
                    "indexed": false,
                    "internalType": "address",
                    "name": "owner",
                    "type": "address"
                },
                {
                    "indexed": false,
                    "internalType": "uint256",
                    "name": "amount",
                    "type": "uint256"
                }
            ],
            "name": "withdrawnFunds",
            "type": "event"
        },
        {
            "inputs": [],
            "name": "MAX_PER_MINT",
            "outputs": [
                {
                    "internalType": "uint256",
                    "name": "",
                    "type": "uint256"
                }
            ],
            "stateMutability": "view",
            "type": "function"
        },
        {
            "inputs": [
                {
                    "internalType": "address",
                    "name": "collectionaddress",
                    "type": "address"
                }
            ],
            "name": "add_collection",
            "outputs": [
                {
                    "internalType": "bool",
                    "name": "",
                    "type": "bool"
                }
            ],
            "stateMutability": "nonpayable",
            "type": "function"
        },
        {
            "inputs": [
                {
                    "internalType": "address",
                    "name": "to",
                    "type": "address"
                },
                {
                    "internalType": "uint256",
                    "name": "tokenId",
                    "type": "uint256"
                }
            ],
            "name": "approve",
            "outputs": [],
            "stateMutability": "nonpayable",
            "type": "function"
        },
        {
            "inputs": [
                {
                    "internalType": "address",
                    "name": "owner",
                    "type": "address"
                }
            ],
            "name": "balanceOf",
            "outputs": [
                {
                    "internalType": "uint256",
                    "name": "",
                    "type": "uint256"
                }
            ],
            "stateMutability": "view",
            "type": "function"
        },
        {
            "inputs": [
                {
                    "internalType": "uint256",
                    "name": "aId",
                    "type": "uint256"
                },
                {
                    "internalType": "uint256",
                    "name": "amount",
                    "type": "uint256"
                }
            ],
            "name": "bid",
            "outputs": [],
            "stateMutability": "payable",
            "type": "function"
        },
        {
            "inputs": [
                {
                    "internalType": "uint256",
                    "name": "listingId_",
                    "type": "uint256"
                },
                {
                    "internalType": "address",
                    "name": "currency",
                    "type": "address"
                },
                {
                    "internalType": "uint256",
                    "name": "amount",
                    "type": "uint256"
                }
            ],
            "name": "buyNft",
            "outputs": [
                {
                    "internalType": "bool",
                    "name": "",
                    "type": "bool"
                }
            ],
            "stateMutability": "payable",
            "type": "function"
        },
        {
            "inputs": [
                {
                    "internalType": "uint256",
                    "name": "aId",
                    "type": "uint256"
                }
            ],
            "name": "cancelAuction",
            "outputs": [
                {
                    "internalType": "bool",
                    "name": "",
                    "type": "bool"
                }
            ],
            "stateMutability": "nonpayable",
            "type": "function"
        },
        {
            "inputs": [
                {
                    "internalType": "uint256",
                    "name": "lId",
                    "type": "uint256"
                }
            ],
            "name": "cancelListing",
            "outputs": [
                {
                    "internalType": "bool",
                    "name": "",
                    "type": "bool"
                }
            ],
            "stateMutability": "payable",
            "type": "function"
        },
        {
            "inputs": [
                {
                    "internalType": "uint256",
                    "name": "aId",
                    "type": "uint256"
                }
            ],
            "name": "claimNft",
            "outputs": [
                {
                    "internalType": "bool",
                    "name": "",
                    "type": "bool"
                }
            ],
            "stateMutability": "payable",
            "type": "function"
        },
        {
            "inputs": [
                {
                    "internalType": "string",
                    "name": "useruri_",
                    "type": "string"
                }
            ],
            "name": "createUser",
            "outputs": [
                {
                    "internalType": "bool",
                    "name": "",
                    "type": "bool"
                }
            ],
            "stateMutability": "nonpayable",
            "type": "function"
        },
        {
            "inputs": [
                {
                    "internalType": "string",
                    "name": "useruri_",
                    "type": "string"
                }
            ],
            "name": "editUser",
            "outputs": [
                {
                    "internalType": "string",
                    "name": "",
                    "type": "string"
                }
            ],
            "stateMutability": "nonpayable",
            "type": "function"
        },
        {
            "inputs": [],
            "name": "getAllAuctions",
            "outputs": [
                {
                    "internalType": "uint256[]",
                    "name": "",
                    "type": "uint256[]"
                }
            ],
            "stateMutability": "view",
            "type": "function"
        },
        {
            "inputs": [],
            "name": "getAllListings",
            "outputs": [
                {
                    "internalType": "uint256[]",
                    "name": "",
                    "type": "uint256[]"
                }
            ],
            "stateMutability": "view",
            "type": "function"
        },
        {
            "inputs": [
                {
                    "internalType": "uint256",
                    "name": "tokenId",
                    "type": "uint256"
                }
            ],
            "name": "getApproved",
            "outputs": [
                {
                    "internalType": "address",
                    "name": "",
                    "type": "address"
                }
            ],
            "stateMutability": "view",
            "type": "function"
        },
        {
            "inputs": [
                {
                    "internalType": "uint256",
                    "name": "aId",
                    "type": "uint256"
                }
            ],
            "name": "getAuctionedTokenUri",
            "outputs": [
                {
                    "internalType": "string",
                    "name": "",
                    "type": "string"
                }
            ],
            "stateMutability": "view",
            "type": "function"
        },
        {
            "inputs": [
                {
                    "internalType": "uint256",
                    "name": "lId",
                    "type": "uint256"
                }
            ],
            "name": "getListingById",
            "outputs": [
                {
                    "components": [
                        {
                            "internalType": "enum HavenMarketPlace.status",
                            "name": "status",
                            "type": "uint8"
                        },
                        {
                            "internalType": "address",
                            "name": "seller",
                            "type": "address"
                        },
                        {
                            "internalType": "address",
                            "name": "nftContract",
                            "type": "address"
                        },
                        {
                            "internalType": "uint256",
                            "name": "tokenId",
                            "type": "uint256"
                        }
                    ],
                    "internalType": "struct HavenMarketPlace.Listing",
                    "name": "",
                    "type": "tuple"
                }
            ],
            "stateMutability": "view",
            "type": "function"
        },
        {
            "inputs": [
                {
                    "internalType": "uint256",
                    "name": "lId",
                    "type": "uint256"
                }
            ],
            "name": "getTokenUri",
            "outputs": [
                {
                    "internalType": "string",
                    "name": "",
                    "type": "string"
                }
            ],
            "stateMutability": "view",
            "type": "function"
        },
        {
            "inputs": [
                {
                    "internalType": "address",
                    "name": "owner",
                    "type": "address"
                },
                {
                    "internalType": "address",
                    "name": "operator",
                    "type": "address"
                }
            ],
            "name": "isApprovedForAll",
            "outputs": [
                {
                    "internalType": "bool",
                    "name": "",
                    "type": "bool"
                }
            ],
            "stateMutability": "view",
            "type": "function"
        },
        {
            "inputs": [
                {
                    "internalType": "address",
                    "name": "userAccount",
                    "type": "address"
                }
            ],
            "name": "isVerified",
            "outputs": [
                {
                    "internalType": "bool",
                    "name": "",
                    "type": "bool"
                }
            ],
            "stateMutability": "view",
            "type": "function"
        },
        {
            "inputs": [
                {
                    "internalType": "address",
                    "name": "collectionContract",
                    "type": "address"
                },
                {
                    "internalType": "uint256",
                    "name": "tokenid_",
                    "type": "uint256"
                },
                {
                    "internalType": "uint256",
                    "name": "amount",
                    "type": "uint256"
                }
            ],
            "name": "listNft",
            "outputs": [
                {
                    "internalType": "uint256",
                    "name": "",
                    "type": "uint256"
                }
            ],
            "stateMutability": "payable",
            "type": "function"
        },
        {
            "inputs": [
                {
                    "internalType": "string",
                    "name": "_tokenURI",
                    "type": "string"
                }
            ],
            "name": "mintNft",
            "outputs": [
                {
                    "internalType": "uint256",
                    "name": "",
                    "type": "uint256"
                },
                {
                    "internalType": "string",
                    "name": "",
                    "type": "string"
                },
                {
                    "internalType": "bool",
                    "name": "",
                    "type": "bool"
                }
            ],
            "stateMutability": "nonpayable",
            "type": "function"
        },
        {
            "inputs": [],
            "name": "name",
            "outputs": [
                {
                    "internalType": "string",
                    "name": "",
                    "type": "string"
                }
            ],
            "stateMutability": "view",
            "type": "function"
        },
        {
            "inputs": [
                {
                    "internalType": "uint256",
                    "name": "tokenId",
                    "type": "uint256"
                }
            ],
            "name": "ownerOf",
            "outputs": [
                {
                    "internalType": "address",
                    "name": "",
                    "type": "address"
                }
            ],
            "stateMutability": "view",
            "type": "function"
        },
        {
            "inputs": [
                {
                    "internalType": "address",
                    "name": "collectionContract",
                    "type": "address"
                },
                {
                    "internalType": "uint256",
                    "name": "tokenid_",
                    "type": "uint256"
                },
                {
                    "internalType": "uint256",
                    "name": "aucEndTime",
                    "type": "uint256"
                },
                {
                    "internalType": "uint256",
                    "name": "amount",
                    "type": "uint256"
                }
            ],
            "name": "placeAuction",
            "outputs": [
                {
                    "internalType": "uint256",
                    "name": "",
                    "type": "uint256"
                }
            ],
            "stateMutability": "nonpayable",
            "type": "function"
        },
        {
            "inputs": [
                {
                    "internalType": "address",
                    "name": "from",
                    "type": "address"
                },
                {
                    "internalType": "address",
                    "name": "to",
                    "type": "address"
                },
                {
                    "internalType": "uint256",
                    "name": "tokenId",
                    "type": "uint256"
                }
            ],
            "name": "safeTransferFrom",
            "outputs": [],
            "stateMutability": "nonpayable",
            "type": "function"
        },
        {
            "inputs": [
                {
                    "internalType": "address",
                    "name": "from",
                    "type": "address"
                },
                {
                    "internalType": "address",
                    "name": "to",
                    "type": "address"
                },
                {
                    "internalType": "uint256",
                    "name": "tokenId",
                    "type": "uint256"
                },
                {
                    "internalType": "bytes",
                    "name": "data",
                    "type": "bytes"
                }
            ],
            "name": "safeTransferFrom",
            "outputs": [],
            "stateMutability": "nonpayable",
            "type": "function"
        },
        {
            "inputs": [
                {
                    "internalType": "address",
                    "name": "operator",
                    "type": "address"
                },
                {
                    "internalType": "bool",
                    "name": "approved",
                    "type": "bool"
                }
            ],
            "name": "setApprovalForAll",
            "outputs": [],
            "stateMutability": "nonpayable",
            "type": "function"
        },
        {
            "inputs": [
                {
                    "internalType": "bytes4",
                    "name": "interfaceId",
                    "type": "bytes4"
                }
            ],
            "name": "supportsInterface",
            "outputs": [
                {
                    "internalType": "bool",
                    "name": "",
                    "type": "bool"
                }
            ],
            "stateMutability": "view",
            "type": "function"
        },
        {
            "inputs": [],
            "name": "symbol",
            "outputs": [
                {
                    "internalType": "string",
                    "name": "",
                    "type": "string"
                }
            ],
            "stateMutability": "view",
            "type": "function"
        },
        {
            "inputs": [
                {
                    "internalType": "uint256",
                    "name": "tokenId",
                    "type": "uint256"
                }
            ],
            "name": "tokenURI",
            "outputs": [
                {
                    "internalType": "string",
                    "name": "",
                    "type": "string"
                }
            ],
            "stateMutability": "view",
            "type": "function"
        },
        {
            "inputs": [
                {
                    "internalType": "uint256",
                    "name": "",
                    "type": "uint256"
                }
            ],
            "name": "token_owners",
            "outputs": [
                {
                    "internalType": "address",
                    "name": "",
                    "type": "address"
                }
            ],
            "stateMutability": "view",
            "type": "function"
        },
        {
            "inputs": [
                {
                    "internalType": "address",
                    "name": "from",
                    "type": "address"
                },
                {
                    "internalType": "address",
                    "name": "to",
                    "type": "address"
                },
                {
                    "internalType": "uint256",
                    "name": "tokenId",
                    "type": "uint256"
                }
            ],
            "name": "transferFrom",
            "outputs": [],
            "stateMutability": "nonpayable",
            "type": "function"
        },
        {
            "inputs": [
                {
                    "internalType": "address",
                    "name": "userAccount",
                    "type": "address"
                }
            ],
            "name": "verifiyUser",
            "outputs": [
                {
                    "internalType": "string",
                    "name": "",
                    "type": "string"
                }
            ],
            "stateMutability": "nonpayable",
            "type": "function"
        },
        {
            "inputs": [
                {
                    "internalType": "address",
                    "name": "currency",
                    "type": "address"
                }
            ],
            "name": "withdrawEarnings",
            "outputs": [
                {
                    "internalType": "bool",
                    "name": "",
                    "type": "bool"
                }
            ],
            "stateMutability": "nonpayable",
            "type": "function"
        },
        {
            "inputs": [
                {
                    "internalType": "uint256",
                    "name": "aId",
                    "type": "uint256"
                }
            ],
            "name": "withdrawHighestBid",
            "outputs": [
                {
                    "internalType": "bool",
                    "name": "",
                    "type": "bool"
                }
            ],
            "stateMutability": "payable",
            "type": "function"
        },
        {
            "inputs": [
                {
                    "internalType": "uint256",
                    "name": "aId",
                    "type": "uint256"
                }
            ],
            "name": "withdrawUnderBid",
            "outputs": [],
            "stateMutability": "payable",
            "type": "function"
        }
    ],
    "bytecode": "6080604052426009556005600c5560405162003a8d38038062003a8d8339810160408190526200002f916200013d565b818160006200003f838262000236565b5060016200004e828262000236565b505060016007555050601480546001600160a01b031916331790555062000302565b634e487b7160e01b600052604160045260246000fd5b600082601f8301126200009857600080fd5b81516001600160401b0380821115620000b557620000b562000070565b604051601f8301601f19908116603f01168101908282118183101715620000e057620000e062000070565b81604052838152602092508683858801011115620000fd57600080fd5b600091505b8382101562000121578582018301518183018401529082019062000102565b83821115620001335760008385830101525b9695505050505050565b600080604083850312156200015157600080fd5b82516001600160401b03808211156200016957600080fd5b620001778683870162000086565b935060208501519150808211156200018e57600080fd5b506200019d8582860162000086565b9150509250929050565b600181811c90821680620001bc57607f821691505b602082108103620001dd57634e487b7160e01b600052602260045260246000fd5b50919050565b601f8211156200023157600081815260208120601f850160051c810160208610156200020c5750805b601f850160051c820191505b818110156200022d5782815560010162000218565b5050505b505050565b81516001600160401b0381111562000252576200025262000070565b6200026a81620002638454620001a7565b84620001e3565b602080601f831160018114620002a25760008415620002895750858301515b600019600386901b1c1916600185901b1785556200022d565b600085815260208120601f198616915b82811015620002d357888601518255948401946001909101908401620002b2565b5085821015620002f25787850151600019600388901b60f8161c191681555b5050505050600190811b01905550565b61377b80620003126000396000f3fe60806040526004361061020f5760003560e01c80638ad9134511610118578063c87b56dd116100a0578063da86f4a91161006f578063da86f4a9146105d4578063e0e8a26014610603578063e985e9c514610623578063f52c61741461066c578063fd57251a1461067f57600080fd5b8063c87b56dd1461056c578063c922b17c1461058c578063cbd2bdfd1461059f578063d41cffe8146105b457600080fd5b8063ae73ccec116100e7578063ae73ccec146104d7578063b2e5e309146104f9578063b88d4fde14610519578063b9209e3314610539578063bc53cade1461055957600080fd5b80638ad913451461046257806395d89b411461048257806396b5a75514610497578063a22cb465146104b757600080fd5b806342842e0e1161019b5780636352211e1161016a5780636352211e146103cf57806365aeaea7146103ef57806370a082311461040f57806375e234851461042f578063817544941461044257600080fd5b806342842e0e1461034f5780634f85310f1461036f578063507ffba51461039c578063598647f8146103bc57600080fd5b806309d42b30116101e257806309d42b30146102c557806323b872dd146102e95780632ec09d3914610309578063305a67a81461031c5780633d4d8d4f1461032f57600080fd5b806301ffc9a71461021457806306fdde0314610249578063081812fc1461026b578063095ea7b3146102a3575b600080fd5b34801561022057600080fd5b5061023461022f366004612ed3565b61069f565b60405190151581526020015b60405180910390f35b34801561025557600080fd5b5061025e6106f1565b6040516102409190612f48565b34801561027757600080fd5b5061028b610286366004612f5b565b610783565b6040516001600160a01b039091168152602001610240565b3480156102af57600080fd5b506102c36102be366004612f90565b6107aa565b005b3480156102d157600080fd5b506102db600c5481565b604051908152602001610240565b3480156102f557600080fd5b506102c3610304366004612fba565b6108c4565b610234610317366004612f5b565b6108f5565b61023461032a366004612f5b565b610ac5565b34801561033b57600080fd5b5061023461034a366004612ff6565b610c71565b34801561035b57600080fd5b506102c361036a366004612fba565b610d4d565b34801561037b57600080fd5b5061038f61038a366004612f5b565b610d68565b6040516102409190613027565b3480156103a857600080fd5b506102346103b736600461310e565b610e21565b6102c36103ca366004613157565b61100c565b3480156103db57600080fd5b5061028b6103ea366004612f5b565b611274565b3480156103fb57600080fd5b5061025e61040a366004612ff6565b6112d4565b34801561041b57600080fd5b506102db61042a366004612ff6565b61139c565b61023461043d366004613179565b611422565b34801561044e57600080fd5b5061025e61045d36600461310e565b6115df565b34801561046e57600080fd5b5061025e61047d366004612f5b565b611621565b34801561048e57600080fd5b5061025e611648565b3480156104a357600080fd5b506102346104b2366004612f5b565b611657565b3480156104c357600080fd5b506102c36104d23660046131ac565b6117ab565b3480156104e357600080fd5b506104ec6117ba565b60405161024091906131e3565b34801561050557600080fd5b50610234610514366004612ff6565b611811565b34801561052557600080fd5b506102c3610534366004613227565b61191e565b34801561054557600080fd5b50610234610554366004612ff6565b611956565b6102c3610567366004612f5b565b61199c565b34801561057857600080fd5b5061025e610587366004612f5b565b611aa6565b6102db61059a3660046132a3565b611bb6565b3480156105ab57600080fd5b506104ec611d9a565b3480156105c057600080fd5b506102db6105cf3660046132d6565b611df0565b3480156105e057600080fd5b506105f46105ef36600461310e565b612075565b6040516102409392919061330f565b34801561060f57600080fd5b5061028b61061e366004612f5b565b61216a565b34801561062f57600080fd5b5061023461063e36600461333a565b6001600160a01b03918216600090815260056020908152604080832093909416825291909152205460ff1690565b61023461067a366004612f5b565b612194565b34801561068b57600080fd5b5061025e61069a366004612f5b565b61238b565b60006001600160e01b031982166380ac58cd60e01b14806106d057506001600160e01b03198216635b5e139f60e01b145b806106eb57506301ffc9a760e01b6001600160e01b03198316145b92915050565b6060600080546107009061336d565b80601f016020809104026020016040519081016040528092919081815260200182805461072c9061336d565b80156107795780601f1061074e57610100808354040283529160200191610779565b820191906000526020600020905b81548152906001019060200180831161075c57829003601f168201915b5050505050905090565b600061078e826123c0565b506000908152600460205260409020546001600160a01b031690565b60006107b582611274565b9050806001600160a01b0316836001600160a01b0316036108275760405162461bcd60e51b815260206004820152602160248201527f4552433732313a20617070726f76616c20746f2063757272656e74206f776e656044820152603960f91b60648201526084015b60405180910390fd5b336001600160a01b03821614806108435750610843813361063e565b6108b55760405162461bcd60e51b815260206004820152603e60248201527f4552433732313a20617070726f76652063616c6c6572206973206e6f7420746f60448201527f6b656e206f776e6572206e6f7220617070726f76656420666f7220616c6c0000606482015260840161081e565b6108bf8383612422565b505050565b6108ce3382612490565b6108ea5760405162461bcd60e51b815260040161081e906133a1565b6108bf83838361250e565b60006002600754036109195760405162461bcd60e51b815260040161081e906133ef565b60026007556000828152601b602052604081208391815460ff16600381111561094457610944613011565b1415801561096857506002815460ff16600381111561096557610965613011565b14155b61097157600080fd5b8060030154421161098157600080fd5b805460ff191660031781556000848152601b60205260409020601254336001600160a01b03909116146109b357600080fd5b806003015442116109c357600080fd5b805461010090046001600160a01b031633036109de57600080fd5b6002815460ff1660038111156109f6576109f6613011565b03610a0057600080fd5b60018101546012546004808401546040516323b872dd60e01b81526001600160a01b03948516946323b872dd94610a3e943094929091169201613426565b600060405180830381600087803b158015610a5857600080fd5b505af1158015610a6c573d6000803e3d6000fd5b5050600b5460408051338152602081018a905280820192909252517f5e5c09d98280e274b712c7e0c10c72c56d685db96c13f761d0259ea0fb1e4d6f9350908190036060019150a1600193505050506001600755919050565b6000600260075403610ae95760405162461bcd60e51b815260040161081e906133ef565b60026007556000828152601a6020908152604080832033808552601f9093529220805490916101009091046001600160a01b031614610b2757600080fd5b815461010090046001600160a01b03163314610b4257600080fd5b6000825460ff166003811115610b5a57610b5a613011565b14610b6457600080fd5b610b6d846126aa565b1515600114610b7b57600080fd5b600182015460028301546040516323b872dd60e01b81526001600160a01b03909216916323b872dd91610bb49130913391600401613426565b600060405180830381600087803b158015610bce57600080fd5b505af1158015610be2573d6000803e3d6000fd5b5050506000858152601a6020908152604080832080546001600160a81b03191681556001810180546001600160a01b0319169055600290810193909355855460ff1916909217855581513381529081018790527fd5a72ef9a771fa194c21aa74cf85acd0c36822446487685b0dd5ac3215e545c592500160405180910390a16001925050506001600755919050565b6000600260075403610c955760405162461bcd60e51b815260040161081e906133ef565b6002600755336000818152601f60205260409020805490916101009091046001600160a01b031614610cc657600080fd5b60028101546040516323b872dd60e01b81526001600160a01b038516916323b872dd91610cfa913091339190600401613426565b6020604051808303816000875af1158015610d19573d6000803e3d6000fd5b505050506040513d601f19601f82011682018060405250810190610d3d919061344a565b5060019150506001600755919050565b6108bf8383836040518060200160405280600081525061191e565b604080516080810182526000808252602082018190529181018290526060810191909152610d95826126aa565b1515600114610da357600080fd5b6000828152601a60205260409081902081516080810190925280549091908290829060ff166003811115610dd957610dd9613011565b6003811115610dea57610dea613011565b815281546001600160a01b036101009091048116602083015260018301541660408201526002909101546060909101529392505050565b336000818152601f6020526040812080549192909161010090046001600160a01b03169003610e4f57600080fd5b6040805160c08101825260018152336020808301829052428385015260006060840181905260808401889052918252601c81528382208054855181840281018401909652808652929460a08501939092830182828015610ed857602002820191906000526020600020905b81546001600160a01b03168152600190910190602001808311610eba575b505050919092525050336000908152601f60205260409020815181549293508392829060ff191660018381811115610f1257610f12613011565b0217905550602082015181546001600160a01b0390911661010002610100600160a81b0319909116178155604082015160018201556060820151600282015560808201516003820190610f6590826134b5565b5060a08201518051610f81916004840191602090910190612e03565b5050601580546001810182556000919091527f55f448fdea98c4d29eb340757ef0a66cd03dbb9538908a6a81d96026b71ec4750180546001600160a01b031916339081179091556040517f9954bce02f72fbdef0fa668ac6f42e434b5829615dac2fb22448054d2359d4f69250610ffa91908790613575565b60405180910390a15060019392505050565b60026007540361102e5760405162461bcd60e51b815260040161081e906133ef565b60026007556000828152601b602052604081208391815460ff16600381111561105957611059613011565b1415801561107d57506002815460ff16600381111561107a5761107a613011565b14155b61108657600080fd5b8060030154421161109657600080fd5b8054600360ff19909116178155336000818152601f60205260409020805490916101009091046001600160a01b0316146110cf57600080fd5b6110d8856126f7565b15156001146110e657600080fd5b6000858152601b602052604090206002810154600954108015906111105750806003015460095411155b61111957600080fd5b8060050154851161112957600080fd5b600b54851161113757600080fd5b6000815460ff16600381111561114f5761114f613011565b1461115957600080fd5b600b546012546001600160a01b03166000908152601d6020526040812080549091906111869084906135af565b9091555050601280546001600160a01b03191633908117909155600b8690556013546040516323b872dd60e01b81526001600160a01b0391909116916323b872dd916111d9919030908a90600401613426565b6020604051808303816000875af11580156111f8573d6000803e3d6000fd5b505050506040513d601f19601f8201168201806040525081019061121c919061344a565b50601254600b54604080516001600160a01b03909316835260208301919091527ff4757a49b326036464bec6fe419a4ae38c8a02ce3e68bf0809674f6aab8ad300910160405180910390a15050600160075550505050565b6000818152600260205260408120546001600160a01b0316806106eb5760405162461bcd60e51b8152602060048201526018602482015277115490cdcc8c4e881a5b9d985b1a59081d1bdad95b88125160421b604482015260640161081e565b6001600160a01b038181166000908152601f602052604090206014546060921633146112ff57600080fd5b6001815460ff16600181111561131757611317613011565b0361134857805460ff1916905550506040805180820190915260088152671d995c9a599a595960c21b602082015290565b6000815460ff16600181111561136057611360613011565b0361139657805460ff19166001179055505060408051808201909152600a8152691d5b9d995c9a599a595960b21b602082015290565b50919050565b60006001600160a01b0382166114065760405162461bcd60e51b815260206004820152602960248201527f4552433732313a2061646472657373207a65726f206973206e6f7420612076616044820152683634b21037bbb732b960b91b606482015260840161081e565b506001600160a01b031660009081526003602052604090205490565b60006002600754036114465760405162461bcd60e51b815260040161081e906133ef565b60026007556000848152601a6020908152604080832033808552601f9093529220805490916101009091046001600160a01b03161461148457600080fd5b815461010090046001600160a01b0316330361149f57600080fd5b6000825460ff1660038111156114b7576114b7613011565b146114c157600080fd5b601354336001600160a01b03909116036114da57600080fd5b81546013546001600160a01b0361010090920482169116036114fb57600080fd5b6000606461150a8660026135c7565b61151491906135fc565b905060006115228287613610565b60018501546002860154919250611547916001600160a01b0390911690899089612744565b8083600201600082825461155b91906135af565b9250508190555081600d600082825461157491906135af565b9091555050835460ff1916600117845560028401546040805133815260208101899052908101919091527fa9a40dec7a304e5915d11358b968c1e8d365992abf20f82285d1df1b30c8e24c9060600160405180910390a1600194505050505060016007559392505050565b336000818152601f6020526040902080546060926101009091046001600160a01b03161461160c57600080fd5b6003810161161a84826134b5565b5050919050565b6000818152601a6020526040902060028101546060919061164190611aa6565b9392505050565b6060600180546107009061336d565b600060026007540361167b5760405162461bcd60e51b815260040161081e906133ef565b6002600755611689826126f7565b151560011461169757600080fd5b6000828152601b60205260409020805461010090046001600160a01b031633146116c057600080fd5b6000815460ff1660038111156116d8576116d8613011565b146116e257600080fd5b600181015481546004808401546040516323b872dd60e01b81526001600160a01b03948516946323b872dd9461172694309461010090920490921692909101613426565b600060405180830381600087803b15801561174057600080fd5b505af1158015611754573d6000803e3d6000fd5b5050825460ff19166002178355505060408051338152602081018590527ffb201f8e6ca6ef1f147086d898840d222fc8bd103783b0e7182d9fa3fc4e0cc8910160405180910390a160019150506001600755919050565b6117b633838361286b565b5050565b6060600f80548060200260200160405190810160405280929190818152602001828054801561077957602002820191906000526020600020905b8154815260200190600101908083116117f4575050505050905090565b336000818152601f6020526040812080549192909161010090046001600160a01b03161461183e57600080fd5b336000818152601c602090815260408220805460018101825581845291832090910180546001600160a01b0319166001600160a01b038816179055919052805461188c916004840191612e68565b50601780546001810182556000919091527fc624b66cc0138b8fabc209247f72d758e1cf3343756d543badbf24212bed8c150180546001600160a01b0319166001600160a01b0385169081179091556040805133815260208101929092527fde026c5319b7c35f108a6ccfc922edc8008522079b610aee3c676bb7b7b7fb35910160405180910390a150600192915050565b6119283383612490565b6119445760405162461bcd60e51b815260040161081e906133a1565b61195084848484612939565b50505050565b6001600160a01b0381166000908152601f6020526040812081815460ff16600181111561198557611985613011565b036119935750600192915050565b50600092915050565b6002600754036119be5760405162461bcd60e51b815260040161081e906133ef565b60026007556000818152601b60205260409020805461010090046001600160a01b031633036119ec57600080fd5b6012546001600160a01b03163303611a0357600080fd5b336000818152601d6020526040908190205460135491516323b872dd60e01b815290926001600160a01b03909216916323b872dd91611a489130918690600401613426565b6020604051808303816000875af1158015611a67573d6000803e3d6000fd5b505050506040513d601f19601f82011682018060405250810190611a8b919061344a565b5050336000908152601d602052604081205550506001600755565b6060611ab1826123c0565b60008281526006602052604081208054611aca9061336d565b80601f0160208091040260200160405190810160405280929190818152602001828054611af69061336d565b8015611b435780601f10611b1857610100808354040283529160200191611b43565b820191906000526020600020905b815481529060010190602001808311611b2657829003601f168201915b505050505090506000611b6160408051602081019091526000815290565b90508051600003611b73575092915050565b815115611ba5578082604051602001611b8d929190613627565b60405160208183030381529060405292505050919050565b611bae8461296c565b949350505050565b6000600260075403611bda5760405162461bcd60e51b815260040161081e906133ef565b6002600755336000818152601f60205260409020805490916101009091046001600160a01b031614611c0b57600080fd5b60008311611c1857600080fd5b6040516323b872dd60e01b81526001600160a01b038616906323b872dd90611c4890339030908990600401613426565b600060405180830381600087803b158015611c6257600080fd5b505af1158015611c76573d6000803e3d6000fd5b505050506000604051806080016040528060006003811115611c9a57611c9a613011565b81523360208201526001600160a01b03881660408201526060018690529050611cc7600880546001019055565b6000611cd260085490565b6000818152601a60205260409020835181549293508492829060ff19166001836003811115611d0357611d03613011565b021790555060208201518154610100600160a81b0319166101006001600160a01b03928316021782556040830151600180840180546001600160a01b0319169290931691909117909155606090920151600290910155600f805480830182556000919091527f8d1108e10bcb7c27dddfc02ed9d693a074039d026cf4ea4240b40f7d581ac802018290556007559695505050505050565b6060601080548060200260200160405190810160405280929190818152602001828054801561077957602002820191906000526020600020908154815260200190600101908083116117f4575050505050905090565b6000600260075403611e145760405162461bcd60e51b815260040161081e906133ef565b6002600755336000818152601f60205260409020805490916101009091046001600160a01b031614611e4557600080fd5b60008311611e5257600080fd5b6040516323b872dd60e01b81526001600160a01b038716906323b872dd90611e8290339030908a90600401613426565b600060405180830381600087803b158015611e9c57600080fd5b505af1158015611eb0573d6000803e3d6000fd5b505050600a859055506000611ec585426135af565b905060006040518060e0016040528060006003811115611ee757611ee7613011565b81523360208201526001600160a01b038a1660408201524260608201526080810184905260a0810189905260c0018690529050611f28600880546001019055565b6000611f3360085490565b6000818152601b60205260409020835181549293508492829060ff19166001836003811115611f6457611f64613011565b021790555060208201518154610100600160a81b0319166101006001600160a01b03928316021782556040830151600180840180546001600160a01b0319169290931691909117909155606083015160028301556080830151600383015560a0830151600483015560c09092015160059091015560108054918201815560009081527f1b6847dc741a1b0cd08d278845f9d819d87b734759afb55fe2de5cb82a9ae6729091018290558281600381111561202057612020613011565b90525060408051338152602081018390529081018790527f430786e602a748f3e9cc9c6218c577df03b130a2ba0146f17c87c8d2686ce70c9060600160405180910390a1600160075598975050505050505050565b60006060600060026007540361209d5760405162461bcd60e51b815260040161081e906133ef565b60026007556120b0600880546001019055565b60006120bb60085490565b90506120c733826129df565b6120d181866129f9565b6000818152601e602052604090206120e986826134b5565b50600e80546001810182556000919091527fbb7b4a454dc3493923482f07822329ed19e8244eff582cc204f8554c3620c3fd018190556040517f0c1b180fbb60448c5491c5ddc7c3a923854214b9ff70f90a7821333338971f92906121519033908890613575565b60405180910390a1600160078190559095909350915050565b6016818154811061217a57600080fd5b6000918252602090912001546001600160a01b0316905081565b60006002600754036121b85760405162461bcd60e51b815260040161081e906133ef565b600260078190556000838152601b6020526040902090815460ff1660038111156121e4576121e4613011565b036121ee57600080fd5b806003015442116121fe57600080fd5b805461010090046001600160a01b0316331461221957600080fd5b600b546000606461222b8360026135c7565b61223591906135fc565b905060006122438284613610565b60135485546040516323b872dd60e01b81529293506001600160a01b03918216926323b872dd92612284923092610100909104909116908690600401613426565b6020604051808303816000875af11580156122a3573d6000803e3d6000fd5b505050506040513d601f19601f820116820180604052508101906122c7919061344a565b506013546040516323b872dd60e01b81526001600160a01b03909116906323b872dd906122fc90309084908790600401613426565b6020604051808303816000875af115801561231b573d6000803e3d6000fd5b505050506040513d601f19601f8201168201806040525081019061233f919061344a565b5060408051338152602081018390527f84eeb14ffee257d43f78e7777c1d13bedfcd09ab4c0b02fc7ef86fc1b2a48278910160405180910390a160019450505050506001600755919050565b6060612396826126f7565b15156001146123a457600080fd5b6000828152601b60205260409020600481015461164190611aa6565b6000818152600260205260409020546001600160a01b031661241f5760405162461bcd60e51b8152602060048201526018602482015277115490cdcc8c4e881a5b9d985b1a59081d1bdad95b88125160421b604482015260640161081e565b50565b600081815260046020526040902080546001600160a01b0319166001600160a01b038416908117909155819061245782611274565b6001600160a01b03167f8c5be1e5ebec7d5bd14f71427d1e84f3dd0314c0f7b2291e5b200ac8c7c3b92560405160405180910390a45050565b60008061249c83611274565b9050806001600160a01b0316846001600160a01b031614806124e357506001600160a01b0380821660009081526005602090815260408083209388168352929052205460ff165b80611bae5750836001600160a01b03166124fc84610783565b6001600160a01b031614949350505050565b826001600160a01b031661252182611274565b6001600160a01b0316146125855760405162461bcd60e51b815260206004820152602560248201527f4552433732313a207472616e736665722066726f6d20696e636f72726563742060448201526437bbb732b960d91b606482015260840161081e565b6001600160a01b0382166125e75760405162461bcd60e51b8152602060048201526024808201527f4552433732313a207472616e7366657220746f20746865207a65726f206164646044820152637265737360e01b606482015260840161081e565b6125f2600082612422565b6001600160a01b038316600090815260036020526040812080546001929061261b908490613610565b90915550506001600160a01b03821660009081526003602052604081208054600192906126499084906135af565b909155505060008181526002602052604080822080546001600160a01b0319166001600160a01b0386811691821790925591518493918716917fddf252ad1be2c89b69c2b068fc378daa952ba7f163c4a11628f55a4df523b3ef91a4505050565b6000805b600f548110156119935782600f82815481106126cc576126cc613656565b9060005260206000200154036126e55750600192915050565b806126ef8161366c565b9150506126ae565b6000805b60105481101561199357826010828154811061271957612719613656565b9060005260206000200154036127325750600192915050565b8061273c8161366c565b9150506126fb565b6001600160a01b03831673eeeeeeeeeeeeeeeeeeeeeeeeeeeeeeeeeeeeeeee148061278b57506001600160a01b03831673eeeeeeeeeeeeeeeeeeeeeeeeeeeeeeeeeeeeeeee145b1561020f576040516323b872dd60e01b81526001600160a01b038516906323b872dd906127c090309033908790600401613426565b600060405180830381600087803b1580156127da57600080fd5b505af11580156127ee573d6000803e3d6000fd5b50506040516323b872dd60e01b81526001600160a01b03861692506323b872dd915061282290339030908690600401613426565b6020604051808303816000875af1158015612841573d6000803e3d6000fd5b505050506040513d601f19601f82011682018060405250810190612865919061344a565b50611950565b816001600160a01b0316836001600160a01b0316036128cc5760405162461bcd60e51b815260206004820152601960248201527f4552433732313a20617070726f766520746f2063616c6c657200000000000000604482015260640161081e565b6001600160a01b03838116600081815260056020908152604080832094871680845294825291829020805460ff191686151590811790915591519182527f17307eab39ab6107e8899845ad3d59bd9653f200f220920489ca2b5937696c31910160405180910390a3505050565b61294484848461250e565b61295084848484612a8c565b6119505760405162461bcd60e51b815260040161081e90613685565b6060612977826123c0565b600061298e60408051602081019091526000815290565b905060008151116129ae5760405180602001604052806000815250611641565b806129b884612b8d565b6040516020016129c9929190613627565b6040516020818303038152906040529392505050565b6117b6828260405180602001604052806000815250612c8e565b6000828152600260205260409020546001600160a01b0316612a745760405162461bcd60e51b815260206004820152602e60248201527f45524337323155524953746f726167653a2055524920736574206f66206e6f6e60448201526d32bc34b9ba32b73a103a37b5b2b760911b606482015260840161081e565b60008281526006602052604090206108bf82826134b5565b60006001600160a01b0384163b15612b8257604051630a85bd0160e11b81526001600160a01b0385169063150b7a0290612ad09033908990889088906004016136d7565b6020604051808303816000875af1925050508015612b0b575060408051601f3d908101601f19168201909252612b0891810190613714565b60015b612b68573d808015612b39576040519150601f19603f3d011682016040523d82523d6000602084013e612b3e565b606091505b508051600003612b605760405162461bcd60e51b815260040161081e90613685565b805181602001fd5b6001600160e01b031916630a85bd0160e11b149050611bae565b506001949350505050565b606081600003612bb45750506040805180820190915260018152600360fc1b602082015290565b8160005b8115612bde5780612bc88161366c565b9150612bd79050600a836135fc565b9150612bb8565b60008167ffffffffffffffff811115612bf957612bf9613082565b6040519080825280601f01601f191660200182016040528015612c23576020820181803683370190505b5090505b8415611bae57612c38600183613610565b9150612c45600a86613731565b612c509060306135af565b60f81b818381518110612c6557612c65613656565b60200101906001600160f81b031916908160001a905350612c87600a866135fc565b9450612c27565b612c988383612cc1565b612ca56000848484612a8c565b6108bf5760405162461bcd60e51b815260040161081e90613685565b6001600160a01b038216612d175760405162461bcd60e51b815260206004820181905260248201527f4552433732313a206d696e7420746f20746865207a65726f2061646472657373604482015260640161081e565b6000818152600260205260409020546001600160a01b031615612d7c5760405162461bcd60e51b815260206004820152601c60248201527f4552433732313a20746f6b656e20616c7265616479206d696e74656400000000604482015260640161081e565b6001600160a01b0382166000908152600360205260408120805460019290612da59084906135af565b909155505060008181526002602052604080822080546001600160a01b0319166001600160a01b03861690811790915590518392907fddf252ad1be2c89b69c2b068fc378daa952ba7f163c4a11628f55a4df523b3ef908290a45050565b828054828255906000526020600020908101928215612e58579160200282015b82811115612e5857825182546001600160a01b0319166001600160a01b03909116178255602090920191600190910190612e23565b50612e64929150612ea8565b5090565b828054828255906000526020600020908101928215612e585760005260206000209182015b82811115612e58578254825591600101919060010190612e8d565b5b80821115612e645760008155600101612ea9565b6001600160e01b03198116811461241f57600080fd5b600060208284031215612ee557600080fd5b813561164181612ebd565b60005b83811015612f0b578181015183820152602001612ef3565b838111156119505750506000910152565b60008151808452612f34816020860160208601612ef0565b601f01601f19169290920160200192915050565b6020815260006116416020830184612f1c565b600060208284031215612f6d57600080fd5b5035919050565b80356001600160a01b0381168114612f8b57600080fd5b919050565b60008060408385031215612fa357600080fd5b612fac83612f74565b946020939093013593505050565b600080600060608486031215612fcf57600080fd5b612fd884612f74565b9250612fe660208501612f74565b9150604084013590509250925092565b60006020828403121561300857600080fd5b61164182612f74565b634e487b7160e01b600052602160045260246000fd5b815160808201906004811061304c57634e487b7160e01b600052602160045260246000fd5b80835250602083015160018060a01b03808216602085015280604086015116604085015250506060830151606083015292915050565b634e487b7160e01b600052604160045260246000fd5b600067ffffffffffffffff808411156130b3576130b3613082565b604051601f8501601f19908116603f011681019082821181831017156130db576130db613082565b816040528093508581528686860111156130f457600080fd5b858560208301376000602087830101525050509392505050565b60006020828403121561312057600080fd5b813567ffffffffffffffff81111561313757600080fd5b8201601f8101841361314857600080fd5b611bae84823560208401613098565b6000806040838503121561316a57600080fd5b50508035926020909101359150565b60008060006060848603121561318e57600080fd5b83359250612fe660208501612f74565b801515811461241f57600080fd5b600080604083850312156131bf57600080fd5b6131c883612f74565b915060208301356131d88161319e565b809150509250929050565b6020808252825182820181905260009190848201906040850190845b8181101561321b578351835292840192918401916001016131ff565b50909695505050505050565b6000806000806080858703121561323d57600080fd5b61324685612f74565b935061325460208601612f74565b925060408501359150606085013567ffffffffffffffff81111561327757600080fd5b8501601f8101871361328857600080fd5b61329787823560208401613098565b91505092959194509250565b6000806000606084860312156132b857600080fd5b6132c184612f74565b95602085013595506040909401359392505050565b600080600080608085870312156132ec57600080fd5b6132f585612f74565b966020860135965060408601359560600135945092505050565b8381526060602082015260006133286060830185612f1c565b90508215156040830152949350505050565b6000806040838503121561334d57600080fd5b61335683612f74565b915061336460208401612f74565b90509250929050565b600181811c9082168061338157607f821691505b60208210810361139657634e487b7160e01b600052602260045260246000fd5b6020808252602e908201527f4552433732313a2063616c6c6572206973206e6f7420746f6b656e206f776e6560408201526d1c881b9bdc88185c1c1c9bdd995960921b606082015260800190565b6020808252601f908201527f5265656e7472616e637947756172643a207265656e7472616e742063616c6c00604082015260600190565b6001600160a01b039384168152919092166020820152604081019190915260600190565b60006020828403121561345c57600080fd5b81516116418161319e565b601f8211156108bf57600081815260208120601f850160051c8101602086101561348e5750805b601f850160051c820191505b818110156134ad5782815560010161349a565b505050505050565b815167ffffffffffffffff8111156134cf576134cf613082565b6134e3816134dd845461336d565b84613467565b602080601f83116001811461351857600084156135005750858301515b600019600386901b1c1916600185901b1785556134ad565b600085815260208120601f198616915b8281101561354757888601518255948401946001909101908401613528565b50858210156135655787850151600019600388901b60f8161c191681555b5050505050600190811b01905550565b6001600160a01b0383168152604060208201819052600090611bae90830184612f1c565b634e487b7160e01b600052601160045260246000fd5b600082198211156135c2576135c2613599565b500190565b60008160001904831182151516156135e1576135e1613599565b500290565b634e487b7160e01b600052601260045260246000fd5b60008261360b5761360b6135e6565b500490565b60008282101561362257613622613599565b500390565b60008351613639818460208801612ef0565b83519083019061364d818360208801612ef0565b01949350505050565b634e487b7160e01b600052603260045260246000fd5b60006001820161367e5761367e613599565b5060010190565b60208082526032908201527f4552433732313a207472616e7366657220746f206e6f6e20455243373231526560408201527131b2b4bb32b91034b6b83632b6b2b73a32b960711b606082015260800190565b6001600160a01b038581168252841660208201526040810183905260806060820181905260009061370a90830184612f1c565b9695505050505050565b60006020828403121561372657600080fd5b815161164181612ebd565b600082613740576137406135e6565b50069056fea2646970667358221220a33165b5a00e522dab15f7d05d66619096130874efa808bfc76b8a02efbd68d164736f6c634300080f0033",
    "sourcePath": "c:/Users/Nobert Jakpor/Desktop/NftMarketplace (Frontend)/SmartContracts/MarketPlace.sol",
    "compiler": {
        "name": "solc",
        "version": "0.8.15+commit.e14f2714"
    },
    "functionHashes": {
        "MAX_PER_MINT()": "09d42b30",
        "add_collection(address)": "b2e5e309",
        "approve(address,uint256)": "095ea7b3",
        "balanceOf(address)": "70a08231",
        "bid(uint256,uint256)": "598647f8",
        "buyNft(uint256,address,uint256)": "75e23485",
        "cancelAuction(uint256)": "96b5a755",
        "cancelListing(uint256)": "305a67a8",
        "claimNft(uint256)": "2ec09d39",
        "createUser(string)": "507ffba5",
        "editUser(string)": "81754494",
        "getAllAuctions()": "cbd2bdfd",
        "getAllListings()": "ae73ccec",
        "getApproved(uint256)": "081812fc",
        "getAuctionedTokenUri(uint256)": "fd57251a",
        "getListingById(uint256)": "4f85310f",
        "getTokenUri(uint256)": "8ad91345",
        "isApprovedForAll(address,address)": "e985e9c5",
        "isVerified(address)": "b9209e33",
        "listNft(address,uint256,uint256)": "c922b17c",
        "mintNft(string)": "da86f4a9",
        "name()": "06fdde03",
        "ownerOf(uint256)": "6352211e",
        "placeAuction(address,uint256,uint256,uint256)": "d41cffe8",
        "safeTransferFrom(address,address,uint256)": "42842e0e",
        "safeTransferFrom(address,address,uint256,bytes)": "b88d4fde",
        "setApprovalForAll(address,bool)": "a22cb465",
        "supportsInterface(bytes4)": "01ffc9a7",
        "symbol()": "95d89b41",
        "tokenURI(uint256)": "c87b56dd",
        "token_owners(uint256)": "e0e8a260",
        "transferFrom(address,address,uint256)": "23b872dd",
        "verifiyUser(address)": "65aeaea7",
        "withdrawEarnings(address)": "3d4d8d4f",
        "withdrawHighestBid(uint256)": "f52c6174",
        "withdrawUnderBid(uint256)": "bc53cade"
    },
    "gasEstimates": {
        "creation": {
            "codeDepositCost": "2840600",
            "executionCost": "infinite",
            "totalCost": "infinite"
        },
        "external": {
            "MAX_PER_MINT()": "2341",
            "add_collection(address)": "infinite",
            "approve(address,uint256)": "infinite",
            "balanceOf(address)": "2678",
            "bid(uint256,uint256)": "infinite",
            "buyNft(uint256,address,uint256)": "infinite",
            "cancelAuction(uint256)": "infinite",
            "cancelListing(uint256)": "infinite",
            "claimNft(uint256)": "infinite",
            "createUser(string)": "infinite",
            "editUser(string)": "infinite",
            "getAllAuctions()": "infinite",
            "getAllListings()": "infinite",
            "getApproved(uint256)": "4815",
            "getAuctionedTokenUri(uint256)": "infinite",
            "getListingById(uint256)": "infinite",
            "getTokenUri(uint256)": "infinite",
            "isApprovedForAll(address,address)": "infinite",
            "isVerified(address)": "2725",
            "listNft(address,uint256,uint256)": "infinite",
            "mintNft(string)": "infinite",
            "name()": "infinite",
            "ownerOf(uint256)": "2583",
            "placeAuction(address,uint256,uint256,uint256)": "infinite",
            "safeTransferFrom(address,address,uint256)": "infinite",
            "safeTransferFrom(address,address,uint256,bytes)": "infinite",
            "setApprovalForAll(address,bool)": "26824",
            "supportsInterface(bytes4)": "557",
            "symbol()": "infinite",
            "tokenURI(uint256)": "infinite",
            "token_owners(uint256)": "4680",
            "transferFrom(address,address,uint256)": "infinite",
            "verifiyUser(address)": "infinite",
            "withdrawEarnings(address)": "infinite",
            "withdrawHighestBid(uint256)": "infinite",
            "withdrawUnderBid(uint256)": "infinite"
        },
        "internal": {
            "auction_exists(uint256)": "infinite",
            "listing_exists(uint256)": "infinite"
        }
    }
}