{
    "contractName": "HavenMarketPlace",
    "abi": [
        {
            "inputs": [
                {
                    "internalType": "string",
                    "name": "name",
                    "type": "string"
                },
                {
                    "internalType": "string",
                    "name": "symbol",
                    "type": "string"
                }
            ],
            "stateMutability": "payable",
            "type": "constructor"
        },
        {
            "anonymous": false,
            "inputs": [
                {
                    "indexed": true,
                    "internalType": "address",
                    "name": "owner",
                    "type": "address"
                },
                {
                    "indexed": true,
                    "internalType": "address",
                    "name": "approved",
                    "type": "address"
                },
                {
                    "indexed": true,
                    "internalType": "uint256",
                    "name": "tokenId",
                    "type": "uint256"
                }
            ],
            "name": "Approval",
            "type": "event"
        },
        {
            "anonymous": false,
            "inputs": [
                {
                    "indexed": true,
                    "internalType": "address",
                    "name": "owner",
                    "type": "address"
                },
                {
                    "indexed": true,
                    "internalType": "address",
                    "name": "operator",
                    "type": "address"
                },
                {
                    "indexed": false,
                    "internalType": "bool",
                    "name": "approved",
                    "type": "bool"
                }
            ],
            "name": "ApprovalForAll",
            "type": "event"
        },
        {
            "anonymous": false,
            "inputs": [
                {
                    "indexed": false,
                    "internalType": "address",
                    "name": "newToken",
                    "type": "address"
                },
                {
                    "indexed": false,
                    "internalType": "uint256",
                    "name": "id",
                    "type": "uint256"
                },
                {
                    "indexed": false,
                    "internalType": "uint256",
                    "name": "startPrice",
                    "type": "uint256"
                }
            ],
            "name": "Auctioned",
            "type": "event"
        },
        {
            "anonymous": false,
            "inputs": [
                {
                    "indexed": false,
                    "internalType": "address",
                    "name": "buyer",
                    "type": "address"
                },
                {
                    "indexed": false,
                    "internalType": "uint256",
                    "name": "price",
                    "type": "uint256"
                },
                {
                    "indexed": false,
                    "internalType": "uint256",
                    "name": "id",
                    "type": "uint256"
                }
            ],
            "name": "Bought",
            "type": "event"
        },
        {
            "anonymous": false,
            "inputs": [
                {
                    "indexed": false,
                    "internalType": "address",
                    "name": "user",
                    "type": "address"
                },
                {
                    "indexed": false,
                    "internalType": "address",
                    "name": "collectionadd",
                    "type": "address"
                }
            ],
            "name": "CollectionAdded",
            "type": "event"
        },
        {
            "anonymous": false,
            "inputs": [
                {
                    "indexed": false,
                    "internalType": "address",
                    "name": "bidder",
                    "type": "address"
                },
                {
                    "indexed": false,
                    "internalType": "uint256",
                    "name": "amount",
                    "type": "uint256"
                }
            ],
            "name": "HighestBidIncreased",
            "type": "event"
        },
        {
            "anonymous": false,
            "inputs": [
                {
                    "indexed": false,
                    "internalType": "address",
                    "name": "seller",
                    "type": "address"
                },
                {
                    "indexed": false,
                    "internalType": "address",
                    "name": "newToken",
                    "type": "address"
                },
                {
                    "indexed": false,
                    "internalType": "uint256",
                    "name": "id",
                    "type": "uint256"
                },
                {
                    "indexed": false,
                    "internalType": "uint256",
                    "name": "price",
                    "type": "uint256"
                }
            ],
            "name": "Listed",
            "type": "event"
        },
        {
            "anonymous": false,
            "inputs": [
                {
                    "indexed": false,
                    "internalType": "address",
                    "name": "add",
                    "type": "address"
                },
                {
                    "indexed": false,
                    "internalType": "string",
                    "name": "uri",
                    "type": "string"
                }
            ],
            "name": "Minted",
            "type": "event"
        },
        {
            "anonymous": false,
            "inputs": [
                {
                    "indexed": true,
                    "internalType": "address",
                    "name": "from",
                    "type": "address"
                },
                {
                    "indexed": true,
                    "internalType": "address",
                    "name": "to",
                    "type": "address"
                },
                {
                    "indexed": true,
                    "internalType": "uint256",
                    "name": "tokenId",
                    "type": "uint256"
                }
            ],
            "name": "Transfer",
            "type": "event"
        },
        {
            "anonymous": false,
            "inputs": [
                {
                    "indexed": false,
                    "internalType": "address",
                    "name": "user",
                    "type": "address"
                },
                {
                    "indexed": false,
                    "internalType": "string",
                    "name": "useruri",
                    "type": "string"
                }
            ],
            "name": "UserCreated",
            "type": "event"
        },
        {
            "anonymous": false,
            "inputs": [
                {
                    "indexed": false,
                    "internalType": "address",
                    "name": "owner",
                    "type": "address"
                },
                {
                    "indexed": false,
                    "internalType": "uint256",
                    "name": "id",
                    "type": "uint256"
                }
            ],
            "name": "auctionCanceled",
            "type": "event"
        },
        {
            "anonymous": false,
            "inputs": [
                {
                    "indexed": false,
                    "internalType": "address",
                    "name": "buyer",
                    "type": "address"
                },
                {
                    "indexed": false,
                    "internalType": "uint256",
                    "name": "id",
                    "type": "uint256"
                },
                {
                    "indexed": false,
                    "internalType": "uint256",
                    "name": "sellingPrice",
                    "type": "uint256"
                }
            ],
            "name": "auctionSold",
            "type": "event"
        },
        {
            "anonymous": false,
            "inputs": [
                {
                    "indexed": false,
                    "internalType": "address",
                    "name": "owner",
                    "type": "address"
                },
                {
                    "indexed": false,
                    "internalType": "uint256",
                    "name": "id",
                    "type": "uint256"
                }
            ],
            "name": "deListed",
            "type": "event"
        },
        {
            "anonymous": false,
            "inputs": [
                {
                    "indexed": false,
                    "internalType": "address",
                    "name": "owner",
                    "type": "address"
                },
                {
                    "indexed": false,
                    "internalType": "uint256",
                    "name": "id",
                    "type": "uint256"
                },
                {
                    "indexed": false,
                    "internalType": "uint256",
                    "name": "startPrice",
                    "type": "uint256"
                }
            ],
            "name": "itemAuctioned",
            "type": "event"
        },
        {
            "anonymous": false,
            "inputs": [
                {
                    "indexed": false,
                    "internalType": "address",
                    "name": "owner",
                    "type": "address"
                },
                {
                    "indexed": false,
                    "internalType": "uint256",
                    "name": "amount",
                    "type": "uint256"
                }
            ],
            "name": "withdrawnFunds",
            "type": "event"
        },
        {
            "inputs": [],
            "name": "MAX_PER_MINT",
            "outputs": [
                {
                    "internalType": "uint256",
                    "name": "",
                    "type": "uint256"
                }
            ],
            "stateMutability": "view",
            "type": "function"
        },
        {
            "inputs": [
                {
                    "internalType": "address",
                    "name": "collectionaddress",
                    "type": "address"
                }
            ],
            "name": "add_collection",
            "outputs": [
                {
                    "internalType": "bool",
                    "name": "",
                    "type": "bool"
                }
            ],
            "stateMutability": "nonpayable",
            "type": "function"
        },
        {
            "inputs": [
                {
                    "internalType": "address",
                    "name": "to",
                    "type": "address"
                },
                {
                    "internalType": "uint256",
                    "name": "tokenId",
                    "type": "uint256"
                }
            ],
            "name": "approve",
            "outputs": [],
            "stateMutability": "nonpayable",
            "type": "function"
        },
        {
            "inputs": [
                {
                    "internalType": "address",
                    "name": "owner",
                    "type": "address"
                }
            ],
            "name": "balanceOf",
            "outputs": [
                {
                    "internalType": "uint256",
                    "name": "",
                    "type": "uint256"
                }
            ],
            "stateMutability": "view",
            "type": "function"
        },
        {
            "inputs": [
                {
                    "internalType": "uint256",
                    "name": "aId",
                    "type": "uint256"
                },
                {
                    "internalType": "uint256",
                    "name": "amount",
                    "type": "uint256"
                }
            ],
            "name": "bid",
            "outputs": [],
            "stateMutability": "payable",
            "type": "function"
        },
        {
            "inputs": [
                {
                    "internalType": "uint256",
                    "name": "listingId_",
                    "type": "uint256"
                },
                {
                    "internalType": "address",
                    "name": "currency",
                    "type": "address"
                },
                {
                    "internalType": "uint256",
                    "name": "amount",
                    "type": "uint256"
                }
            ],
            "name": "buyNft",
            "outputs": [
                {
                    "internalType": "bool",
                    "name": "",
                    "type": "bool"
                }
            ],
            "stateMutability": "payable",
            "type": "function"
        },
        {
            "inputs": [
                {
                    "internalType": "uint256",
                    "name": "aId",
                    "type": "uint256"
                }
            ],
            "name": "cancelAuction",
            "outputs": [
                {
                    "internalType": "bool",
                    "name": "",
                    "type": "bool"
                }
            ],
            "stateMutability": "nonpayable",
            "type": "function"
        },
        {
            "inputs": [
                {
                    "internalType": "uint256",
                    "name": "lId",
                    "type": "uint256"
                }
            ],
            "name": "cancelListing",
            "outputs": [
                {
                    "internalType": "bool",
                    "name": "",
                    "type": "bool"
                }
            ],
            "stateMutability": "payable",
            "type": "function"
        },
        {
            "inputs": [
                {
                    "internalType": "uint256",
                    "name": "aId",
                    "type": "uint256"
                }
            ],
            "name": "claimHighestBid",
            "outputs": [
                {
                    "internalType": "bool",
                    "name": "",
                    "type": "bool"
                }
            ],
            "stateMutability": "payable",
            "type": "function"
        },
        {
            "inputs": [
                {
                    "internalType": "uint256",
                    "name": "aId",
                    "type": "uint256"
                }
            ],
            "name": "claimNft",
            "outputs": [
                {
                    "internalType": "bool",
                    "name": "",
                    "type": "bool"
                }
            ],
            "stateMutability": "payable",
            "type": "function"
        },
        {
            "inputs": [
                {
                    "internalType": "string",
                    "name": "useruri_",
                    "type": "string"
                }
            ],
            "name": "createUser",
            "outputs": [
                {
                    "internalType": "bool",
                    "name": "",
                    "type": "bool"
                }
            ],
            "stateMutability": "nonpayable",
            "type": "function"
        },
        {
            "inputs": [
                {
                    "internalType": "string",
                    "name": "useruri_",
                    "type": "string"
                }
            ],
            "name": "editUser",
            "outputs": [
                {
                    "internalType": "string",
                    "name": "",
                    "type": "string"
                }
            ],
            "stateMutability": "nonpayable",
            "type": "function"
        },
        {
            "inputs": [],
            "name": "getAllAuctions",
            "outputs": [
                {
                    "internalType": "uint256[]",
                    "name": "",
                    "type": "uint256[]"
                }
            ],
            "stateMutability": "view",
            "type": "function"
        },
        {
            "inputs": [],
            "name": "getAllListings",
            "outputs": [
                {
                    "internalType": "uint256[]",
                    "name": "",
                    "type": "uint256[]"
                }
            ],
            "stateMutability": "view",
            "type": "function"
        },
        {
            "inputs": [
                {
                    "internalType": "uint256",
                    "name": "tokenId",
                    "type": "uint256"
                }
            ],
            "name": "getApproved",
            "outputs": [
                {
                    "internalType": "address",
                    "name": "",
                    "type": "address"
                }
            ],
            "stateMutability": "view",
            "type": "function"
        },
        {
            "inputs": [
                {
                    "internalType": "uint256",
                    "name": "aId",
                    "type": "uint256"
                }
            ],
            "name": "getAuctionedTokenUri",
            "outputs": [
                {
                    "internalType": "string",
                    "name": "",
                    "type": "string"
                }
            ],
            "stateMutability": "view",
            "type": "function"
        },
        {
            "inputs": [
                {
                    "internalType": "uint256",
                    "name": "lId",
                    "type": "uint256"
                }
            ],
            "name": "getListingById",
            "outputs": [
                {
                    "components": [
                        {
                            "internalType": "enum HavenMarketPlace.status",
                            "name": "status",
                            "type": "uint8"
                        },
                        {
                            "internalType": "address",
                            "name": "seller",
                            "type": "address"
                        },
                        {
                            "internalType": "address",
                            "name": "nftContract",
                            "type": "address"
                        },
                        {
                            "internalType": "uint256",
                            "name": "tokenId",
                            "type": "uint256"
                        },
                        {
                            "internalType": "uint256",
                            "name": "price",
                            "type": "uint256"
                        },
                        {
                            "internalType": "uint256",
                            "name": "listingTime",
                            "type": "uint256"
                        }
                    ],
                    "internalType": "struct HavenMarketPlace.Listing",
                    "name": "",
                    "type": "tuple"
                }
            ],
            "stateMutability": "view",
            "type": "function"
        },
        {
            "inputs": [
                {
                    "internalType": "uint256",
                    "name": "lId",
                    "type": "uint256"
                }
            ],
            "name": "getTokenUri",
            "outputs": [
                {
                    "internalType": "string",
                    "name": "",
                    "type": "string"
                }
            ],
            "stateMutability": "view",
            "type": "function"
        },
        {
            "inputs": [
                {
                    "internalType": "address",
                    "name": "owner",
                    "type": "address"
                },
                {
                    "internalType": "address",
                    "name": "operator",
                    "type": "address"
                }
            ],
            "name": "isApprovedForAll",
            "outputs": [
                {
                    "internalType": "bool",
                    "name": "",
                    "type": "bool"
                }
            ],
            "stateMutability": "view",
            "type": "function"
        },
        {
            "inputs": [
                {
                    "internalType": "address",
                    "name": "userAccount",
                    "type": "address"
                }
            ],
            "name": "isVerified",
            "outputs": [
                {
                    "internalType": "bool",
                    "name": "",
                    "type": "bool"
                }
            ],
            "stateMutability": "view",
            "type": "function"
        },
        {
            "inputs": [
                {
                    "internalType": "address",
                    "name": "collectionContract",
                    "type": "address"
                },
                {
                    "internalType": "uint256",
                    "name": "tokenid_",
                    "type": "uint256"
                },
                {
                    "internalType": "uint256",
                    "name": "amount",
                    "type": "uint256"
                }
            ],
            "name": "listNft",
            "outputs": [
                {
                    "internalType": "uint256",
                    "name": "",
                    "type": "uint256"
                }
            ],
            "stateMutability": "payable",
            "type": "function"
        },
        {
            "inputs": [
                {
                    "internalType": "string",
                    "name": "_tokenURI",
                    "type": "string"
                }
            ],
            "name": "mintNft",
            "outputs": [
                {
                    "internalType": "uint256",
                    "name": "",
                    "type": "uint256"
                },
                {
                    "internalType": "string",
                    "name": "",
                    "type": "string"
                },
                {
                    "internalType": "bool",
                    "name": "",
                    "type": "bool"
                }
            ],
            "stateMutability": "nonpayable",
            "type": "function"
        },
        {
            "inputs": [],
            "name": "name",
            "outputs": [
                {
                    "internalType": "string",
                    "name": "",
                    "type": "string"
                }
            ],
            "stateMutability": "view",
            "type": "function"
        },
        {
            "inputs": [
                {
                    "internalType": "uint256",
                    "name": "tokenId",
                    "type": "uint256"
                }
            ],
            "name": "ownerOf",
            "outputs": [
                {
                    "internalType": "address",
                    "name": "",
                    "type": "address"
                }
            ],
            "stateMutability": "view",
            "type": "function"
        },
        {
            "inputs": [
                {
                    "internalType": "address",
                    "name": "collectionContract",
                    "type": "address"
                },
                {
                    "internalType": "uint256",
                    "name": "tokenid_",
                    "type": "uint256"
                },
                {
                    "internalType": "uint256",
                    "name": "aucEndTime",
                    "type": "uint256"
                },
                {
                    "internalType": "uint256",
                    "name": "amount",
                    "type": "uint256"
                }
            ],
            "name": "placeAuction",
            "outputs": [
                {
                    "internalType": "uint256",
                    "name": "",
                    "type": "uint256"
                }
            ],
            "stateMutability": "nonpayable",
            "type": "function"
        },
        {
            "inputs": [
                {
                    "internalType": "address",
                    "name": "from",
                    "type": "address"
                },
                {
                    "internalType": "address",
                    "name": "to",
                    "type": "address"
                },
                {
                    "internalType": "uint256",
                    "name": "tokenId",
                    "type": "uint256"
                }
            ],
            "name": "safeTransferFrom",
            "outputs": [],
            "stateMutability": "nonpayable",
            "type": "function"
        },
        {
            "inputs": [
                {
                    "internalType": "address",
                    "name": "from",
                    "type": "address"
                },
                {
                    "internalType": "address",
                    "name": "to",
                    "type": "address"
                },
                {
                    "internalType": "uint256",
                    "name": "tokenId",
                    "type": "uint256"
                },
                {
                    "internalType": "bytes",
                    "name": "data",
                    "type": "bytes"
                }
            ],
            "name": "safeTransferFrom",
            "outputs": [],
            "stateMutability": "nonpayable",
            "type": "function"
        },
        {
            "inputs": [
                {
                    "internalType": "address",
                    "name": "operator",
                    "type": "address"
                },
                {
                    "internalType": "bool",
                    "name": "approved",
                    "type": "bool"
                }
            ],
            "name": "setApprovalForAll",
            "outputs": [],
            "stateMutability": "nonpayable",
            "type": "function"
        },
        {
            "inputs": [
                {
                    "internalType": "bytes4",
                    "name": "interfaceId",
                    "type": "bytes4"
                }
            ],
            "name": "supportsInterface",
            "outputs": [
                {
                    "internalType": "bool",
                    "name": "",
                    "type": "bool"
                }
            ],
            "stateMutability": "view",
            "type": "function"
        },
        {
            "inputs": [],
            "name": "symbol",
            "outputs": [
                {
                    "internalType": "string",
                    "name": "",
                    "type": "string"
                }
            ],
            "stateMutability": "view",
            "type": "function"
        },
        {
            "inputs": [
                {
                    "internalType": "uint256",
                    "name": "tokenId",
                    "type": "uint256"
                }
            ],
            "name": "tokenURI",
            "outputs": [
                {
                    "internalType": "string",
                    "name": "",
                    "type": "string"
                }
            ],
            "stateMutability": "view",
            "type": "function"
        },
        {
            "inputs": [
                {
                    "internalType": "uint256",
                    "name": "",
                    "type": "uint256"
                }
            ],
            "name": "token_owners",
            "outputs": [
                {
                    "internalType": "address",
                    "name": "",
                    "type": "address"
                }
            ],
            "stateMutability": "view",
            "type": "function"
        },
        {
            "inputs": [
                {
                    "internalType": "address",
                    "name": "from",
                    "type": "address"
                },
                {
                    "internalType": "address",
                    "name": "to",
                    "type": "address"
                },
                {
                    "internalType": "uint256",
                    "name": "tokenId",
                    "type": "uint256"
                }
            ],
            "name": "transferFrom",
            "outputs": [],
            "stateMutability": "nonpayable",
            "type": "function"
        },
        {
            "inputs": [
                {
                    "internalType": "address",
                    "name": "userAccount",
                    "type": "address"
                }
            ],
            "name": "verifiyUser",
            "outputs": [
                {
                    "internalType": "string",
                    "name": "",
                    "type": "string"
                }
            ],
            "stateMutability": "nonpayable",
            "type": "function"
        },
        {
            "inputs": [
                {
                    "internalType": "address",
                    "name": "currency",
                    "type": "address"
                },
                {
                    "internalType": "uint256",
                    "name": "amount",
                    "type": "uint256"
                }
            ],
            "name": "withdrawEarnings",
            "outputs": [
                {
                    "internalType": "bool",
                    "name": "",
                    "type": "bool"
                }
            ],
            "stateMutability": "nonpayable",
            "type": "function"
        },
        {
            "inputs": [
                {
                    "internalType": "uint256",
                    "name": "aId",
                    "type": "uint256"
                }
            ],
            "name": "withdrawUnderBid",
            "outputs": [],
            "stateMutability": "payable",
            "type": "function"
        }
    ],
    "bytecode": "6080604052600560095560405162003ad838038062003ad88339810160408190526200002b9162000139565b818160006200003b838262000232565b5060016200004a828262000232565b505060016007555050601080546001600160a01b0319163317905550620002fe565b634e487b7160e01b600052604160045260246000fd5b600082601f8301126200009457600080fd5b81516001600160401b0380821115620000b157620000b16200006c565b604051601f8301601f19908116603f01168101908282118183101715620000dc57620000dc6200006c565b81604052838152602092508683858801011115620000f957600080fd5b600091505b838210156200011d5785820183015181830184015290820190620000fe565b838211156200012f5760008385830101525b9695505050505050565b600080604083850312156200014d57600080fd5b82516001600160401b03808211156200016557600080fd5b620001738683870162000082565b935060208501519150808211156200018a57600080fd5b50620001998582860162000082565b9150509250929050565b600181811c90821680620001b857607f821691505b602082108103620001d957634e487b7160e01b600052602260045260246000fd5b50919050565b601f8211156200022d57600081815260208120601f850160051c81016020861015620002085750805b601f850160051c820191505b81811015620002295782815560010162000214565b5050505b505050565b81516001600160401b038111156200024e576200024e6200006c565b62000266816200025f8454620001a3565b84620001df565b602080601f8311600181146200029e5760008415620002855750858301515b600019600386901b1c1916600185901b17855562000229565b600085815260208120601f198616915b82811015620002cf57888601518255948401946001909101908401620002ae565b5085821015620002ee5787850151600019600388901b60f8161c191681555b5050505050600190811b01905550565b6137ca806200030e6000396000f3fe60806040526004361061020f5760003560e01c80638ad9134511610118578063c87b56dd116100a0578063d41cffe81161006f578063d41cffe8146105c7578063da86f4a9146105e7578063e0e8a26014610616578063e985e9c514610636578063fd57251a1461067f57600080fd5b8063c87b56dd1461055f578063c9211c821461057f578063c922b17c1461059f578063cbd2bdfd146105b257600080fd5b8063ae73ccec116100e7578063ae73ccec146104ca578063b2e5e309146104ec578063b88d4fde1461050c578063b9209e331461052c578063bc53cade1461054c57600080fd5b80638ad913451461045557806395d89b411461047557806396b5a7551461048a578063a22cb465146104aa57600080fd5b80634f85310f1161019b57806365aeaea71161016a57806365aeaea7146103cf57806370a08231146103ef57806375e234851461040f5780638052427a14610422578063817544941461043557600080fd5b80634f85310f1461034f578063507ffba51461037c578063598647f81461039c5780636352211e146103af57600080fd5b806309d42b30116101e257806309d42b30146102c557806323b872dd146102e95780632ec09d3914610309578063305a67a81461031c57806342842e0e1461032f57600080fd5b806301ffc9a71461021457806306fdde0314610249578063081812fc1461026b578063095ea7b3146102a3575b600080fd5b34801561022057600080fd5b5061023461022f366004612f0e565b61069f565b60405190151581526020015b60405180910390f35b34801561025557600080fd5b5061025e6106f1565b6040516102409190612f83565b34801561027757600080fd5b5061028b610286366004612f96565b610783565b6040516001600160a01b039091168152602001610240565b3480156102af57600080fd5b506102c36102be366004612fcb565b6107aa565b005b3480156102d157600080fd5b506102db60095481565b604051908152602001610240565b3480156102f557600080fd5b506102c3610304366004612ff5565b6108c4565b610234610317366004612f96565b6108f5565b61023461032a366004612f96565b610aca565b34801561033b57600080fd5b506102c361034a366004612ff5565b610c6e565b34801561035b57600080fd5b5061036f61036a366004612f96565b610c89565b6040516102409190613047565b34801561038857600080fd5b50610234610397366004613142565b610d64565b6102c36103aa36600461318b565b610f4f565b3480156103bb57600080fd5b5061028b6103ca366004612f96565b611193565b3480156103db57600080fd5b5061025e6103ea3660046131ad565b6111f3565b3480156103fb57600080fd5b506102db61040a3660046131ad565b6112bb565b61023461041d3660046131c8565b611341565b610234610430366004612f96565b6114fe565b34801561044157600080fd5b5061025e610450366004613142565b61163f565b34801561046157600080fd5b5061025e610470366004612f96565b611681565b34801561048157600080fd5b5061025e6116a8565b34801561049657600080fd5b506102346104a5366004612f96565b6116b7565b3480156104b657600080fd5b506102c36104c53660046131fb565b61180b565b3480156104d657600080fd5b506104df61181a565b6040516102409190613232565b3480156104f857600080fd5b506102346105073660046131ad565b611871565b34801561051857600080fd5b506102c3610527366004613276565b61197e565b34801561053857600080fd5b506102346105473660046131ad565b6119b6565b6102c361055a366004612f96565b6119fc565b34801561056b57600080fd5b5061025e61057a366004612f96565b611b2b565b34801561058b57600080fd5b5061023461059a366004612fcb565b611c3b565b6102db6105ad3660046132f2565b611d3e565b3480156105be57600080fd5b506104df611f97565b3480156105d357600080fd5b506102db6105e2366004613325565b611fed565b3480156105f357600080fd5b50610607610602366004613142565b6122a7565b6040516102409392919061335e565b34801561062257600080fd5b5061028b610631366004612f96565b61239c565b34801561064257600080fd5b50610234610651366004613389565b6001600160a01b03918216600090815260056020908152604080832093909416825291909152205460ff1690565b34801561068b57600080fd5b5061025e61069a366004612f96565b6123c6565b60006001600160e01b031982166380ac58cd60e01b14806106d057506001600160e01b03198216635b5e139f60e01b145b806106eb57506301ffc9a760e01b6001600160e01b03198316145b92915050565b606060008054610700906133bc565b80601f016020809104026020016040519081016040528092919081815260200182805461072c906133bc565b80156107795780601f1061074e57610100808354040283529160200191610779565b820191906000526020600020905b81548152906001019060200180831161075c57829003601f168201915b5050505050905090565b600061078e826123fb565b506000908152600460205260409020546001600160a01b031690565b60006107b582611193565b9050806001600160a01b0316836001600160a01b0316036108275760405162461bcd60e51b815260206004820152602160248201527f4552433732313a20617070726f76616c20746f2063757272656e74206f776e656044820152603960f91b60648201526084015b60405180910390fd5b336001600160a01b038216148061084357506108438133610651565b6108b55760405162461bcd60e51b815260206004820152603e60248201527f4552433732313a20617070726f76652063616c6c6572206973206e6f7420746f60448201527f6b656e206f776e6572206e6f7220617070726f76656420666f7220616c6c0000606482015260840161081e565b6108bf838361245d565b505050565b6108ce33826124cb565b6108ea5760405162461bcd60e51b815260040161081e906133f0565b6108bf838383612549565b60006002600754036109195760405162461bcd60e51b815260040161081e9061343e565b600260075560008281526017602052604081208391815460ff16600381111561094457610944613031565b1415801561096857506002815460ff16600381111561096557610965613031565b14155b61097157600080fd5b8060030154421161098157600080fd5b805460ff1916600317815560008481526017602052604090206006810154336001600160a01b03909116146109b557600080fd5b806003015442116109c557600080fd5b805461010090046001600160a01b031633036109e057600080fd5b6002815460ff1660038111156109f8576109f8613031565b03610a0257600080fd5b600181015460068201546004808401546040516323b872dd60e01b81526001600160a01b03948516946323b872dd94610a42943094929091169201613475565b600060405180830381600087803b158015610a5c57600080fd5b505af1158015610a70573d6000803e3d6000fd5b505050506007810154604080513381526020810188905280820192909252517f5e5c09d98280e274b712c7e0c10c72c56d685db96c13f761d0259ea0fb1e4d6f9181900360600190a1600193505050506001600755919050565b6000600260075403610aee5760405162461bcd60e51b815260040161081e9061343e565b6002600755600082815260166020908152604080832033808552601b9093529220805490916101009091046001600160a01b031614610b2c57600080fd5b815461010090046001600160a01b03163314610b4757600080fd5b6000825460ff166003811115610b5f57610b5f613031565b14610b6957600080fd5b600182015460028301546040516323b872dd60e01b81526001600160a01b03909216916323b872dd91610ba29130913391600401613475565b600060405180830381600087803b158015610bbc57600080fd5b505af1158015610bd0573d6000803e3d6000fd5b505050600085815260166020908152604080832080546001600160a81b03191681556001810180546001600160a01b0319169055600280820185905560038201859055600490910193909355855460ff1916909217855581513381529081018790527fd5a72ef9a771fa194c21aa74cf85acd0c36822446487685b0dd5ac3215e545c592500160405180910390a16001925050506001600755919050565b6108bf8383836040518060200160405280600081525061197e565b6040805160c081018252600080825260208201819052918101829052606081018290526080810182905260a0810191909152610cc4826126e5565b1515600114610cd257600080fd5b60008281526016602052604090819020815160c0810190925280549091908290829060ff166003811115610d0857610d08613031565b6003811115610d1957610d19613031565b815281546001600160a01b03610100909104811660208301526001830154166040820152600282015460608201526003820154608082015260049091015460a0909101529392505050565b336000818152601b6020526040812080549192909161010090046001600160a01b03169003610d9257600080fd5b6040805160c08101825260018152336020808301829052428385015260006060840181905260808401889052918252601881528382208054855181840281018401909652808652929460a08501939092830182828015610e1b57602002820191906000526020600020905b81546001600160a01b03168152600190910190602001808311610dfd575b505050919092525050336000908152601b60205260409020815181549293508392829060ff191660018381811115610e5557610e55613031565b0217905550602082015181546001600160a01b0390911661010002610100600160a81b0319909116178155604082015160018201556060820151600282015560808201516003820190610ea890826134e7565b5060a08201518051610ec4916004840191602090910190612e3e565b5050601180546001810182556000919091527f31ecc21a745e3968a04e9570e4425bc18fa8019c68028196b546d1669c200c680180546001600160a01b031916339081179091556040517f9954bce02f72fbdef0fa668ac6f42e434b5829615dac2fb22448054d2359d4f69250610f3d919087906135a7565b60405180910390a15060019392505050565b600260075403610f715760405162461bcd60e51b815260040161081e9061343e565b600260075560008281526017602052604081208391815460ff166003811115610f9c57610f9c613031565b14158015610fc057506002815460ff166003811115610fbd57610fbd613031565b14155b610fc957600080fd5b80600301544211610fd957600080fd5b8054600360ff19909116178155336000818152601b60205260409020805490916101009091046001600160a01b03161461101257600080fd5b600085815260176020526040902060028101544210801590611038575080600301544211155b61104157600080fd5b8060050154851161105157600080fd5b8060070154851161106157600080fd5b6000815460ff16600381111561107957611079613031565b1461108357600080fd5b805461010090046001600160a01b0316330361109e57600080fd5b600f546040516323b872dd60e01b81526001600160a01b03909116906323b872dd906110d290339030908a90600401613475565b6020604051808303816000875af11580156110f1573d6000803e3d6000fd5b505050506040513d601f19601f8201168201806040525081019061111591906135cb565b50600086815260196020908152604080832033808552908352928190208890556006840180546001600160a01b031916841790556007840188905580519283529082018790527ff4757a49b326036464bec6fe419a4ae38c8a02ce3e68bf0809674f6aab8ad300910160405180910390a15050600160075550505050565b6000818152600260205260408120546001600160a01b0316806106eb5760405162461bcd60e51b8152602060048201526018602482015277115490cdcc8c4e881a5b9d985b1a59081d1bdad95b88125160421b604482015260640161081e565b6001600160a01b038181166000908152601b6020526040902060105460609216331461121e57600080fd5b6001815460ff16600181111561123657611236613031565b0361126757805460ff1916905550506040805180820190915260088152671d995c9a599a595960c21b602082015290565b6000815460ff16600181111561127f5761127f613031565b036112b557805460ff19166001179055505060408051808201909152600a8152691d5b9d995c9a599a595960b21b602082015290565b50919050565b60006001600160a01b0382166113255760405162461bcd60e51b815260206004820152602960248201527f4552433732313a2061646472657373207a65726f206973206e6f7420612076616044820152683634b21037bbb732b960b91b606482015260840161081e565b506001600160a01b031660009081526003602052604090205490565b60006002600754036113655760405162461bcd60e51b815260040161081e9061343e565b6002600755600084815260166020908152604080832033808552601b9093529220805490916101009091046001600160a01b0316146113a357600080fd5b815461010090046001600160a01b031633036113be57600080fd5b6000825460ff1660038111156113d6576113d6613031565b146113e057600080fd5b600f54336001600160a01b03909116036113f957600080fd5b8154600f546001600160a01b03610100909204821691160361141a57600080fd5b600060646114298660026135fe565b6114339190613633565b905060006114418287613647565b60018501546002860154919250611466916001600160a01b0390911690899089612732565b8083600201600082825461147a919061365e565b9250508190555081600a6000828254611493919061365e565b9091555050835460ff1916600117845560028401546040805133815260208101899052908101919091527fa9a40dec7a304e5915d11358b968c1e8d365992abf20f82285d1df1b30c8e24c9060600160405180910390a1600194505050505060016007559392505050565b60006002600754036115225760405162461bcd60e51b815260040161081e9061343e565b60026007819055336000908152601b6020908152604080832086845260179092529091209091815460ff16600381111561155e5761155e613031565b0361156857600080fd5b8060030154421161157857600080fd5b805461010090046001600160a01b0316331461159357600080fd5b6007810154600060646115a78360026135fe565b6115b19190613633565b905060006115bf8284613647565b9050808560020160008282546115d5919061365e565b9250508190555081600a60008282546115ee919061365e565b909155505060408051338152602081018390527f84eeb14ffee257d43f78e7777c1d13bedfcd09ab4c0b02fc7ef86fc1b2a48278910160405180910390a16001955050505050506001600755919050565b336000818152601b6020526040902080546060926101009091046001600160a01b03161461166c57600080fd5b6003810161167a84826134e7565b5050919050565b60008181526016602052604090206002810154606091906116a190611b2b565b9392505050565b606060018054610700906133bc565b60006002600754036116db5760405162461bcd60e51b815260040161081e9061343e565b60026007556116e982612859565b15156001146116f757600080fd5b6000828152601760205260409020805461010090046001600160a01b0316331461172057600080fd5b6000815460ff16600381111561173857611738613031565b1461174257600080fd5b600181015481546004808401546040516323b872dd60e01b81526001600160a01b03948516946323b872dd9461178694309461010090920490921692909101613475565b600060405180830381600087803b1580156117a057600080fd5b505af11580156117b4573d6000803e3d6000fd5b5050825460ff19166002178355505060408051338152602081018590527ffb201f8e6ca6ef1f147086d898840d222fc8bd103783b0e7182d9fa3fc4e0cc8910160405180910390a160019150506001600755919050565b6118163383836128a6565b5050565b6060600c80548060200260200160405190810160405280929190818152602001828054801561077957602002820191906000526020600020905b815481526020019060010190808311611854575050505050905090565b336000818152601b6020526040812080549192909161010090046001600160a01b03161461189e57600080fd5b3360008181526018602090815260408220805460018101825581845291832090910180546001600160a01b0319166001600160a01b03881617905591905280546118ec916004840191612ea3565b50601380546001810182556000919091527f66de8ffda797e3de9c05e8fc57b3bf0ec28a930d40b0d285d93c06501cf6a0900180546001600160a01b0319166001600160a01b0385169081179091556040805133815260208101929092527fde026c5319b7c35f108a6ccfc922edc8008522079b610aee3c676bb7b7b7fb35910160405180910390a150600192915050565b61198833836124cb565b6119a45760405162461bcd60e51b815260040161081e906133f0565b6119b084848484612974565b50505050565b6001600160a01b0381166000908152601b6020526040812081815460ff1660018111156119e5576119e5613031565b036119f35750600192915050565b50600092915050565b600260075403611a1e5760405162461bcd60e51b815260040161081e9061343e565b6002600790815560008281526019602090815260408083203384528252808320548584526017909252909120918201549091908203611a5c57600080fd5b805461010090046001600160a01b03163303611a7757600080fd5b60068101546001600160a01b03163303611a9057600080fd5b600f546040516323b872dd60e01b81526001600160a01b03909116906323b872dd90611ac490309033908790600401613475565b6020604051808303816000875af1158015611ae3573d6000803e3d6000fd5b505050506040513d601f19601f82011682018060405250810190611b0791906135cb565b50505060009081526019602090815260408083203384529091528120556001600755565b6060611b36826123fb565b60008281526006602052604081208054611b4f906133bc565b80601f0160208091040260200160405190810160405280929190818152602001828054611b7b906133bc565b8015611bc85780601f10611b9d57610100808354040283529160200191611bc8565b820191906000526020600020905b815481529060010190602001808311611bab57829003601f168201915b505050505090506000611be660408051602081019091526000815290565b90508051600003611bf8575092915050565b815115611c2a578082604051602001611c12929190613676565b60405160208183030381529060405292505050919050565b611c33846129a7565b949350505050565b6000600260075403611c5f5760405162461bcd60e51b815260040161081e9061343e565b6002600755336000818152601b60205260409020805490916101009091046001600160a01b031614611c9057600080fd5b8060020154831015611ca157600080fd5b6040516323b872dd60e01b81526001600160a01b038516906323b872dd90611cd190309033908890600401613475565b6020604051808303816000875af1158015611cf0573d6000803e3d6000fd5b505050506040513d601f19601f82011682018060405250810190611d1491906135cb565b5082816002016000828254611d299190613647565b90915550600192505050600160075592915050565b6000600260075403611d625760405162461bcd60e51b815260040161081e9061343e565b6002600755336000818152601b60205260409020805490916101009091046001600160a01b031614611d9357600080fd5b60008311611da057600080fd5b6040516323b872dd60e01b81526001600160a01b038616906323b872dd90611dd090339030908990600401613475565b600060405180830381600087803b158015611dea57600080fd5b505af1158015611dfe573d6000803e3d6000fd5b5050505060006040518060c0016040528060006003811115611e2257611e22613031565b8152602001336001600160a01b03168152602001876001600160a01b03168152602001868152602001858152602001428152509050611e65600880546001019055565b6000611e7060085490565b6000818152601660205260409020835181549293508492829060ff19166001836003811115611ea157611ea1613031565b02179055506020828101518254610100600160a81b0319166101006001600160a01b0392831602178355604080850151600180860180546001600160a01b031916928516929092179091556060808701516002870155608080880151600388015560a090970151600490960195909555600c805491820181556000527fdf6966c971051c3d54ec59162606531493a51404a002842f56009d7e5cf4a8c7018690558051338152918c16928201929092529081018990529081018790527fd9d69fee247951cc283dc6f5b64c36ce396a36146405a798b86ebfd113c8b5ca910160405180910390a160016007559695505050505050565b6060600d8054806020026020016040519081016040528092919081815260200182805480156107795760200282019190600052602060002090815481526020019060010190808311611854575050505050905090565b60006002600754036120115760405162461bcd60e51b815260040161081e9061343e565b6002600755336000818152601b60205260409020805490916101009091046001600160a01b03161461204257600080fd5b6000831161204f57600080fd5b6040516323b872dd60e01b81526001600160a01b038716906323b872dd9061207f90339030908a90600401613475565b600060405180830381600087803b15801561209957600080fd5b505af11580156120ad573d6000803e3d6000fd5b50505050600084426120bf919061365e565b90506000604051806101200160405280600060038111156120e2576120e2613031565b815233602082018190526001600160a01b038b1660408301524260608301526080820185905260a082018a905260c0820188905260e0820152610100018690529050612132600880546001019055565b600061213d60085490565b6000818152601760205260409020835181549293508492829060ff1916600183600381111561216e5761216e613031565b02179055506020828101518254610100600160a81b0319166101006001600160a01b039283168102919091178455604080860151600180870180546001600160a01b0319908116938716939093179055606088015160028801556080880151600388015560a0880151600488015560c0880151600588015560e08801516006880180549093169516949094179055940151600790930192909255600d805492830190557fd7b6990105719101dabeb77144f2a3385c8033acd3af97e9423a695e81ad1eb5909101839055600083815260198252828120338252909152908120819055828190525060408051338152602081018390529081018790527f430786e602a748f3e9cc9c6218c577df03b130a2ba0146f17c87c8d2686ce70c9060600160405180910390a1600160075598975050505050505050565b6000606060006002600754036122cf5760405162461bcd60e51b815260040161081e9061343e565b60026007556122e2600880546001019055565b60006122ed60085490565b90506122f93382612a1a565b6123038186612a34565b6000818152601a6020526040902061231b86826134e7565b50600b80546001810182556000919091527f0175b7a638427703f0dbe7bb9bbf987a2551717b34e79f33b5b1008d1fa01db9018190556040517f0c1b180fbb60448c5491c5ddc7c3a923854214b9ff70f90a7821333338971f929061238390339088906135a7565b60405180910390a1600160078190559095909350915050565b601281815481106123ac57600080fd5b6000918252602090912001546001600160a01b0316905081565b60606123d182612859565b15156001146123df57600080fd5b600082815260176020526040902060048101546116a190611b2b565b6000818152600260205260409020546001600160a01b031661245a5760405162461bcd60e51b8152602060048201526018602482015277115490cdcc8c4e881a5b9d985b1a59081d1bdad95b88125160421b604482015260640161081e565b50565b600081815260046020526040902080546001600160a01b0319166001600160a01b038416908117909155819061249282611193565b6001600160a01b03167f8c5be1e5ebec7d5bd14f71427d1e84f3dd0314c0f7b2291e5b200ac8c7c3b92560405160405180910390a45050565b6000806124d783611193565b9050806001600160a01b0316846001600160a01b0316148061251e57506001600160a01b0380821660009081526005602090815260408083209388168352929052205460ff165b80611c335750836001600160a01b031661253784610783565b6001600160a01b031614949350505050565b826001600160a01b031661255c82611193565b6001600160a01b0316146125c05760405162461bcd60e51b815260206004820152602560248201527f4552433732313a207472616e736665722066726f6d20696e636f72726563742060448201526437bbb732b960d91b606482015260840161081e565b6001600160a01b0382166126225760405162461bcd60e51b8152602060048201526024808201527f4552433732313a207472616e7366657220746f20746865207a65726f206164646044820152637265737360e01b606482015260840161081e565b61262d60008261245d565b6001600160a01b0383166000908152600360205260408120805460019290612656908490613647565b90915550506001600160a01b038216600090815260036020526040812080546001929061268490849061365e565b909155505060008181526002602052604080822080546001600160a01b0319166001600160a01b0386811691821790925591518493918716917fddf252ad1be2c89b69c2b068fc378daa952ba7f163c4a11628f55a4df523b3ef91a4505050565b6000805b600c548110156119f35782600c8281548110612707576127076136a5565b9060005260206000200154036127205750600192915050565b8061272a816136bb565b9150506126e9565b6001600160a01b03831673eeeeeeeeeeeeeeeeeeeeeeeeeeeeeeeeeeeeeeee148061277957506001600160a01b03831673eeeeeeeeeeeeeeeeeeeeeeeeeeeeeeeeeeeeeeee145b1561020f576040516323b872dd60e01b81526001600160a01b038416906323b872dd906127ae90339030908690600401613475565b6020604051808303816000875af11580156127cd573d6000803e3d6000fd5b505050506040513d601f19601f820116820180604052508101906127f191906135cb565b506040516323b872dd60e01b81526001600160a01b038516906323b872dd9061282290309033908790600401613475565b600060405180830381600087803b15801561283c57600080fd5b505af1158015612850573d6000803e3d6000fd5b505050506119b0565b6000805b600d548110156119f35782600d828154811061287b5761287b6136a5565b9060005260206000200154036128945750600192915050565b8061289e816136bb565b91505061285d565b816001600160a01b0316836001600160a01b0316036129075760405162461bcd60e51b815260206004820152601960248201527f4552433732313a20617070726f766520746f2063616c6c657200000000000000604482015260640161081e565b6001600160a01b03838116600081815260056020908152604080832094871680845294825291829020805460ff191686151590811790915591519182527f17307eab39ab6107e8899845ad3d59bd9653f200f220920489ca2b5937696c31910160405180910390a3505050565b61297f848484612549565b61298b84848484612ac7565b6119b05760405162461bcd60e51b815260040161081e906136d4565b60606129b2826123fb565b60006129c960408051602081019091526000815290565b905060008151116129e957604051806020016040528060008152506116a1565b806129f384612bc8565b604051602001612a04929190613676565b6040516020818303038152906040529392505050565b611816828260405180602001604052806000815250612cc9565b6000828152600260205260409020546001600160a01b0316612aaf5760405162461bcd60e51b815260206004820152602e60248201527f45524337323155524953746f726167653a2055524920736574206f66206e6f6e60448201526d32bc34b9ba32b73a103a37b5b2b760911b606482015260840161081e565b60008281526006602052604090206108bf82826134e7565b60006001600160a01b0384163b15612bbd57604051630a85bd0160e11b81526001600160a01b0385169063150b7a0290612b0b903390899088908890600401613726565b6020604051808303816000875af1925050508015612b46575060408051601f3d908101601f19168201909252612b4391810190613763565b60015b612ba3573d808015612b74576040519150601f19603f3d011682016040523d82523d6000602084013e612b79565b606091505b508051600003612b9b5760405162461bcd60e51b815260040161081e906136d4565b805181602001fd5b6001600160e01b031916630a85bd0160e11b149050611c33565b506001949350505050565b606081600003612bef5750506040805180820190915260018152600360fc1b602082015290565b8160005b8115612c195780612c03816136bb565b9150612c129050600a83613633565b9150612bf3565b60008167ffffffffffffffff811115612c3457612c346130b6565b6040519080825280601f01601f191660200182016040528015612c5e576020820181803683370190505b5090505b8415611c3357612c73600183613647565b9150612c80600a86613780565b612c8b90603061365e565b60f81b818381518110612ca057612ca06136a5565b60200101906001600160f81b031916908160001a905350612cc2600a86613633565b9450612c62565b612cd38383612cfc565b612ce06000848484612ac7565b6108bf5760405162461bcd60e51b815260040161081e906136d4565b6001600160a01b038216612d525760405162461bcd60e51b815260206004820181905260248201527f4552433732313a206d696e7420746f20746865207a65726f2061646472657373604482015260640161081e565b6000818152600260205260409020546001600160a01b031615612db75760405162461bcd60e51b815260206004820152601c60248201527f4552433732313a20746f6b656e20616c7265616479206d696e74656400000000604482015260640161081e565b6001600160a01b0382166000908152600360205260408120805460019290612de090849061365e565b909155505060008181526002602052604080822080546001600160a01b0319166001600160a01b03861690811790915590518392907fddf252ad1be2c89b69c2b068fc378daa952ba7f163c4a11628f55a4df523b3ef908290a45050565b828054828255906000526020600020908101928215612e93579160200282015b82811115612e9357825182546001600160a01b0319166001600160a01b03909116178255602090920191600190910190612e5e565b50612e9f929150612ee3565b5090565b828054828255906000526020600020908101928215612e935760005260206000209182015b82811115612e93578254825591600101919060010190612ec8565b5b80821115612e9f5760008155600101612ee4565b6001600160e01b03198116811461245a57600080fd5b600060208284031215612f2057600080fd5b81356116a181612ef8565b60005b83811015612f46578181015183820152602001612f2e565b838111156119b05750506000910152565b60008151808452612f6f816020860160208601612f2b565b601f01601f19169290920160200192915050565b6020815260006116a16020830184612f57565b600060208284031215612fa857600080fd5b5035919050565b80356001600160a01b0381168114612fc657600080fd5b919050565b60008060408385031215612fde57600080fd5b612fe783612faf565b946020939093013593505050565b60008060006060848603121561300a57600080fd5b61301384612faf565b925061302160208501612faf565b9150604084013590509250925092565b634e487b7160e01b600052602160045260246000fd5b815160c08201906004811061306c57634e487b7160e01b600052602160045260246000fd5b80835250602083015160018060a01b0380821660208501528060408601511660408501525050606083015160608301526080830151608083015260a083015160a083015292915050565b634e487b7160e01b600052604160045260246000fd5b600067ffffffffffffffff808411156130e7576130e76130b6565b604051601f8501601f19908116603f0116810190828211818310171561310f5761310f6130b6565b8160405280935085815286868601111561312857600080fd5b858560208301376000602087830101525050509392505050565b60006020828403121561315457600080fd5b813567ffffffffffffffff81111561316b57600080fd5b8201601f8101841361317c57600080fd5b611c33848235602084016130cc565b6000806040838503121561319e57600080fd5b50508035926020909101359150565b6000602082840312156131bf57600080fd5b6116a182612faf565b6000806000606084860312156131dd57600080fd5b8335925061302160208501612faf565b801515811461245a57600080fd5b6000806040838503121561320e57600080fd5b61321783612faf565b91506020830135613227816131ed565b809150509250929050565b6020808252825182820181905260009190848201906040850190845b8181101561326a5783518352928401929184019160010161324e565b50909695505050505050565b6000806000806080858703121561328c57600080fd5b61329585612faf565b93506132a360208601612faf565b925060408501359150606085013567ffffffffffffffff8111156132c657600080fd5b8501601f810187136132d757600080fd5b6132e6878235602084016130cc565b91505092959194509250565b60008060006060848603121561330757600080fd5b61331084612faf565b95602085013595506040909401359392505050565b6000806000806080858703121561333b57600080fd5b61334485612faf565b966020860135965060408601359560600135945092505050565b8381526060602082015260006133776060830185612f57565b90508215156040830152949350505050565b6000806040838503121561339c57600080fd5b6133a583612faf565b91506133b360208401612faf565b90509250929050565b600181811c908216806133d057607f821691505b6020821081036112b557634e487b7160e01b600052602260045260246000fd5b6020808252602e908201527f4552433732313a2063616c6c6572206973206e6f7420746f6b656e206f776e6560408201526d1c881b9bdc88185c1c1c9bdd995960921b606082015260800190565b6020808252601f908201527f5265656e7472616e637947756172643a207265656e7472616e742063616c6c00604082015260600190565b6001600160a01b039384168152919092166020820152604081019190915260600190565b601f8211156108bf57600081815260208120601f850160051c810160208610156134c05750805b601f850160051c820191505b818110156134df578281556001016134cc565b505050505050565b815167ffffffffffffffff811115613501576135016130b6565b6135158161350f84546133bc565b84613499565b602080601f83116001811461354a57600084156135325750858301515b600019600386901b1c1916600185901b1785556134df565b600085815260208120601f198616915b828110156135795788860151825594840194600190910190840161355a565b50858210156135975787850151600019600388901b60f8161c191681555b5050505050600190811b01905550565b6001600160a01b0383168152604060208201819052600090611c3390830184612f57565b6000602082840312156135dd57600080fd5b81516116a1816131ed565b634e487b7160e01b600052601160045260246000fd5b6000816000190483118215151615613618576136186135e8565b500290565b634e487b7160e01b600052601260045260246000fd5b6000826136425761364261361d565b500490565b600082821015613659576136596135e8565b500390565b60008219821115613671576136716135e8565b500190565b60008351613688818460208801612f2b565b83519083019061369c818360208801612f2b565b01949350505050565b634e487b7160e01b600052603260045260246000fd5b6000600182016136cd576136cd6135e8565b5060010190565b60208082526032908201527f4552433732313a207472616e7366657220746f206e6f6e20455243373231526560408201527131b2b4bb32b91034b6b83632b6b2b73a32b960711b606082015260800190565b6001600160a01b038581168252841660208201526040810183905260806060820181905260009061375990830184612f57565b9695505050505050565b60006020828403121561377557600080fd5b81516116a181612ef8565b60008261378f5761378f61361d565b50069056fea2646970667358221220e1beb16917f2597b37089d356b451ddbb218d215e5f6b7869ecbc4120abbeed264736f6c634300080f0033",
    "sourcePath": "c:/Users/Nobert Jakpor/Desktop/NftMarketplace (Frontend)/SmartContracts/MarketPlace.sol",
    "compiler": {
        "name": "solc",
        "version": "0.8.15+commit.e14f2714"
    },
    "functionHashes": {
        "MAX_PER_MINT()": "09d42b30",
        "add_collection(address)": "b2e5e309",
        "approve(address,uint256)": "095ea7b3",
        "balanceOf(address)": "70a08231",
        "bid(uint256,uint256)": "598647f8",
        "buyNft(uint256,address,uint256)": "75e23485",
        "cancelAuction(uint256)": "96b5a755",
        "cancelListing(uint256)": "305a67a8",
        "claimHighestBid(uint256)": "8052427a",
        "claimNft(uint256)": "2ec09d39",
        "createUser(string)": "507ffba5",
        "editUser(string)": "81754494",
        "getAllAuctions()": "cbd2bdfd",
        "getAllListings()": "ae73ccec",
        "getApproved(uint256)": "081812fc",
        "getAuctionedTokenUri(uint256)": "fd57251a",
        "getListingById(uint256)": "4f85310f",
        "getTokenUri(uint256)": "8ad91345",
        "isApprovedForAll(address,address)": "e985e9c5",
        "isVerified(address)": "b9209e33",
        "listNft(address,uint256,uint256)": "c922b17c",
        "mintNft(string)": "da86f4a9",
        "name()": "06fdde03",
        "ownerOf(uint256)": "6352211e",
        "placeAuction(address,uint256,uint256,uint256)": "d41cffe8",
        "safeTransferFrom(address,address,uint256)": "42842e0e",
        "safeTransferFrom(address,address,uint256,bytes)": "b88d4fde",
        "setApprovalForAll(address,bool)": "a22cb465",
        "supportsInterface(bytes4)": "01ffc9a7",
        "symbol()": "95d89b41",
        "tokenURI(uint256)": "c87b56dd",
        "token_owners(uint256)": "e0e8a260",
        "transferFrom(address,address,uint256)": "23b872dd",
        "verifiyUser(address)": "65aeaea7",
        "withdrawEarnings(address,uint256)": "c9211c82",
        "withdrawUnderBid(uint256)": "bc53cade"
    },
    "gasEstimates": {
        "creation": {
            "codeDepositCost": "2856400",
            "executionCost": "infinite",
            "totalCost": "infinite"
        },
        "external": {
            "MAX_PER_MINT()": "2341",
            "add_collection(address)": "infinite",
            "approve(address,uint256)": "infinite",
            "balanceOf(address)": "2656",
            "bid(uint256,uint256)": "68267",
            "buyNft(uint256,address,uint256)": "infinite",
            "cancelAuction(uint256)": "infinite",
            "cancelListing(uint256)": "infinite",
            "claimHighestBid(uint256)": "infinite",
            "claimNft(uint256)": "infinite",
            "createUser(string)": "infinite",
            "editUser(string)": "infinite",
            "getAllAuctions()": "infinite",
            "getAllListings()": "infinite",
            "getApproved(uint256)": "4815",
            "getAuctionedTokenUri(uint256)": "infinite",
            "getListingById(uint256)": "infinite",
            "getTokenUri(uint256)": "infinite",
            "isApprovedForAll(address,address)": "infinite",
            "isVerified(address)": "2725",
            "listNft(address,uint256,uint256)": "infinite",
            "mintNft(string)": "infinite",
            "name()": "infinite",
            "ownerOf(uint256)": "2650",
            "placeAuction(address,uint256,uint256,uint256)": "infinite",
            "safeTransferFrom(address,address,uint256)": "infinite",
            "safeTransferFrom(address,address,uint256,bytes)": "infinite",
            "setApprovalForAll(address,bool)": "26824",
            "supportsInterface(bytes4)": "557",
            "symbol()": "infinite",
            "tokenURI(uint256)": "infinite",
            "token_owners(uint256)": "4702",
            "transferFrom(address,address,uint256)": "infinite",
            "verifiyUser(address)": "infinite",
            "withdrawEarnings(address,uint256)": "infinite",
            "withdrawUnderBid(uint256)": "infinite"
        },
        "internal": {
            "auction_exists(uint256)": "infinite",
            "listing_exists(uint256)": "infinite"
        }
    }
}