{
    "contractName": "NFT",
    "abi": [
        {
            "inputs": [
                {
                    "internalType": "string",
                    "name": "name",
                    "type": "string"
                },
                {
                    "internalType": "string",
                    "name": "sym",
                    "type": "string"
                },
                {
                    "internalType": "string",
                    "name": "collectionuri",
                    "type": "string"
                }
            ],
            "stateMutability": "nonpayable",
            "type": "constructor"
        },
        {
            "anonymous": false,
            "inputs": [
                {
                    "indexed": true,
                    "internalType": "address",
                    "name": "owner",
                    "type": "address"
                },
                {
                    "indexed": true,
                    "internalType": "address",
                    "name": "approved",
                    "type": "address"
                },
                {
                    "indexed": true,
                    "internalType": "uint256",
                    "name": "tokenId",
                    "type": "uint256"
                }
            ],
            "name": "Approval",
            "type": "event"
        },
        {
            "anonymous": false,
            "inputs": [
                {
                    "indexed": true,
                    "internalType": "address",
                    "name": "owner",
                    "type": "address"
                },
                {
                    "indexed": true,
                    "internalType": "address",
                    "name": "operator",
                    "type": "address"
                },
                {
                    "indexed": false,
                    "internalType": "bool",
                    "name": "approved",
                    "type": "bool"
                }
            ],
            "name": "ApprovalForAll",
            "type": "event"
        },
        {
            "anonymous": false,
            "inputs": [
                {
                    "indexed": false,
                    "internalType": "string",
                    "name": "name",
                    "type": "string"
                }
            ],
            "name": "CollNameChanged",
            "type": "event"
        },
        {
            "anonymous": false,
            "inputs": [
                {
                    "indexed": false,
                    "internalType": "address",
                    "name": "add",
                    "type": "address"
                },
                {
                    "indexed": false,
                    "internalType": "string",
                    "name": "uri",
                    "type": "string"
                }
            ],
            "name": "Minted",
            "type": "event"
        },
        {
            "anonymous": false,
            "inputs": [
                {
                    "indexed": false,
                    "internalType": "address",
                    "name": "add",
                    "type": "address"
                },
                {
                    "indexed": false,
                    "internalType": "string[]",
                    "name": "",
                    "type": "string[]"
                }
            ],
            "name": "MintedBatch",
            "type": "event"
        },
        {
            "anonymous": false,
            "inputs": [
                {
                    "indexed": true,
                    "internalType": "address",
                    "name": "previousOwner",
                    "type": "address"
                },
                {
                    "indexed": true,
                    "internalType": "address",
                    "name": "newOwner",
                    "type": "address"
                }
            ],
            "name": "OwnershipTransferred",
            "type": "event"
        },
        {
            "anonymous": false,
            "inputs": [
                {
                    "indexed": false,
                    "internalType": "string",
                    "name": "newhash",
                    "type": "string"
                }
            ],
            "name": "ProfileImagedChanged",
            "type": "event"
        },
        {
            "anonymous": false,
            "inputs": [
                {
                    "indexed": false,
                    "internalType": "string",
                    "name": "sym",
                    "type": "string"
                }
            ],
            "name": "SymChanged",
            "type": "event"
        },
        {
            "anonymous": false,
            "inputs": [
                {
                    "indexed": true,
                    "internalType": "address",
                    "name": "from",
                    "type": "address"
                },
                {
                    "indexed": true,
                    "internalType": "address",
                    "name": "to",
                    "type": "address"
                },
                {
                    "indexed": true,
                    "internalType": "uint256",
                    "name": "tokenId",
                    "type": "uint256"
                }
            ],
            "name": "Transfer",
            "type": "event"
        },
        {
            "anonymous": false,
            "inputs": [
                {
                    "indexed": false,
                    "internalType": "string",
                    "name": "description",
                    "type": "string"
                }
            ],
            "name": "UriChanged",
            "type": "event"
        },
        {
            "inputs": [],
            "name": "MAX_PER_MINT",
            "outputs": [
                {
                    "internalType": "uint256",
                    "name": "",
                    "type": "uint256"
                }
            ],
            "stateMutability": "view",
            "type": "function"
        },
        {
            "inputs": [],
            "name": "MAX_SUPPLY",
            "outputs": [
                {
                    "internalType": "uint256",
                    "name": "",
                    "type": "uint256"
                }
            ],
            "stateMutability": "view",
            "type": "function"
        },
        {
            "inputs": [
                {
                    "internalType": "address",
                    "name": "to",
                    "type": "address"
                },
                {
                    "internalType": "uint256",
                    "name": "tokenId",
                    "type": "uint256"
                }
            ],
            "name": "approve",
            "outputs": [],
            "stateMutability": "nonpayable",
            "type": "function"
        },
        {
            "inputs": [
                {
                    "internalType": "address",
                    "name": "owner",
                    "type": "address"
                }
            ],
            "name": "balanceOf",
            "outputs": [
                {
                    "internalType": "uint256",
                    "name": "",
                    "type": "uint256"
                }
            ],
            "stateMutability": "view",
            "type": "function"
        },
        {
            "inputs": [],
            "name": "baseTokenURI",
            "outputs": [
                {
                    "internalType": "string",
                    "name": "",
                    "type": "string"
                }
            ],
            "stateMutability": "view",
            "type": "function"
        },
        {
            "inputs": [
                {
                    "internalType": "uint256",
                    "name": "tokenId",
                    "type": "uint256"
                }
            ],
            "name": "burnToken",
            "outputs": [
                {
                    "internalType": "string",
                    "name": "",
                    "type": "string"
                }
            ],
            "stateMutability": "nonpayable",
            "type": "function"
        },
        {
            "inputs": [
                {
                    "internalType": "string",
                    "name": "newName",
                    "type": "string"
                }
            ],
            "name": "changeName",
            "outputs": [
                {
                    "internalType": "string",
                    "name": "",
                    "type": "string"
                }
            ],
            "stateMutability": "nonpayable",
            "type": "function"
        },
        {
            "inputs": [
                {
                    "internalType": "string",
                    "name": "newSymbol",
                    "type": "string"
                }
            ],
            "name": "changeSymbol",
            "outputs": [
                {
                    "internalType": "string",
                    "name": "",
                    "type": "string"
                }
            ],
            "stateMutability": "nonpayable",
            "type": "function"
        },
        {
            "inputs": [],
            "name": "collectionUri",
            "outputs": [
                {
                    "internalType": "string",
                    "name": "",
                    "type": "string"
                }
            ],
            "stateMutability": "view",
            "type": "function"
        },
        {
            "inputs": [
                {
                    "internalType": "uint256",
                    "name": "tokenId",
                    "type": "uint256"
                }
            ],
            "name": "getApproved",
            "outputs": [
                {
                    "internalType": "address",
                    "name": "",
                    "type": "address"
                }
            ],
            "stateMutability": "view",
            "type": "function"
        },
        {
            "inputs": [],
            "name": "getCollectionUri",
            "outputs": [
                {
                    "internalType": "string",
                    "name": "",
                    "type": "string"
                }
            ],
            "stateMutability": "view",
            "type": "function"
        },
        {
            "inputs": [],
            "name": "getImage",
            "outputs": [
                {
                    "internalType": "string",
                    "name": "",
                    "type": "string"
                }
            ],
            "stateMutability": "view",
            "type": "function"
        },
        {
            "inputs": [],
            "name": "getName",
            "outputs": [
                {
                    "internalType": "string",
                    "name": "",
                    "type": "string"
                }
            ],
            "stateMutability": "view",
            "type": "function"
        },
        {
            "inputs": [],
            "name": "getSymbol",
            "outputs": [
                {
                    "internalType": "string",
                    "name": "",
                    "type": "string"
                }
            ],
            "stateMutability": "view",
            "type": "function"
        },
        {
            "inputs": [
                {
                    "internalType": "address",
                    "name": "owner",
                    "type": "address"
                },
                {
                    "internalType": "address",
                    "name": "operator",
                    "type": "address"
                }
            ],
            "name": "isApprovedForAll",
            "outputs": [
                {
                    "internalType": "bool",
                    "name": "",
                    "type": "bool"
                }
            ],
            "stateMutability": "view",
            "type": "function"
        },
        {
            "inputs": [
                {
                    "internalType": "address[]",
                    "name": "recipients",
                    "type": "address[]"
                },
                {
                    "internalType": "string[]",
                    "name": "tokenURIList",
                    "type": "string[]"
                }
            ],
            "name": "mintBatchWithURI",
            "outputs": [
                {
                    "internalType": "uint256",
                    "name": "",
                    "type": "uint256"
                },
                {
                    "internalType": "string[]",
                    "name": "",
                    "type": "string[]"
                },
                {
                    "internalType": "bool",
                    "name": "",
                    "type": "bool"
                }
            ],
            "stateMutability": "nonpayable",
            "type": "function"
        },
        {
            "inputs": [
                {
                    "internalType": "string",
                    "name": "tokenURI_",
                    "type": "string"
                }
            ],
            "name": "mintNft",
            "outputs": [
                {
                    "internalType": "uint256",
                    "name": "",
                    "type": "uint256"
                },
                {
                    "internalType": "string",
                    "name": "",
                    "type": "string"
                },
                {
                    "internalType": "bool",
                    "name": "",
                    "type": "bool"
                }
            ],
            "stateMutability": "nonpayable",
            "type": "function"
        },
        {
            "inputs": [],
            "name": "name",
            "outputs": [
                {
                    "internalType": "string",
                    "name": "",
                    "type": "string"
                }
            ],
            "stateMutability": "view",
            "type": "function"
        },
        {
            "inputs": [],
            "name": "owner",
            "outputs": [
                {
                    "internalType": "address",
                    "name": "",
                    "type": "address"
                }
            ],
            "stateMutability": "view",
            "type": "function"
        },
        {
            "inputs": [
                {
                    "internalType": "uint256",
                    "name": "tokenId",
                    "type": "uint256"
                }
            ],
            "name": "ownerOf",
            "outputs": [
                {
                    "internalType": "address",
                    "name": "",
                    "type": "address"
                }
            ],
            "stateMutability": "view",
            "type": "function"
        },
        {
            "inputs": [],
            "name": "pictureHash",
            "outputs": [
                {
                    "internalType": "string",
                    "name": "",
                    "type": "string"
                }
            ],
            "stateMutability": "view",
            "type": "function"
        },
        {
            "inputs": [],
            "name": "renounceOwnership",
            "outputs": [],
            "stateMutability": "nonpayable",
            "type": "function"
        },
        {
            "inputs": [
                {
                    "internalType": "address",
                    "name": "from",
                    "type": "address"
                },
                {
                    "internalType": "address",
                    "name": "to",
                    "type": "address"
                },
                {
                    "internalType": "uint256",
                    "name": "tokenId",
                    "type": "uint256"
                }
            ],
            "name": "safeTransferFrom",
            "outputs": [],
            "stateMutability": "nonpayable",
            "type": "function"
        },
        {
            "inputs": [
                {
                    "internalType": "address",
                    "name": "from",
                    "type": "address"
                },
                {
                    "internalType": "address",
                    "name": "to",
                    "type": "address"
                },
                {
                    "internalType": "uint256",
                    "name": "tokenId",
                    "type": "uint256"
                },
                {
                    "internalType": "bytes",
                    "name": "_data",
                    "type": "bytes"
                }
            ],
            "name": "safeTransferFrom",
            "outputs": [],
            "stateMutability": "nonpayable",
            "type": "function"
        },
        {
            "inputs": [
                {
                    "internalType": "address",
                    "name": "operator",
                    "type": "address"
                },
                {
                    "internalType": "bool",
                    "name": "approved",
                    "type": "bool"
                }
            ],
            "name": "setApprovalForAll",
            "outputs": [],
            "stateMutability": "nonpayable",
            "type": "function"
        },
        {
            "inputs": [
                {
                    "internalType": "bytes4",
                    "name": "interfaceId",
                    "type": "bytes4"
                }
            ],
            "name": "supportsInterface",
            "outputs": [
                {
                    "internalType": "bool",
                    "name": "",
                    "type": "bool"
                }
            ],
            "stateMutability": "view",
            "type": "function"
        },
        {
            "inputs": [],
            "name": "symbol",
            "outputs": [
                {
                    "internalType": "string",
                    "name": "",
                    "type": "string"
                }
            ],
            "stateMutability": "view",
            "type": "function"
        },
        {
            "inputs": [
                {
                    "internalType": "uint256",
                    "name": "index",
                    "type": "uint256"
                }
            ],
            "name": "tokenByIndex",
            "outputs": [
                {
                    "internalType": "uint256",
                    "name": "",
                    "type": "uint256"
                }
            ],
            "stateMutability": "view",
            "type": "function"
        },
        {
            "inputs": [
                {
                    "internalType": "address",
                    "name": "owner",
                    "type": "address"
                },
                {
                    "internalType": "uint256",
                    "name": "index",
                    "type": "uint256"
                }
            ],
            "name": "tokenOfOwnerByIndex",
            "outputs": [
                {
                    "internalType": "uint256",
                    "name": "",
                    "type": "uint256"
                }
            ],
            "stateMutability": "view",
            "type": "function"
        },
        {
            "inputs": [
                {
                    "internalType": "uint256",
                    "name": "tokenId",
                    "type": "uint256"
                }
            ],
            "name": "tokenURI",
            "outputs": [
                {
                    "internalType": "string",
                    "name": "",
                    "type": "string"
                }
            ],
            "stateMutability": "view",
            "type": "function"
        },
        {
            "inputs": [
                {
                    "internalType": "uint256",
                    "name": "",
                    "type": "uint256"
                }
            ],
            "name": "token_owners",
            "outputs": [
                {
                    "internalType": "address",
                    "name": "",
                    "type": "address"
                }
            ],
            "stateMutability": "view",
            "type": "function"
        },
        {
            "inputs": [
                {
                    "internalType": "address",
                    "name": "token_owner",
                    "type": "address"
                }
            ],
            "name": "tokensOfOwner",
            "outputs": [
                {
                    "internalType": "uint256[]",
                    "name": "",
                    "type": "uint256[]"
                }
            ],
            "stateMutability": "view",
            "type": "function"
        },
        {
            "inputs": [],
            "name": "totalSupply",
            "outputs": [
                {
                    "internalType": "uint256",
                    "name": "",
                    "type": "uint256"
                }
            ],
            "stateMutability": "view",
            "type": "function"
        },
        {
            "inputs": [
                {
                    "internalType": "address",
                    "name": "from",
                    "type": "address"
                },
                {
                    "internalType": "address",
                    "name": "to",
                    "type": "address"
                },
                {
                    "internalType": "uint256",
                    "name": "tokenId",
                    "type": "uint256"
                }
            ],
            "name": "transferFrom",
            "outputs": [],
            "stateMutability": "nonpayable",
            "type": "function"
        },
        {
            "inputs": [
                {
                    "internalType": "address",
                    "name": "newOwner",
                    "type": "address"
                }
            ],
            "name": "transferOwnership",
            "outputs": [],
            "stateMutability": "nonpayable",
            "type": "function"
        },
        {
            "inputs": [
                {
                    "internalType": "string",
                    "name": "newUri",
                    "type": "string"
                }
            ],
            "name": "updateCollectionUri",
            "outputs": [
                {
                    "internalType": "string",
                    "name": "",
                    "type": "string"
                }
            ],
            "stateMutability": "nonpayable",
            "type": "function"
        },
        {
            "inputs": [
                {
                    "internalType": "string",
                    "name": "newHash",
                    "type": "string"
                }
            ],
            "name": "updateImage",
            "outputs": [
                {
                    "internalType": "string",
                    "name": "",
                    "type": "string"
                }
            ],
            "stateMutability": "nonpayable",
            "type": "function"
        }
    ],
    "bytecode": "60806040523480156200001157600080fd5b50604051620030b4380380620030b48339810160408190526200003491620003cd565b6011805462000043906200045e565b80601f016020809104026020016040519081016040528092919081815260200182805462000071906200045e565b8015620000c25780601f106200009657610100808354040283529160200191620000c2565b820191906000526020600020905b815481529060010190602001808311620000a457829003601f168201915b505050505060128054620000d6906200045e565b80601f016020809104026020016040519081016040528092919081815260200182805462000104906200045e565b8015620001555780601f10620001295761010080835404028352916020019162000155565b820191906000526020600020905b8154815290600101906020018083116200013757829003601f168201915b505084516200016f9350600092506020860191506200025a565b508051620001859060019060208401906200025a565b505050620001a26200019c6200020460201b60201c565b62000208565b6001600c55600e80546001600160a01b031916331790558151620001ce9060129060208501906200025a565b508251620001e49060119060208601906200025a565b508051620001fa9060109060208401906200025a565b505050506200049a565b3390565b600b80546001600160a01b038381166001600160a01b0319831681179093556040519116919082907f8be0079c531659141344cd1fd0a4f28419497f9722a3daafe3b4186f6b6457e090600090a35050565b82805462000268906200045e565b90600052602060002090601f0160209004810192826200028c5760008555620002d7565b82601f10620002a757805160ff1916838001178555620002d7565b82800160010185558215620002d7579182015b82811115620002d7578251825591602001919060010190620002ba565b50620002e5929150620002e9565b5090565b5b80821115620002e55760008155600101620002ea565b634e487b7160e01b600052604160045260246000fd5b600082601f8301126200032857600080fd5b81516001600160401b038082111562000345576200034562000300565b604051601f8301601f19908116603f0116810190828211818310171562000370576200037062000300565b816040528381526020925086838588010111156200038d57600080fd5b600091505b83821015620003b1578582018301518183018401529082019062000392565b83821115620003c35760008385830101525b9695505050505050565b600080600060608486031215620003e357600080fd5b83516001600160401b0380821115620003fb57600080fd5b620004098783880162000316565b945060208601519150808211156200042057600080fd5b6200042e8783880162000316565b935060408601519150808211156200044557600080fd5b50620004548682870162000316565b9150509250925092565b600181811c908216806200047357607f821691505b6020821081036200049457634e487b7160e01b600052602260045260246000fd5b50919050565b612c0a80620004aa6000396000f3fe608060405234801561001057600080fd5b50600436106102275760003560e01c806370a0823111610130578063bde7f5c3116100b8578063e0e8a2601161007c578063e0e8a2601461047c578063e985e9c51461048f578063eb3d68e7146104cb578063f2fde38b146104de578063f3651cbb146104f157600080fd5b8063bde7f5c31461042f578063c87b56dd14610437578063d547cfb71461044a578063da86f4a914610452578063defcd4b31461047457600080fd5b80638da5cb5b116100ff5780638da5cb5b146103dd57806395d89b41146103ee578063a22cb465146103f6578063a3895fff14610409578063b88d4fde1461041c57600080fd5b806370a082311461038f578063715018a6146103a25780637b47ec1a146103aa5780638462151c146103bd57600080fd5b806323b872dd116101b35780634f6ccce7116101825780634f6ccce71461033b578063512d81791461034e5780635353a2d814610361578063576eb0c8146103745780636352211e1461037c57600080fd5b806323b872dd146102f95780632f745c591461030c57806332cb6b0c1461031f57806342842e0e1461032857600080fd5b806309d42b30116101fa57806309d42b30146102a95780630a28246f146102bf57806315070401146102e157806317d7de7c146102e957806318160ddd146102f157600080fd5b806301ffc9a71461022c57806306fdde0314610254578063081812fc14610269578063095ea7b314610294575b600080fd5b61023f61023a366004612319565b6104f9565b60405190151581526020015b60405180910390f35b61025c61050a565b60405161024b919061238e565b61027c6102773660046123a1565b61059c565b6040516001600160a01b03909116815260200161024b565b6102a76102a23660046123d1565b610629565b005b6102b1600581565b60405190815260200161024b565b6102d26102cd36600461256e565b61073e565b60405161024b93929190612683565b61025c610915565b61025c610924565b6009546102b1565b6102a76103073660046126ae565b610933565b6102b161031a3660046123d1565b610964565b6102b161271081565b6102a76103363660046126ae565b6109fa565b6102b16103493660046123a1565b610a15565b61025c61035c3660046126ea565b610aa8565b61025c61036f3660046126ea565b610bff565b61025c610c85565b61027c61038a3660046123a1565b610c94565b6102b161039d36600461271f565b610d0b565b6102a7610d92565b61025c6103b83660046123a1565b610dc8565b6103d06103cb36600461271f565b610e2c565b60405161024b919061273a565b600b546001600160a01b031661027c565b61025c610ece565b6102a761040436600461277e565b610edd565b61025c6104173660046126ea565b610eec565b6102a761042a3660046127ba565b610f72565b61025c610faa565b61025c6104453660046123a1565b611038565b61025c611043565b6104656104603660046126ea565b611050565b60405161024b93929190612836565b61025c6111f1565b61027c61048a3660046123a1565b6111fe565b61023f61049d36600461284f565b6001600160a01b03918216600090815260056020908152604080832093909416825291909152205460ff1690565b61025c6104d93660046126ea565b611228565b6102a76104ec36600461271f565b6112ae565b61025c611349565b600061050482611358565b92915050565b60606000805461051990612882565b80601f016020809104026020016040519081016040528092919081815260200182805461054590612882565b80156105925780601f1061056757610100808354040283529160200191610592565b820191906000526020600020905b81548152906001019060200180831161057557829003601f168201915b5050505050905090565b60006105a78261137d565b61060d5760405162461bcd60e51b815260206004820152602c60248201527f4552433732313a20617070726f76656420717565727920666f72206e6f6e657860448201526b34b9ba32b73a103a37b5b2b760a11b60648201526084015b60405180910390fd5b506000908152600460205260409020546001600160a01b031690565b600061063482610c94565b9050806001600160a01b0316836001600160a01b0316036106a15760405162461bcd60e51b815260206004820152602160248201527f4552433732313a20617070726f76616c20746f2063757272656e74206f776e656044820152603960f91b6064820152608401610604565b336001600160a01b03821614806106bd57506106bd813361049d565b61072f5760405162461bcd60e51b815260206004820152603860248201527f4552433732313a20617070726f76652063616c6c6572206973206e6f74206f7760448201527f6e6572206e6f7220617070726f76656420666f7220616c6c00000000000000006064820152608401610604565b610739838361139a565b505050565b6000606081336001600160a01b031661075f600b546001600160a01b031690565b6001600160a01b0316146107855760405162461bcd60e51b8152600401610604906128bc565b6002600c54036107d75760405162461bcd60e51b815260206004820152601f60248201527f5265656e7472616e637947756172643a207265656e7472616e742063616c6c006044820152606401610604565b6002600c558351600510156107eb57600080fd5b601654612710116107fb57600080fd5b600e546001600160a01b0316331461081257600080fd5b600e5485516001600160a01b03909116908690600090610834576108346128f1565b60200260200101906001600160a01b031690816001600160a01b031681525050600061085f600d5490565b905060005b86518110156108ba576108773083611408565b61089a8287838151811061088d5761088d6128f1565b6020026020010151611422565b6108a8600d80546001019055565b806108b28161291d565b915050610864565b50600e546040517f2906cdb8844b03f65eddfd35c5c557db8ce9bfb188148611de19acd7549be072916108fa916001600160a01b03909116908890612936565b60405180910390a16001600c81905590969495509392505050565b60606012805461051990612882565b60606011805461051990612882565b61093d33826114ad565b6109595760405162461bcd60e51b81526004016106049061295a565b610739838383611597565b600061096f83610d0b565b82106109d15760405162461bcd60e51b815260206004820152602b60248201527f455243373231456e756d657261626c653a206f776e657220696e646578206f7560448201526a74206f6620626f756e647360a81b6064820152608401610604565b506001600160a01b03919091166000908152600760209081526040808320938352929052205490565b61073983838360405180602001604052806000815250610f72565b6000610a2060095490565b8210610a835760405162461bcd60e51b815260206004820152602c60248201527f455243373231456e756d657261626c653a20676c6f62616c20696e646578206f60448201526b7574206f6620626f756e647360a01b6064820152608401610604565b60098281548110610a9657610a966128f1565b90600052602060002001549050919050565b600b546060906001600160a01b03163314610ad55760405162461bcd60e51b8152600401610604906128bc565b600e546001600160a01b03163314610b205760405162461bcd60e51b815260206004820152600e60248201526d20b1b1b2b9b9903232b734b2b21760911b6044820152606401610604565b8151610b33906010906020850190612234565b507fb1bf12e17db588c31e8fb2afdd2b3bc1ed822d68c560856fcbc75ae303fc5d146010604051610b6491906129ab565b60405180910390a160108054610b7990612882565b80601f0160208091040260200160405190810160405280929190818152602001828054610ba590612882565b8015610bf25780601f10610bc757610100808354040283529160200191610bf2565b820191906000526020600020905b815481529060010190602001808311610bd557829003601f168201915b505050505090505b919050565b600b546060906001600160a01b03163314610c2c5760405162461bcd60e51b8152600401610604906128bc565b8151610c3f906011906020850190612234565b507fdb20dabbb5efd89a937d098421a5998e4b9d55aba588384728ddeed0ab507cb36011604051610c7091906129ab565b60405180910390a160118054610b7990612882565b60606010805461051990612882565b6000818152600260205260408120546001600160a01b0316806105045760405162461bcd60e51b815260206004820152602960248201527f4552433732313a206f776e657220717565727920666f72206e6f6e657869737460448201526832b73a103a37b5b2b760b91b6064820152608401610604565b60006001600160a01b038216610d765760405162461bcd60e51b815260206004820152602a60248201527f4552433732313a2062616c616e636520717565727920666f7220746865207a65604482015269726f206164647265737360b01b6064820152608401610604565b506001600160a01b031660009081526003602052604090205490565b600b546001600160a01b03163314610dbc5760405162461bcd60e51b8152600401610604906128bc565b610dc6600061173e565b565b600e546060906001600160a01b03163314610de257600080fd5b610deb82611790565b610df457600080fd5b610dfd826117e6565b50506040805180820190915260138152724275726e6564207375636365737366756c6c7960681b602082015290565b60606000610e3983610d0b565b905060008167ffffffffffffffff811115610e5657610e566123fb565b604051908082528060200260200182016040528015610e7f578160200160208202803683370190505b50905060005b82811015610ec657610e978582610964565b828281518110610ea957610ea96128f1565b602090810291909101015280610ebe8161291d565b915050610e85565b509392505050565b60606001805461051990612882565b610ee83383836117ef565b5050565b600b546060906001600160a01b03163314610f195760405162461bcd60e51b8152600401610604906128bc565b8151610f2c906012906020850190612234565b507fe296400bb666223484e326e43efa59ecb30d87974265ee552f73a1a8770a9c5b6012604051610f5d91906129ab565b60405180910390a160128054610b7990612882565b610f7c33836114ad565b610f985760405162461bcd60e51b81526004016106049061295a565b610fa4848484846118bd565b50505050565b600f8054610fb790612882565b80601f0160208091040260200160405190810160405280929190818152602001828054610fe390612882565b80156110305780601f1061100557610100808354040283529160200191611030565b820191906000526020600020905b81548152906001019060200180831161101357829003601f168201915b505050505081565b6060610504826118f0565b60148054610fb790612882565b6000606081336001600160a01b0316611071600b546001600160a01b031690565b6001600160a01b0316146110975760405162461bcd60e51b8152600401610604906128bc565b6002600c54036110e95760405162461bcd60e51b815260206004820152601f60248201527f5265656e7472616e637947756172643a207265656e7472616e742063616c6c006044820152606401610604565b6002600c55601654612710116110fe57600080fd5b600e546001600160a01b0316331461111557600080fd5b611123600d80546001019055565b600061112e600d5490565b905061113a3082611408565b6111448186611422565b6000818152601560209081526040909120865161116392880190612234565b50601680546001810182556000919091527fd833147d7dc355ba459fc788f669e58cfaf9dc25ddcd0702e87d69c7b512428901819055600e546040517f0c1b180fbb60448c5491c5ddc7c3a923854214b9ff70f90a7821333338971f92916111d8916001600160a01b03909116908890612a52565b60405180910390a16001600c8190559095909350915050565b60108054610fb790612882565b6017818154811061120e57600080fd5b6000918252602090912001546001600160a01b0316905081565b600b546060906001600160a01b031633146112555760405162461bcd60e51b8152600401610604906128bc565b815161126890600f906020850190612234565b507f1232962fea5392c31c253fb9dd669d3b760ca09069ff48aa1cea346c80f3560e600f60405161129991906129ab565b60405180910390a1600f8054610b7990612882565b600b546001600160a01b031633146112d85760405162461bcd60e51b8152600401610604906128bc565b6001600160a01b03811661133d5760405162461bcd60e51b815260206004820152602660248201527f4f776e61626c653a206e6577206f776e657220697320746865207a65726f206160448201526564647265737360d01b6064820152608401610604565b6113468161173e565b50565b6060600f805461051990612882565b60006001600160e01b0319821663780e9d6360e01b1480610504575061050482611a5e565b6000908152600260205260409020546001600160a01b0316151590565b600081815260046020526040902080546001600160a01b0319166001600160a01b03841690811790915581906113cf82610c94565b6001600160a01b03167f8c5be1e5ebec7d5bd14f71427d1e84f3dd0314c0f7b2291e5b200ac8c7c3b92560405160405180910390a45050565b610ee8828260405180602001604052806000815250611aae565b61142b8261137d565b61148e5760405162461bcd60e51b815260206004820152602e60248201527f45524337323155524953746f726167653a2055524920736574206f66206e6f6e60448201526d32bc34b9ba32b73a103a37b5b2b760911b6064820152608401610604565b6000828152600660209081526040909120825161073992840190612234565b60006114b88261137d565b6115195760405162461bcd60e51b815260206004820152602c60248201527f4552433732313a206f70657261746f7220717565727920666f72206e6f6e657860448201526b34b9ba32b73a103a37b5b2b760a11b6064820152608401610604565b600061152483610c94565b9050806001600160a01b0316846001600160a01b0316148061155f5750836001600160a01b03166115548461059c565b6001600160a01b0316145b8061158f57506001600160a01b0380821660009081526005602090815260408083209388168352929052205460ff165b949350505050565b826001600160a01b03166115aa82610c94565b6001600160a01b03161461160e5760405162461bcd60e51b815260206004820152602560248201527f4552433732313a207472616e736665722066726f6d20696e636f72726563742060448201526437bbb732b960d91b6064820152608401610604565b6001600160a01b0382166116705760405162461bcd60e51b8152602060048201526024808201527f4552433732313a207472616e7366657220746f20746865207a65726f206164646044820152637265737360e01b6064820152608401610604565b61167b838383611ae1565b61168660008261139a565b6001600160a01b03831660009081526003602052604081208054600192906116af908490612a76565b90915550506001600160a01b03821660009081526003602052604081208054600192906116dd908490612a8d565b909155505060008181526002602052604080822080546001600160a01b0319166001600160a01b0386811691821790925591518493918716917fddf252ad1be2c89b69c2b068fc378daa952ba7f163c4a11628f55a4df523b3ef91a4505050565b600b80546001600160a01b038381166001600160a01b0319831681179093556040519116919082907f8be0079c531659141344cd1fd0a4f28419497f9722a3daafe3b4186f6b6457e090600090a35050565b6000805b6016548110156117dd5782601682815481106117b2576117b26128f1565b9060005260206000200154036117cb5750600192915050565b806117d58161291d565b915050611794565b50600092915050565b61134681611aec565b816001600160a01b0316836001600160a01b0316036118505760405162461bcd60e51b815260206004820152601960248201527f4552433732313a20617070726f766520746f2063616c6c6572000000000000006044820152606401610604565b6001600160a01b03838116600081815260056020908152604080832094871680845294825291829020805460ff191686151590811790915591519182527f17307eab39ab6107e8899845ad3d59bd9653f200f220920489ca2b5937696c31910160405180910390a3505050565b6118c8848484611597565b6118d484848484611b2c565b610fa45760405162461bcd60e51b815260040161060490612aa5565b60606118fb8261137d565b6119615760405162461bcd60e51b815260206004820152603160248201527f45524337323155524953746f726167653a2055524920717565727920666f72206044820152703737b732bc34b9ba32b73a103a37b5b2b760791b6064820152608401610604565b6000828152600660205260408120805461197a90612882565b80601f01602080910402602001604051908101604052809291908181526020018280546119a690612882565b80156119f35780601f106119c8576101008083540402835291602001916119f3565b820191906000526020600020905b8154815290600101906020018083116119d657829003601f168201915b505050505090506000611a1160408051602081019091526000815290565b90508051600003611a23575092915050565b815115611a55578082604051602001611a3d929190612af7565b60405160208183030381529060405292505050919050565b61158f84611c2d565b60006001600160e01b031982166380ac58cd60e01b1480611a8f57506001600160e01b03198216635b5e139f60e01b145b8061050457506301ffc9a760e01b6001600160e01b0319831614610504565b611ab88383611d05565b611ac56000848484611b2c565b6107395760405162461bcd60e51b815260040161060490612aa5565b610739838383611e44565b611af581611efc565b60008181526006602052604090208054611b0e90612882565b159050611346576000818152600660205260408120611346916122b8565b60006001600160a01b0384163b15611c2257604051630a85bd0160e11b81526001600160a01b0385169063150b7a0290611b70903390899088908890600401612b26565b6020604051808303816000875af1925050508015611bab575060408051601f3d908101601f19168201909252611ba891810190612b63565b60015b611c08573d808015611bd9576040519150601f19603f3d011682016040523d82523d6000602084013e611bde565b606091505b508051600003611c005760405162461bcd60e51b815260040161060490612aa5565b805181602001fd5b6001600160e01b031916630a85bd0160e11b14905061158f565b506001949350505050565b6060611c388261137d565b611c9c5760405162461bcd60e51b815260206004820152602f60248201527f4552433732314d657461646174613a2055524920717565727920666f72206e6f60448201526e3732bc34b9ba32b73a103a37b5b2b760891b6064820152608401610604565b6000611cb360408051602081019091526000815290565b90506000815111611cd35760405180602001604052806000815250611cfe565b80611cdd84611fa3565b604051602001611cee929190612af7565b6040516020818303038152906040525b9392505050565b6001600160a01b038216611d5b5760405162461bcd60e51b815260206004820181905260248201527f4552433732313a206d696e7420746f20746865207a65726f20616464726573736044820152606401610604565b611d648161137d565b15611db15760405162461bcd60e51b815260206004820152601c60248201527f4552433732313a20746f6b656e20616c7265616479206d696e746564000000006044820152606401610604565b611dbd60008383611ae1565b6001600160a01b0382166000908152600360205260408120805460019290611de6908490612a8d565b909155505060008181526002602052604080822080546001600160a01b0319166001600160a01b03861690811790915590518392907fddf252ad1be2c89b69c2b068fc378daa952ba7f163c4a11628f55a4df523b3ef908290a45050565b6001600160a01b038316611e9f57611e9a81600980546000838152600a60205260408120829055600182018355919091527f6e1540171b6c0c960b71a7020d9f60077f6af931a8bbf590da0223dacf75c7af0155565b611ec2565b816001600160a01b0316836001600160a01b031614611ec257611ec283826120a4565b6001600160a01b038216611ed95761073981612141565b826001600160a01b0316826001600160a01b0316146107395761073982826121f0565b6000611f0782610c94565b9050611f1581600084611ae1565b611f2060008361139a565b6001600160a01b0381166000908152600360205260408120805460019290611f49908490612a76565b909155505060008281526002602052604080822080546001600160a01b0319169055518391906001600160a01b038416907fddf252ad1be2c89b69c2b068fc378daa952ba7f163c4a11628f55a4df523b3ef908390a45050565b606081600003611fca5750506040805180820190915260018152600360fc1b602082015290565b8160005b8115611ff45780611fde8161291d565b9150611fed9050600a83612b96565b9150611fce565b60008167ffffffffffffffff81111561200f5761200f6123fb565b6040519080825280601f01601f191660200182016040528015612039576020820181803683370190505b5090505b841561158f5761204e600183612a76565b915061205b600a86612baa565b612066906030612a8d565b60f81b81838151811061207b5761207b6128f1565b60200101906001600160f81b031916908160001a90535061209d600a86612b96565b945061203d565b600060016120b184610d0b565b6120bb9190612a76565b60008381526008602052604090205490915080821461210e576001600160a01b03841660009081526007602090815260408083208584528252808320548484528184208190558352600890915290208190555b5060009182526008602090815260408084208490556001600160a01b039094168352600781528383209183525290812055565b60095460009061215390600190612a76565b6000838152600a60205260408120546009805493945090928490811061217b5761217b6128f1565b90600052602060002001549050806009838154811061219c5761219c6128f1565b6000918252602080832090910192909255828152600a909152604080822084905585825281205560098054806121d4576121d4612bbe565b6001900381819060005260206000200160009055905550505050565b60006121fb83610d0b565b6001600160a01b039093166000908152600760209081526040808320868452825280832085905593825260089052919091209190915550565b82805461224090612882565b90600052602060002090601f01602090048101928261226257600085556122a8565b82601f1061227b57805160ff19168380011785556122a8565b828001600101855582156122a8579182015b828111156122a857825182559160200191906001019061228d565b506122b49291506122ee565b5090565b5080546122c490612882565b6000825580601f106122d4575050565b601f01602090049060005260206000209081019061134691905b5b808211156122b457600081556001016122ef565b6001600160e01b03198116811461134657600080fd5b60006020828403121561232b57600080fd5b8135611cfe81612303565b60005b83811015612351578181015183820152602001612339565b83811115610fa45750506000910152565b6000815180845261237a816020860160208601612336565b601f01601f19169290920160200192915050565b602081526000611cfe6020830184612362565b6000602082840312156123b357600080fd5b5035919050565b80356001600160a01b0381168114610bfa57600080fd5b600080604083850312156123e457600080fd5b6123ed836123ba565b946020939093013593505050565b634e487b7160e01b600052604160045260246000fd5b604051601f8201601f1916810167ffffffffffffffff8111828210171561243a5761243a6123fb565b604052919050565b600067ffffffffffffffff82111561245c5761245c6123fb565b5060051b60200190565b600067ffffffffffffffff831115612480576124806123fb565b612493601f8401601f1916602001612411565b90508281528383830111156124a757600080fd5b828260208301376000602084830101529392505050565b600082601f8301126124cf57600080fd5b611cfe83833560208501612466565b600082601f8301126124ef57600080fd5b813560206125046124ff83612442565b612411565b82815260059290921b8401810191818101908684111561252357600080fd5b8286015b8481101561256357803567ffffffffffffffff8111156125475760008081fd5b6125558986838b01016124be565b845250918301918301612527565b509695505050505050565b6000806040838503121561258157600080fd5b823567ffffffffffffffff8082111561259957600080fd5b818501915085601f8301126125ad57600080fd5b813560206125bd6124ff83612442565b82815260059290921b840181019181810190898411156125dc57600080fd5b948201945b83861015612601576125f2866123ba565b825294820194908201906125e1565b9650508601359250508082111561261757600080fd5b50612624858286016124de565b9150509250929050565b600081518084526020808501808196508360051b8101915082860160005b85811015612676578284038952612664848351612362565b9885019893509084019060010161264c565b5091979650505050505050565b83815260606020820152600061269c606083018561262e565b90508215156040830152949350505050565b6000806000606084860312156126c357600080fd5b6126cc846123ba565b92506126da602085016123ba565b9150604084013590509250925092565b6000602082840312156126fc57600080fd5b813567ffffffffffffffff81111561271357600080fd5b61158f848285016124be565b60006020828403121561273157600080fd5b611cfe826123ba565b6020808252825182820181905260009190848201906040850190845b8181101561277257835183529284019291840191600101612756565b50909695505050505050565b6000806040838503121561279157600080fd5b61279a836123ba565b9150602083013580151581146127af57600080fd5b809150509250929050565b600080600080608085870312156127d057600080fd5b6127d9856123ba565b93506127e7602086016123ba565b925060408501359150606085013567ffffffffffffffff81111561280a57600080fd5b8501601f8101871361281b57600080fd5b61282a87823560208401612466565b91505092959194509250565b83815260606020820152600061269c6060830185612362565b6000806040838503121561286257600080fd5b61286b836123ba565b9150612879602084016123ba565b90509250929050565b600181811c9082168061289657607f821691505b6020821081036128b657634e487b7160e01b600052602260045260246000fd5b50919050565b6020808252818101527f4f776e61626c653a2063616c6c6572206973206e6f7420746865206f776e6572604082015260600190565b634e487b7160e01b600052603260045260246000fd5b634e487b7160e01b600052601160045260246000fd5b60006001820161292f5761292f612907565b5060010190565b6001600160a01b038316815260406020820181905260009061158f9083018461262e565b60208082526031908201527f4552433732313a207472616e736665722063616c6c6572206973206e6f74206f6040820152701ddb995c881b9bdc88185c1c1c9bdd9959607a1b606082015260800190565b600060208083526000845481600182811c9150808316806129cd57607f831692505b85831081036129ea57634e487b7160e01b85526022600452602485fd5b878601838152602001818015612a075760018114612a1857612a43565b60ff19861682528782019650612a43565b60008b81526020902060005b86811015612a3d57815484820152908501908901612a24565b83019750505b50949998505050505050505050565b6001600160a01b038316815260406020820181905260009061158f90830184612362565b600082821015612a8857612a88612907565b500390565b60008219821115612aa057612aa0612907565b500190565b60208082526032908201527f4552433732313a207472616e7366657220746f206e6f6e20455243373231526560408201527131b2b4bb32b91034b6b83632b6b2b73a32b960711b606082015260800190565b60008351612b09818460208801612336565b835190830190612b1d818360208801612336565b01949350505050565b6001600160a01b0385811682528416602082015260408101839052608060608201819052600090612b5990830184612362565b9695505050505050565b600060208284031215612b7557600080fd5b8151611cfe81612303565b634e487b7160e01b600052601260045260246000fd5b600082612ba557612ba5612b80565b500490565b600082612bb957612bb9612b80565b500690565b634e487b7160e01b600052603160045260246000fdfea2646970667358221220186530ffa1e6f31ef7316f27c0f843d2183908fab482d79fb255ad050d4dd6a664736f6c634300080d0033",
    "sourcePath": "c:/Users/Nobert Jakpor/Desktop/NftMarketplace (Frontend)/SmartContracts/NFTcontract.sol",
    "compiler": {
        "name": "solc",
        "version": "0.8.13+commit.abaa5c0e"
    },
    "functionHashes": {
        "MAX_PER_MINT()": "09d42b30",
        "MAX_SUPPLY()": "32cb6b0c",
        "approve(address,uint256)": "095ea7b3",
        "balanceOf(address)": "70a08231",
        "baseTokenURI()": "d547cfb7",
        "burnToken(uint256)": "7b47ec1a",
        "changeName(string)": "5353a2d8",
        "changeSymbol(string)": "a3895fff",
        "collectionUri()": "defcd4b3",
        "getApproved(uint256)": "081812fc",
        "getCollectionUri()": "576eb0c8",
        "getImage()": "f3651cbb",
        "getName()": "17d7de7c",
        "getSymbol()": "15070401",
        "isApprovedForAll(address,address)": "e985e9c5",
        "mintBatchWithURI(address[],string[])": "0a28246f",
        "mintNft(string)": "da86f4a9",
        "name()": "06fdde03",
        "owner()": "8da5cb5b",
        "ownerOf(uint256)": "6352211e",
        "pictureHash()": "bde7f5c3",
        "renounceOwnership()": "715018a6",
        "safeTransferFrom(address,address,uint256)": "42842e0e",
        "safeTransferFrom(address,address,uint256,bytes)": "b88d4fde",
        "setApprovalForAll(address,bool)": "a22cb465",
        "supportsInterface(bytes4)": "01ffc9a7",
        "symbol()": "95d89b41",
        "tokenByIndex(uint256)": "4f6ccce7",
        "tokenOfOwnerByIndex(address,uint256)": "2f745c59",
        "tokenURI(uint256)": "c87b56dd",
        "token_owners(uint256)": "e0e8a260",
        "tokensOfOwner(address)": "8462151c",
        "totalSupply()": "18160ddd",
        "transferFrom(address,address,uint256)": "23b872dd",
        "transferOwnership(address)": "f2fde38b",
        "updateCollectionUri(string)": "512d8179",
        "updateImage(string)": "eb3d68e7"
    },
    "gasEstimates": {
        "creation": {
            "codeDepositCost": "2254800",
            "executionCost": "infinite",
            "totalCost": "infinite"
        },
        "external": {
            "MAX_PER_MINT()": "241",
            "MAX_SUPPLY()": "285",
            "approve(address,uint256)": "infinite",
            "balanceOf(address)": "2635",
            "baseTokenURI()": "infinite",
            "burnToken(uint256)": "infinite",
            "changeName(string)": "infinite",
            "changeSymbol(string)": "infinite",
            "collectionUri()": "infinite",
            "getApproved(uint256)": "4822",
            "getCollectionUri()": "infinite",
            "getImage()": "infinite",
            "getName()": "infinite",
            "getSymbol()": "infinite",
            "isApprovedForAll(address,address)": "infinite",
            "mintBatchWithURI(address[],string[])": "infinite",
            "mintNft(string)": "infinite",
            "name()": "infinite",
            "owner()": "2376",
            "ownerOf(uint256)": "2689",
            "pictureHash()": "infinite",
            "renounceOwnership()": "28185",
            "safeTransferFrom(address,address,uint256)": "infinite",
            "safeTransferFrom(address,address,uint256,bytes)": "infinite",
            "setApprovalForAll(address,bool)": "26772",
            "supportsInterface(bytes4)": "infinite",
            "symbol()": "infinite",
            "tokenByIndex(uint256)": "6760",
            "tokenOfOwnerByIndex(address,uint256)": "4998",
            "tokenURI(uint256)": "infinite",
            "token_owners(uint256)": "4658",
            "tokensOfOwner(address)": "infinite",
            "totalSupply()": "2426",
            "transferFrom(address,address,uint256)": "infinite",
            "transferOwnership(address)": "28422",
            "updateCollectionUri(string)": "infinite",
            "updateImage(string)": "infinite"
        },
        "internal": {
            "_beforeTokenTransfer(address,address,uint256)": "infinite",
            "_burn(uint256)": "infinite",
            "item_exists(uint256)": "infinite"
        }
    }
}