{
    "contractName": "NFT",
    "abi": [
        {
            "inputs": [
                {
                    "internalType": "string",
                    "name": "name",
                    "type": "string"
                },
                {
                    "internalType": "string",
                    "name": "sym",
                    "type": "string"
                },
                {
                    "internalType": "string",
                    "name": "collectionuri",
                    "type": "string"
                }
            ],
            "stateMutability": "nonpayable",
            "type": "constructor"
        },
        {
            "anonymous": false,
            "inputs": [
                {
                    "indexed": true,
                    "internalType": "address",
                    "name": "owner",
                    "type": "address"
                },
                {
                    "indexed": true,
                    "internalType": "address",
                    "name": "approved",
                    "type": "address"
                },
                {
                    "indexed": true,
                    "internalType": "uint256",
                    "name": "tokenId",
                    "type": "uint256"
                }
            ],
            "name": "Approval",
            "type": "event"
        },
        {
            "anonymous": false,
            "inputs": [
                {
                    "indexed": true,
                    "internalType": "address",
                    "name": "owner",
                    "type": "address"
                },
                {
                    "indexed": true,
                    "internalType": "address",
                    "name": "operator",
                    "type": "address"
                },
                {
                    "indexed": false,
                    "internalType": "bool",
                    "name": "approved",
                    "type": "bool"
                }
            ],
            "name": "ApprovalForAll",
            "type": "event"
        },
        {
            "anonymous": false,
            "inputs": [
                {
                    "indexed": false,
                    "internalType": "string",
                    "name": "name",
                    "type": "string"
                }
            ],
            "name": "CollNameChanged",
            "type": "event"
        },
        {
            "anonymous": false,
            "inputs": [
                {
                    "indexed": false,
                    "internalType": "address",
                    "name": "add",
                    "type": "address"
                },
                {
                    "indexed": false,
                    "internalType": "string",
                    "name": "uri",
                    "type": "string"
                }
            ],
            "name": "Minted",
            "type": "event"
        },
        {
            "anonymous": false,
            "inputs": [
                {
                    "indexed": false,
                    "internalType": "address",
                    "name": "add",
                    "type": "address"
                },
                {
                    "indexed": false,
                    "internalType": "string[]",
                    "name": "",
                    "type": "string[]"
                }
            ],
            "name": "MintedBatch",
            "type": "event"
        },
        {
            "anonymous": false,
            "inputs": [
                {
                    "indexed": true,
                    "internalType": "address",
                    "name": "previousOwner",
                    "type": "address"
                },
                {
                    "indexed": true,
                    "internalType": "address",
                    "name": "newOwner",
                    "type": "address"
                }
            ],
            "name": "OwnershipTransferred",
            "type": "event"
        },
        {
            "anonymous": false,
            "inputs": [
                {
                    "indexed": false,
                    "internalType": "string",
                    "name": "newhash",
                    "type": "string"
                }
            ],
            "name": "ProfileImagedChanged",
            "type": "event"
        },
        {
            "anonymous": false,
            "inputs": [
                {
                    "indexed": false,
                    "internalType": "string",
                    "name": "sym",
                    "type": "string"
                }
            ],
            "name": "SymChanged",
            "type": "event"
        },
        {
            "anonymous": false,
            "inputs": [
                {
                    "indexed": true,
                    "internalType": "address",
                    "name": "from",
                    "type": "address"
                },
                {
                    "indexed": true,
                    "internalType": "address",
                    "name": "to",
                    "type": "address"
                },
                {
                    "indexed": true,
                    "internalType": "uint256",
                    "name": "tokenId",
                    "type": "uint256"
                }
            ],
            "name": "Transfer",
            "type": "event"
        },
        {
            "anonymous": false,
            "inputs": [
                {
                    "indexed": false,
                    "internalType": "string",
                    "name": "description",
                    "type": "string"
                }
            ],
            "name": "UriChanged",
            "type": "event"
        },
        {
            "inputs": [
                {
                    "internalType": "address",
                    "name": "to",
                    "type": "address"
                },
                {
                    "internalType": "uint256",
                    "name": "tokenId",
                    "type": "uint256"
                }
            ],
            "name": "approve",
            "outputs": [],
            "stateMutability": "nonpayable",
            "type": "function"
        },
        {
            "inputs": [
                {
                    "internalType": "address",
                    "name": "owner",
                    "type": "address"
                }
            ],
            "name": "balanceOf",
            "outputs": [
                {
                    "internalType": "uint256",
                    "name": "",
                    "type": "uint256"
                }
            ],
            "stateMutability": "view",
            "type": "function"
        },
        {
            "inputs": [
                {
                    "internalType": "uint256",
                    "name": "tokenId",
                    "type": "uint256"
                }
            ],
            "name": "burnToken",
            "outputs": [
                {
                    "internalType": "string",
                    "name": "",
                    "type": "string"
                }
            ],
            "stateMutability": "nonpayable",
            "type": "function"
        },
        {
            "inputs": [
                {
                    "internalType": "string",
                    "name": "newName",
                    "type": "string"
                }
            ],
            "name": "changeName",
            "outputs": [
                {
                    "internalType": "string",
                    "name": "",
                    "type": "string"
                }
            ],
            "stateMutability": "nonpayable",
            "type": "function"
        },
        {
            "inputs": [
                {
                    "internalType": "string",
                    "name": "newSymbol",
                    "type": "string"
                }
            ],
            "name": "changeSymbol",
            "outputs": [
                {
                    "internalType": "string",
                    "name": "",
                    "type": "string"
                }
            ],
            "stateMutability": "nonpayable",
            "type": "function"
        },
        {
            "inputs": [
                {
                    "internalType": "uint256",
                    "name": "tokenId",
                    "type": "uint256"
                }
            ],
            "name": "getApproved",
            "outputs": [
                {
                    "internalType": "address",
                    "name": "",
                    "type": "address"
                }
            ],
            "stateMutability": "view",
            "type": "function"
        },
        {
            "inputs": [],
            "name": "getCollectionUri",
            "outputs": [
                {
                    "internalType": "string",
                    "name": "",
                    "type": "string"
                }
            ],
            "stateMutability": "view",
            "type": "function"
        },
        {
            "inputs": [],
            "name": "getImage",
            "outputs": [
                {
                    "internalType": "string",
                    "name": "",
                    "type": "string"
                }
            ],
            "stateMutability": "view",
            "type": "function"
        },
        {
            "inputs": [],
            "name": "getName",
            "outputs": [
                {
                    "internalType": "string",
                    "name": "",
                    "type": "string"
                }
            ],
            "stateMutability": "view",
            "type": "function"
        },
        {
            "inputs": [],
            "name": "getSymbol",
            "outputs": [
                {
                    "internalType": "string",
                    "name": "",
                    "type": "string"
                }
            ],
            "stateMutability": "view",
            "type": "function"
        },
        {
            "inputs": [
                {
                    "internalType": "address",
                    "name": "owner",
                    "type": "address"
                },
                {
                    "internalType": "address",
                    "name": "operator",
                    "type": "address"
                }
            ],
            "name": "isApprovedForAll",
            "outputs": [
                {
                    "internalType": "bool",
                    "name": "",
                    "type": "bool"
                }
            ],
            "stateMutability": "view",
            "type": "function"
        },
        {
            "inputs": [
                {
                    "internalType": "string[]",
                    "name": "tokenURIList_",
                    "type": "string[]"
                }
            ],
            "name": "mintBatchWithURI",
            "outputs": [
                {
                    "internalType": "bool",
                    "name": "",
                    "type": "bool"
                }
            ],
            "stateMutability": "payable",
            "type": "function"
        },
        {
            "inputs": [
                {
                    "internalType": "string",
                    "name": "tokenURI_",
                    "type": "string"
                }
            ],
            "name": "mintNft",
            "outputs": [
                {
                    "internalType": "uint256",
                    "name": "",
                    "type": "uint256"
                },
                {
                    "internalType": "string",
                    "name": "",
                    "type": "string"
                },
                {
                    "internalType": "bool",
                    "name": "",
                    "type": "bool"
                }
            ],
            "stateMutability": "payable",
            "type": "function"
        },
        {
            "inputs": [],
            "name": "name",
            "outputs": [
                {
                    "internalType": "string",
                    "name": "",
                    "type": "string"
                }
            ],
            "stateMutability": "view",
            "type": "function"
        },
        {
            "inputs": [],
            "name": "owner",
            "outputs": [
                {
                    "internalType": "address",
                    "name": "",
                    "type": "address"
                }
            ],
            "stateMutability": "view",
            "type": "function"
        },
        {
            "inputs": [
                {
                    "internalType": "uint256",
                    "name": "tokenId",
                    "type": "uint256"
                }
            ],
            "name": "ownerOf",
            "outputs": [
                {
                    "internalType": "address",
                    "name": "",
                    "type": "address"
                }
            ],
            "stateMutability": "view",
            "type": "function"
        },
        {
            "inputs": [],
            "name": "renounceOwnership",
            "outputs": [],
            "stateMutability": "nonpayable",
            "type": "function"
        },
        {
            "inputs": [
                {
                    "internalType": "address",
                    "name": "from",
                    "type": "address"
                },
                {
                    "internalType": "address",
                    "name": "to",
                    "type": "address"
                },
                {
                    "internalType": "uint256",
                    "name": "tokenId",
                    "type": "uint256"
                }
            ],
            "name": "safeTransferFrom",
            "outputs": [],
            "stateMutability": "nonpayable",
            "type": "function"
        },
        {
            "inputs": [
                {
                    "internalType": "address",
                    "name": "from",
                    "type": "address"
                },
                {
                    "internalType": "address",
                    "name": "to",
                    "type": "address"
                },
                {
                    "internalType": "uint256",
                    "name": "tokenId",
                    "type": "uint256"
                },
                {
                    "internalType": "bytes",
                    "name": "data",
                    "type": "bytes"
                }
            ],
            "name": "safeTransferFrom",
            "outputs": [],
            "stateMutability": "nonpayable",
            "type": "function"
        },
        {
            "inputs": [
                {
                    "internalType": "address",
                    "name": "operator",
                    "type": "address"
                },
                {
                    "internalType": "bool",
                    "name": "approved",
                    "type": "bool"
                }
            ],
            "name": "setApprovalForAll",
            "outputs": [],
            "stateMutability": "nonpayable",
            "type": "function"
        },
        {
            "inputs": [
                {
                    "internalType": "bytes4",
                    "name": "interfaceId",
                    "type": "bytes4"
                }
            ],
            "name": "supportsInterface",
            "outputs": [
                {
                    "internalType": "bool",
                    "name": "",
                    "type": "bool"
                }
            ],
            "stateMutability": "view",
            "type": "function"
        },
        {
            "inputs": [],
            "name": "symbol",
            "outputs": [
                {
                    "internalType": "string",
                    "name": "",
                    "type": "string"
                }
            ],
            "stateMutability": "view",
            "type": "function"
        },
        {
            "inputs": [
                {
                    "internalType": "uint256",
                    "name": "index",
                    "type": "uint256"
                }
            ],
            "name": "tokenByIndex",
            "outputs": [
                {
                    "internalType": "uint256",
                    "name": "",
                    "type": "uint256"
                }
            ],
            "stateMutability": "view",
            "type": "function"
        },
        {
            "inputs": [
                {
                    "internalType": "address",
                    "name": "owner",
                    "type": "address"
                },
                {
                    "internalType": "uint256",
                    "name": "index",
                    "type": "uint256"
                }
            ],
            "name": "tokenOfOwnerByIndex",
            "outputs": [
                {
                    "internalType": "uint256",
                    "name": "",
                    "type": "uint256"
                }
            ],
            "stateMutability": "view",
            "type": "function"
        },
        {
            "inputs": [
                {
                    "internalType": "uint256",
                    "name": "tokenId",
                    "type": "uint256"
                }
            ],
            "name": "tokenURI",
            "outputs": [
                {
                    "internalType": "string",
                    "name": "",
                    "type": "string"
                }
            ],
            "stateMutability": "view",
            "type": "function"
        },
        {
            "inputs": [
                {
                    "internalType": "address",
                    "name": "token_owner",
                    "type": "address"
                }
            ],
            "name": "tokensOfOwner",
            "outputs": [
                {
                    "internalType": "uint256[]",
                    "name": "",
                    "type": "uint256[]"
                }
            ],
            "stateMutability": "view",
            "type": "function"
        },
        {
            "inputs": [],
            "name": "totalSupply",
            "outputs": [
                {
                    "internalType": "uint256",
                    "name": "",
                    "type": "uint256"
                }
            ],
            "stateMutability": "view",
            "type": "function"
        },
        {
            "inputs": [
                {
                    "internalType": "address",
                    "name": "from",
                    "type": "address"
                },
                {
                    "internalType": "address",
                    "name": "to",
                    "type": "address"
                },
                {
                    "internalType": "uint256",
                    "name": "tokenId",
                    "type": "uint256"
                }
            ],
            "name": "transferFrom",
            "outputs": [],
            "stateMutability": "nonpayable",
            "type": "function"
        },
        {
            "inputs": [
                {
                    "internalType": "address",
                    "name": "newOwner",
                    "type": "address"
                }
            ],
            "name": "transferOwnership",
            "outputs": [],
            "stateMutability": "nonpayable",
            "type": "function"
        },
        {
            "inputs": [
                {
                    "internalType": "string",
                    "name": "newUri",
                    "type": "string"
                }
            ],
            "name": "updateCollectionUri",
            "outputs": [
                {
                    "internalType": "string",
                    "name": "",
                    "type": "string"
                }
            ],
            "stateMutability": "nonpayable",
            "type": "function"
        },
        {
            "inputs": [
                {
                    "internalType": "string",
                    "name": "newHash",
                    "type": "string"
                }
            ],
            "name": "updateImage",
            "outputs": [
                {
                    "internalType": "string",
                    "name": "",
                    "type": "string"
                }
            ],
            "stateMutability": "nonpayable",
            "type": "function"
        },
        {
            "inputs": [
                {
                    "internalType": "uint256",
                    "name": "tokenId_",
                    "type": "uint256"
                },
                {
                    "internalType": "address",
                    "name": "from",
                    "type": "address"
                },
                {
                    "internalType": "address",
                    "name": "to",
                    "type": "address"
                }
            ],
            "name": "withdrawToken",
            "outputs": [],
            "stateMutability": "payable",
            "type": "function"
        }
    ],
    "bytecode": "6080604052601a80546001600160a01b03191673d9145cce52d386f254917e481eb44e9943f391381790553480156200003757600080fd5b5060405162002ece38038062002ece8339810160408190526200005a916200032d565b601080546200006990620003be565b80601f01602080910402602001604051908101604052809291908181526020018280546200009790620003be565b8015620000e85780601f10620000bc57610100808354040283529160200191620000e8565b820191906000526020600020905b815481529060010190602001808311620000ca57829003601f168201915b505050505060118054620000fc90620003be565b80601f01602080910402602001604051908101604052809291908181526020018280546200012a90620003be565b80156200017b5780601f106200014f576101008083540402835291602001916200017b565b820191906000526020600020905b8154815290600101906020018083116200015d57829003601f168201915b505050505081600090816200019191906200044d565b506001620001a082826200044d565b505050620001bd620001b76200020a60201b60201c565b6200020e565b6001600c55601980546001600160a01b031916331790556011620001e283826200044d565b506010620001f184826200044d565b50600f6200020082826200044d565b5050505062000519565b3390565b600b80546001600160a01b038381166001600160a01b0319831681179093556040519116919082907f8be0079c531659141344cd1fd0a4f28419497f9722a3daafe3b4186f6b6457e090600090a35050565b634e487b7160e01b600052604160045260246000fd5b600082601f8301126200028857600080fd5b81516001600160401b0380821115620002a557620002a562000260565b604051601f8301601f19908116603f01168101908282118183101715620002d057620002d062000260565b81604052838152602092508683858801011115620002ed57600080fd5b600091505b83821015620003115785820183015181830184015290820190620002f2565b83821115620003235760008385830101525b9695505050505050565b6000806000606084860312156200034357600080fd5b83516001600160401b03808211156200035b57600080fd5b620003698783880162000276565b945060208601519150808211156200038057600080fd5b6200038e8783880162000276565b93506040860151915080821115620003a557600080fd5b50620003b48682870162000276565b9150509250925092565b600181811c90821680620003d357607f821691505b602082108103620003f457634e487b7160e01b600052602260045260246000fd5b50919050565b601f8211156200044857600081815260208120601f850160051c81016020861015620004235750805b601f850160051c820191505b8181101562000444578281556001016200042f565b5050505b505050565b81516001600160401b0381111562000469576200046962000260565b62000481816200047a8454620003be565b84620003fa565b602080601f831160018114620004b95760008415620004a05750858301515b600019600386901b1c1916600185901b17855562000444565b600085815260208120601f198616915b82811015620004ea57888601518255948401946001909101908401620004c9565b5085821015620005095787850151600019600388901b60f8161c191681555b5050505050600190811b01905550565b6129a580620005296000396000f3fe6080604052600436106101e35760003560e01c80636352211e11610102578063a3895fff11610095578063e985e9c511610064578063e985e9c514610554578063eb3d68e71461059d578063f2fde38b146105bd578063f3651cbb146105dd57600080fd5b8063a3895fff146104d2578063b88d4fde146104f2578063c87b56dd14610512578063da86f4a91461053257600080fd5b80638462151c116100d15780638462151c146104525780638da5cb5b1461047f57806395d89b411461049d578063a22cb465146104b257600080fd5b80636352211e146103dd57806370a08231146103fd578063715018a61461041d5780637b47ec1a1461043257600080fd5b806323b872dd1161017a5780634f6ccce7116101495780634f6ccce714610368578063512d8179146103885780635353a2d8146103a8578063576eb0c8146103c857600080fd5b806323b872dd146102f5578063258898b3146103155780632f745c591461032857806342842e0e1461034857600080fd5b80630a694316116101b65780630a6943161461029957806315070401146102ac57806317d7de7c146102c157806318160ddd146102d657600080fd5b806301ffc9a7146101e857806306fdde031461021d578063081812fc1461023f578063095ea7b314610277575b600080fd5b3480156101f457600080fd5b50610208610203366004612091565b6105f2565b60405190151581526020015b60405180910390f35b34801561022957600080fd5b50610232610603565b6040516102149190612106565b34801561024b57600080fd5b5061025f61025a366004612119565b610695565b6040516001600160a01b039091168152602001610214565b34801561028357600080fd5b50610297610292366004612149565b6106bc565b005b6102086102a7366004612232565b6107d6565b3480156102b857600080fd5b506102326109b8565b3480156102cd57600080fd5b506102326109c7565b3480156102e257600080fd5b506009545b604051908152602001610214565b34801561030157600080fd5b506102976103103660046122f5565b6109d6565b610297610323366004612331565b610a07565b34801561033457600080fd5b506102e7610343366004612149565b610a12565b34801561035457600080fd5b506102976103633660046122f5565b610aa8565b34801561037457600080fd5b506102e7610383366004612119565b610ac3565b34801561039457600080fd5b506102326103a336600461236d565b610b56565b3480156103b457600080fd5b506102326103c336600461236d565b610c4f565b3480156103d457600080fd5b50610232610cab565b3480156103e957600080fd5b5061025f6103f8366004612119565b610cba565b34801561040957600080fd5b506102e76104183660046123a2565b610d1a565b34801561042957600080fd5b50610297610da0565b34801561043e57600080fd5b5061023261044d366004612119565b610db4565b34801561045e57600080fd5b5061047261046d3660046123a2565b610e18565b60405161021491906123bd565b34801561048b57600080fd5b50600b546001600160a01b031661025f565b3480156104a957600080fd5b50610232610eba565b3480156104be57600080fd5b506102976104cd366004612401565b610ec9565b3480156104de57600080fd5b506102326104ed36600461236d565b610ed8565b3480156104fe57600080fd5b5061029761050d36600461243d565b610f34565b34801561051e57600080fd5b5061023261052d366004612119565b610f6c565b61054561054036600461236d565b610f77565b604051610214939291906124b9565b34801561056057600080fd5b5061020861056f3660046124e4565b6001600160a01b03918216600090815260056020908152604080832093909416825291909152205460ff1690565b3480156105a957600080fd5b506102326105b836600461236d565b6110ef565b3480156105c957600080fd5b506102976105d83660046123a2565b61114b565b3480156105e957600080fd5b506102326111c4565b60006105fd826111d3565b92915050565b60606000805461061290612517565b80601f016020809104026020016040519081016040528092919081815260200182805461063e90612517565b801561068b5780601f106106605761010080835404028352916020019161068b565b820191906000526020600020905b81548152906001019060200180831161066e57829003601f168201915b5050505050905090565b60006106a0826111f8565b506000908152600460205260409020546001600160a01b031690565b60006106c782610cba565b9050806001600160a01b0316836001600160a01b0316036107395760405162461bcd60e51b815260206004820152602160248201527f4552433732313a20617070726f76616c20746f2063757272656e74206f776e656044820152603960f91b60648201526084015b60405180910390fd5b336001600160a01b03821614806107555750610755813361056f565b6107c75760405162461bcd60e51b815260206004820152603e60248201527f4552433732313a20617070726f76652063616c6c6572206973206e6f7420746f60448201527f6b656e206f776e6572206e6f7220617070726f76656420666f7220616c6c00006064820152608401610730565b6107d18383611257565b505050565b60006107e06112c5565b6002600c54036108325760405162461bcd60e51b815260206004820152601f60248201527f5265656e7472616e637947756172643a207265656e7472616e742063616c6c006044820152606401610730565b6002600c5581516005101561084657600080fd5b6015546127101161085657600080fd5b6019546001600160a01b0316331461086d57600080fd5b60005b825181101561096457610887600d80546001019055565b6000610892600d5490565b6019549091506108ab906001600160a01b03168261131f565b6108ce818584815181106108c1576108c1612551565b6020026020010151611339565b601a546108e5906001600160a01b03166001610ec9565b8382815181106108f7576108f7612551565b602002602001015160166000838152602001908152602001600020908161091e91906125b5565b50601580546001810182556000919091527f55f448fdea98c4d29eb340757ef0a66cd03dbb9538908a6a81d96026b71ec47501558061095c8161268b565b915050610870565b506019546040517f2906cdb8844b03f65eddfd35c5c557db8ce9bfb188148611de19acd7549be072916109a4916001600160a01b039091169085906126a4565b60405180910390a150600180600c55919050565b60606011805461061290612517565b60606010805461061290612517565b6109e033826113cc565b6109fc5760405162461bcd60e51b815260040161073090612716565b6107d183838361144b565b6107d18282856109d6565b6000610a1d83610d1a565b8210610a7f5760405162461bcd60e51b815260206004820152602b60248201527f455243373231456e756d657261626c653a206f776e657220696e646578206f7560448201526a74206f6620626f756e647360a81b6064820152608401610730565b506001600160a01b03919091166000908152600760209081526040808320938352929052205490565b6107d183838360405180602001604052806000815250610f34565b6000610ace60095490565b8210610b315760405162461bcd60e51b815260206004820152602c60248201527f455243373231456e756d657261626c653a20676c6f62616c20696e646578206f60448201526b7574206f6620626f756e647360a01b6064820152608401610730565b60098281548110610b4457610b44612551565b90600052602060002001549050919050565b6060610b606112c5565b6019546001600160a01b03163314610b7757600080fd5b600f610b8383826125b5565b507fb1bf12e17db588c31e8fb2afdd2b3bc1ed822d68c560856fcbc75ae303fc5d14600f604051610bb49190612764565b60405180910390a1600f8054610bc990612517565b80601f0160208091040260200160405190810160405280929190818152602001828054610bf590612517565b8015610c425780601f10610c1757610100808354040283529160200191610c42565b820191906000526020600020905b815481529060010190602001808311610c2557829003601f168201915b505050505090505b919050565b6060610c596112c5565b6010610c6583826125b5565b507fdb20dabbb5efd89a937d098421a5998e4b9d55aba588384728ddeed0ab507cb36010604051610c969190612764565b60405180910390a160108054610bc990612517565b6060600f805461061290612517565b6000818152600260205260408120546001600160a01b0316806105fd5760405162461bcd60e51b8152602060048201526018602482015277115490cdcc8c4e881a5b9d985b1a59081d1bdad95b88125160421b6044820152606401610730565b60006001600160a01b038216610d845760405162461bcd60e51b815260206004820152602960248201527f4552433732313a2061646472657373207a65726f206973206e6f7420612076616044820152683634b21037bbb732b960b91b6064820152608401610730565b506001600160a01b031660009081526003602052604090205490565b610da86112c5565b610db260006115f2565b565b6019546060906001600160a01b03163314610dce57600080fd5b610dd782611644565b610de057600080fd5b610de98261169a565b50506040805180820190915260138152724275726e6564207375636365737366756c6c7960681b602082015290565b60606000610e2583610d1a565b905060008167ffffffffffffffff811115610e4257610e42612173565b604051908082528060200260200182016040528015610e6b578160200160208202803683370190505b50905060005b82811015610eb257610e838582610a12565b828281518110610e9557610e95612551565b602090810291909101015280610eaa8161268b565b915050610e71565b509392505050565b60606001805461061290612517565b610ed43383836116a3565b5050565b6060610ee26112c5565b6011610eee83826125b5565b507fe296400bb666223484e326e43efa59ecb30d87974265ee552f73a1a8770a9c5b6011604051610f1f9190612764565b60405180910390a160118054610bc990612517565b610f3e33836113cc565b610f5a5760405162461bcd60e51b815260040161073090612716565b610f6684848484611771565b50505050565b60606105fd826117a4565b600060606000610f856112c5565b6002600c5403610fd75760405162461bcd60e51b815260206004820152601f60248201527f5265656e7472616e637947756172643a207265656e7472616e742063616c6c006044820152606401610730565b6002600c5560155461271011610fec57600080fd5b6019546001600160a01b0316331461100357600080fd5b611011600d80546001019055565b600061101c600d5490565b905061102833826118ac565b6110328186611339565b601a54611049906001600160a01b03166001610ec9565b600081815260166020526040902061106186826125b5565b50601580546001810182556000919091527f55f448fdea98c4d29eb340757ef0a66cd03dbb9538908a6a81d96026b71ec475018190556019546040517f0c1b180fbb60448c5491c5ddc7c3a923854214b9ff70f90a7821333338971f92916110d6916001600160a01b039091169088906127ed565b60405180910390a16001600c8190559095909350915050565b60606110f96112c5565b600e61110583826125b5565b507f1232962fea5392c31c253fb9dd669d3b760ca09069ff48aa1cea346c80f3560e600e6040516111369190612764565b60405180910390a1600e8054610bc990612517565b6111536112c5565b6001600160a01b0381166111b85760405162461bcd60e51b815260206004820152602660248201527f4f776e61626c653a206e6577206f776e657220697320746865207a65726f206160448201526564647265737360d01b6064820152608401610730565b6111c1816115f2565b50565b6060600e805461061290612517565b60006001600160e01b0319821663780e9d6360e01b14806105fd57506105fd826119fa565b6000818152600260205260409020546001600160a01b03166111c15760405162461bcd60e51b8152602060048201526018602482015277115490cdcc8c4e881a5b9d985b1a59081d1bdad95b88125160421b6044820152606401610730565b600081815260046020526040902080546001600160a01b0319166001600160a01b038416908117909155819061128c82610cba565b6001600160a01b03167f8c5be1e5ebec7d5bd14f71427d1e84f3dd0314c0f7b2291e5b200ac8c7c3b92560405160405180910390a45050565b600b546001600160a01b03163314610db25760405162461bcd60e51b815260206004820181905260248201527f4f776e61626c653a2063616c6c6572206973206e6f7420746865206f776e65726044820152606401610730565b610ed4828260405180602001604052806000815250611a4a565b6000828152600260205260409020546001600160a01b03166113b45760405162461bcd60e51b815260206004820152602e60248201527f45524337323155524953746f726167653a2055524920736574206f66206e6f6e60448201526d32bc34b9ba32b73a103a37b5b2b760911b6064820152608401610730565b60008281526006602052604090206107d182826125b5565b6000806113d883610cba565b9050806001600160a01b0316846001600160a01b0316148061141f57506001600160a01b0380821660009081526005602090815260408083209388168352929052205460ff165b806114435750836001600160a01b031661143884610695565b6001600160a01b0316145b949350505050565b826001600160a01b031661145e82610cba565b6001600160a01b0316146114c25760405162461bcd60e51b815260206004820152602560248201527f4552433732313a207472616e736665722066726f6d20696e636f72726563742060448201526437bbb732b960d91b6064820152608401610730565b6001600160a01b0382166115245760405162461bcd60e51b8152602060048201526024808201527f4552433732313a207472616e7366657220746f20746865207a65726f206164646044820152637265737360e01b6064820152608401610730565b61152f838383611a7d565b61153a600082611257565b6001600160a01b0383166000908152600360205260408120805460019290611563908490612811565b90915550506001600160a01b0382166000908152600360205260408120805460019290611591908490612828565b909155505060008181526002602052604080822080546001600160a01b0319166001600160a01b0386811691821790925591518493918716917fddf252ad1be2c89b69c2b068fc378daa952ba7f163c4a11628f55a4df523b3ef91a4505050565b600b80546001600160a01b038381166001600160a01b0319831681179093556040519116919082907f8be0079c531659141344cd1fd0a4f28419497f9722a3daafe3b4186f6b6457e090600090a35050565b6000805b60155481101561169157826015828154811061166657611666612551565b90600052602060002001540361167f5750600192915050565b806116898161268b565b915050611648565b50600092915050565b6111c181611a88565b816001600160a01b0316836001600160a01b0316036117045760405162461bcd60e51b815260206004820152601960248201527f4552433732313a20617070726f766520746f2063616c6c6572000000000000006044820152606401610730565b6001600160a01b03838116600081815260056020908152604080832094871680845294825291829020805460ff191686151590811790915591519182527f17307eab39ab6107e8899845ad3d59bd9653f200f220920489ca2b5937696c31910160405180910390a3505050565b61177c84848461144b565b61178884848484611ac8565b610f665760405162461bcd60e51b815260040161073090612840565b60606117af826111f8565b600082815260066020526040812080546117c890612517565b80601f01602080910402602001604051908101604052809291908181526020018280546117f490612517565b80156118415780601f1061181657610100808354040283529160200191611841565b820191906000526020600020905b81548152906001019060200180831161182457829003601f168201915b50505050509050600061185f60408051602081019091526000815290565b90508051600003611871575092915050565b8151156118a357808260405160200161188b929190612892565b60405160208183030381529060405292505050919050565b61144384611bc9565b6001600160a01b0382166119025760405162461bcd60e51b815260206004820181905260248201527f4552433732313a206d696e7420746f20746865207a65726f20616464726573736044820152606401610730565b6000818152600260205260409020546001600160a01b0316156119675760405162461bcd60e51b815260206004820152601c60248201527f4552433732313a20746f6b656e20616c7265616479206d696e746564000000006044820152606401610730565b61197360008383611a7d565b6001600160a01b038216600090815260036020526040812080546001929061199c908490612828565b909155505060008181526002602052604080822080546001600160a01b0319166001600160a01b03861690811790915590518392907fddf252ad1be2c89b69c2b068fc378daa952ba7f163c4a11628f55a4df523b3ef908290a45050565b60006001600160e01b031982166380ac58cd60e01b1480611a2b57506001600160e01b03198216635b5e139f60e01b145b806105fd57506301ffc9a760e01b6001600160e01b03198316146105fd565b611a5483836118ac565b611a616000848484611ac8565b6107d15760405162461bcd60e51b815260040161073090612840565b6107d1838383611c3d565b611a9181611cf5565b60008181526006602052604090208054611aaa90612517565b1590506111c15760008181526006602052604081206111c19161202d565b60006001600160a01b0384163b15611bbe57604051630a85bd0160e11b81526001600160a01b0385169063150b7a0290611b0c9033908990889088906004016128c1565b6020604051808303816000875af1925050508015611b47575060408051601f3d908101601f19168201909252611b44918101906128fe565b60015b611ba4573d808015611b75576040519150601f19603f3d011682016040523d82523d6000602084013e611b7a565b606091505b508051600003611b9c5760405162461bcd60e51b815260040161073090612840565b805181602001fd5b6001600160e01b031916630a85bd0160e11b149050611443565b506001949350505050565b6060611bd4826111f8565b6000611beb60408051602081019091526000815290565b90506000815111611c0b5760405180602001604052806000815250611c36565b80611c1584611d9c565b604051602001611c26929190612892565b6040516020818303038152906040525b9392505050565b6001600160a01b038316611c9857611c9381600980546000838152600a60205260408120829055600182018355919091527f6e1540171b6c0c960b71a7020d9f60077f6af931a8bbf590da0223dacf75c7af0155565b611cbb565b816001600160a01b0316836001600160a01b031614611cbb57611cbb8382611e9d565b6001600160a01b038216611cd2576107d181611f3a565b826001600160a01b0316826001600160a01b0316146107d1576107d18282611fe9565b6000611d0082610cba565b9050611d0e81600084611a7d565b611d19600083611257565b6001600160a01b0381166000908152600360205260408120805460019290611d42908490612811565b909155505060008281526002602052604080822080546001600160a01b0319169055518391906001600160a01b038416907fddf252ad1be2c89b69c2b068fc378daa952ba7f163c4a11628f55a4df523b3ef908390a45050565b606081600003611dc35750506040805180820190915260018152600360fc1b602082015290565b8160005b8115611ded5780611dd78161268b565b9150611de69050600a83612931565b9150611dc7565b60008167ffffffffffffffff811115611e0857611e08612173565b6040519080825280601f01601f191660200182016040528015611e32576020820181803683370190505b5090505b841561144357611e47600183612811565b9150611e54600a86612945565b611e5f906030612828565b60f81b818381518110611e7457611e74612551565b60200101906001600160f81b031916908160001a905350611e96600a86612931565b9450611e36565b60006001611eaa84610d1a565b611eb49190612811565b600083815260086020526040902054909150808214611f07576001600160a01b03841660009081526007602090815260408083208584528252808320548484528184208190558352600890915290208190555b5060009182526008602090815260408084208490556001600160a01b039094168352600781528383209183525290812055565b600954600090611f4c90600190612811565b6000838152600a602052604081205460098054939450909284908110611f7457611f74612551565b906000526020600020015490508060098381548110611f9557611f95612551565b6000918252602080832090910192909255828152600a90915260408082208490558582528120556009805480611fcd57611fcd612959565b6001900381819060005260206000200160009055905550505050565b6000611ff483610d1a565b6001600160a01b039093166000908152600760209081526040808320868452825280832085905593825260089052919091209190915550565b50805461203990612517565b6000825580601f10612049575050565b601f0160209004906000526020600020908101906111c191905b808211156120775760008155600101612063565b5090565b6001600160e01b0319811681146111c157600080fd5b6000602082840312156120a357600080fd5b8135611c368161207b565b60005b838110156120c95781810151838201526020016120b1565b83811115610f665750506000910152565b600081518084526120f28160208601602086016120ae565b601f01601f19169290920160200192915050565b602081526000611c3660208301846120da565b60006020828403121561212b57600080fd5b5035919050565b80356001600160a01b0381168114610c4a57600080fd5b6000806040838503121561215c57600080fd5b61216583612132565b946020939093013593505050565b634e487b7160e01b600052604160045260246000fd5b604051601f8201601f1916810167ffffffffffffffff811182821017156121b2576121b2612173565b604052919050565b600067ffffffffffffffff8311156121d4576121d4612173565b6121e7601f8401601f1916602001612189565b90508281528383830111156121fb57600080fd5b828260208301376000602084830101529392505050565b600082601f83011261222357600080fd5b611c36838335602085016121ba565b6000602080838503121561224557600080fd5b823567ffffffffffffffff8082111561225d57600080fd5b818501915085601f83011261227157600080fd5b81358181111561228357612283612173565b8060051b612292858201612189565b91825283810185019185810190898411156122ac57600080fd5b86860192505b838310156122e8578235858111156122ca5760008081fd5b6122d88b89838a0101612212565b83525091860191908601906122b2565b9998505050505050505050565b60008060006060848603121561230a57600080fd5b61231384612132565b925061232160208501612132565b9150604084013590509250925092565b60008060006060848603121561234657600080fd5b8335925061235660208501612132565b915061236460408501612132565b90509250925092565b60006020828403121561237f57600080fd5b813567ffffffffffffffff81111561239657600080fd5b61144384828501612212565b6000602082840312156123b457600080fd5b611c3682612132565b6020808252825182820181905260009190848201906040850190845b818110156123f5578351835292840192918401916001016123d9565b50909695505050505050565b6000806040838503121561241457600080fd5b61241d83612132565b91506020830135801515811461243257600080fd5b809150509250929050565b6000806000806080858703121561245357600080fd5b61245c85612132565b935061246a60208601612132565b925060408501359150606085013567ffffffffffffffff81111561248d57600080fd5b8501601f8101871361249e57600080fd5b6124ad878235602084016121ba565b91505092959194509250565b8381526060602082015260006124d260608301856120da565b90508215156040830152949350505050565b600080604083850312156124f757600080fd5b61250083612132565b915061250e60208401612132565b90509250929050565b600181811c9082168061252b57607f821691505b60208210810361254b57634e487b7160e01b600052602260045260246000fd5b50919050565b634e487b7160e01b600052603260045260246000fd5b601f8211156107d157600081815260208120601f850160051c8101602086101561258e5750805b601f850160051c820191505b818110156125ad5782815560010161259a565b505050505050565b815167ffffffffffffffff8111156125cf576125cf612173565b6125e3816125dd8454612517565b84612567565b602080601f83116001811461261857600084156126005750858301515b600019600386901b1c1916600185901b1785556125ad565b600085815260208120601f198616915b8281101561264757888601518255948401946001909101908401612628565b50858210156126655787850151600019600388901b60f8161c191681555b5050505050600190811b01905550565b634e487b7160e01b600052601160045260246000fd5b60006001820161269d5761269d612675565b5060010190565b60006040820160018060a01b0385168352602060408185015281855180845260608601915060608160051b870101935082870160005b8281101561270857605f198887030184526126f68683516120da565b955092840192908401906001016126da565b509398975050505050505050565b6020808252602e908201527f4552433732313a2063616c6c6572206973206e6f7420746f6b656e206f776e6560408201526d1c881b9bdc88185c1c1c9bdd995960921b606082015260800190565b600060208083526000845461277881612517565b8084870152604060018084166000811461279957600181146127b357612708565b60ff1985168984015283151560051b890183019550612708565b896000528660002060005b858110156127d95781548b82018601529083019088016127be565b909901929092019998505050505050505050565b6001600160a01b0383168152604060208201819052600090611443908301846120da565b60008282101561282357612823612675565b500390565b6000821982111561283b5761283b612675565b500190565b60208082526032908201527f4552433732313a207472616e7366657220746f206e6f6e20455243373231526560408201527131b2b4bb32b91034b6b83632b6b2b73a32b960711b606082015260800190565b600083516128a48184602088016120ae565b8351908301906128b88183602088016120ae565b01949350505050565b6001600160a01b03858116825284166020820152604081018390526080606082018190526000906128f4908301846120da565b9695505050505050565b60006020828403121561291057600080fd5b8151611c368161207b565b634e487b7160e01b600052601260045260246000fd5b6000826129405761294061291b565b500490565b6000826129545761295461291b565b500690565b634e487b7160e01b600052603160045260246000fdfea2646970667358221220465c0a4c49e4b36197f890ba9a0f6cb1e8e75d73576e7683514efb24e7b92d5564736f6c634300080f0033",
    "sourcePath": "c:/Users/Nobert Jakpor/Desktop/NftMarketplace (Frontend)/SmartContracts/NFTcontract.sol",
    "compiler": {
        "name": "solc",
        "version": "0.8.15+commit.e14f2714"
    },
    "functionHashes": {
        "approve(address,uint256)": "095ea7b3",
        "balanceOf(address)": "70a08231",
        "burnToken(uint256)": "7b47ec1a",
        "changeName(string)": "5353a2d8",
        "changeSymbol(string)": "a3895fff",
        "getApproved(uint256)": "081812fc",
        "getCollectionUri()": "576eb0c8",
        "getImage()": "f3651cbb",
        "getName()": "17d7de7c",
        "getSymbol()": "15070401",
        "isApprovedForAll(address,address)": "e985e9c5",
        "mintBatchWithURI(string[])": "0a694316",
        "mintNft(string)": "da86f4a9",
        "name()": "06fdde03",
        "owner()": "8da5cb5b",
        "ownerOf(uint256)": "6352211e",
        "renounceOwnership()": "715018a6",
        "safeTransferFrom(address,address,uint256)": "42842e0e",
        "safeTransferFrom(address,address,uint256,bytes)": "b88d4fde",
        "setApprovalForAll(address,bool)": "a22cb465",
        "supportsInterface(bytes4)": "01ffc9a7",
        "symbol()": "95d89b41",
        "tokenByIndex(uint256)": "4f6ccce7",
        "tokenOfOwnerByIndex(address,uint256)": "2f745c59",
        "tokenURI(uint256)": "c87b56dd",
        "tokensOfOwner(address)": "8462151c",
        "totalSupply()": "18160ddd",
        "transferFrom(address,address,uint256)": "23b872dd",
        "transferOwnership(address)": "f2fde38b",
        "updateCollectionUri(string)": "512d8179",
        "updateImage(string)": "eb3d68e7",
        "withdrawToken(uint256,address,address)": "258898b3"
    },
    "gasEstimates": {
        "creation": {
            "codeDepositCost": "2132200",
            "executionCost": "infinite",
            "totalCost": "infinite"
        },
        "external": {
            "approve(address,uint256)": "infinite",
            "balanceOf(address)": "2657",
            "burnToken(uint256)": "infinite",
            "changeName(string)": "infinite",
            "changeSymbol(string)": "infinite",
            "getApproved(uint256)": "4815",
            "getCollectionUri()": "infinite",
            "getImage()": "infinite",
            "getName()": "infinite",
            "getSymbol()": "infinite",
            "isApprovedForAll(address,address)": "infinite",
            "mintBatchWithURI(string[])": "infinite",
            "mintNft(string)": "infinite",
            "name()": "infinite",
            "owner()": "2398",
            "ownerOf(uint256)": "2584",
            "renounceOwnership()": "infinite",
            "safeTransferFrom(address,address,uint256)": "infinite",
            "safeTransferFrom(address,address,uint256,bytes)": "infinite",
            "setApprovalForAll(address,bool)": "26794",
            "supportsInterface(bytes4)": "infinite",
            "symbol()": "infinite",
            "tokenByIndex(uint256)": "6760",
            "tokenOfOwnerByIndex(address,uint256)": "5020",
            "tokenURI(uint256)": "infinite",
            "tokensOfOwner(address)": "infinite",
            "totalSupply()": "2393",
            "transferFrom(address,address,uint256)": "infinite",
            "transferOwnership(address)": "28424",
            "updateCollectionUri(string)": "infinite",
            "updateImage(string)": "infinite",
            "withdrawToken(uint256,address,address)": "infinite"
        },
        "internal": {
            "_beforeTokenTransfer(address,address,uint256)": "infinite",
            "_burn(uint256)": "infinite",
            "item_exists(uint256)": "infinite"
        }
    }
}